{
  "_format": "hh-sol-artifact-1",
  "contractName": "FunctionsBillingRegistry",
  "sourceName": "contracts/dev/functions/FunctionsBillingRegistry.sol",
  "abi": [
    {
      "inputs": [
        {
          "internalType": "uint256",
          "name": "internalBalance",
          "type": "uint256"
        },
        {
          "internalType": "uint256",
          "name": "externalBalance",
          "type": "uint256"
        }
      ],
      "name": "BalanceInvariantViolated",
      "type": "error"
    },
    {
      "inputs": [],
      "name": "CannotSelfTransfer",
      "type": "error"
    },
    {
      "inputs": [],
      "name": "EmptySendersList",
      "type": "error"
    },
    {
      "inputs": [
        {
          "internalType": "uint32",
          "name": "have",
          "type": "uint32"
        },
        {
          "internalType": "uint32",
          "name": "want",
          "type": "uint32"
        }
      ],
      "name": "GasLimitTooBig",
      "type": "error"
    },
    {
      "inputs": [],
      "name": "InsufficientBalance",
      "type": "error"
    },
    {
      "inputs": [],
      "name": "InvalidCalldata",
      "type": "error"
    },
    {
      "inputs": [
        {
          "internalType": "uint64",
          "name": "subscriptionId",
          "type": "uint64"
        },
        {
          "internalType": "address",
          "name": "consumer",
          "type": "address"
        }
      ],
      "name": "InvalidConsumer",
      "type": "error"
    },
    {
      "inputs": [
        {
          "internalType": "int256",
          "name": "linkWei",
          "type": "int256"
        }
      ],
      "name": "InvalidLinkWeiPrice",
      "type": "error"
    },
    {
      "inputs": [],
      "name": "InvalidSubscription",
      "type": "error"
    },
    {
      "inputs": [
        {
          "internalType": "address",
          "name": "proposedOwner",
          "type": "address"
        }
      ],
      "name": "MustBeRequestedOwner",
      "type": "error"
    },
    {
      "inputs": [
        {
          "internalType": "address",
          "name": "owner",
          "type": "address"
        }
      ],
      "name": "MustBeSubOwner",
      "type": "error"
    },
    {
      "inputs": [],
      "name": "NotAllowedToSetSenders",
      "type": "error"
    },
    {
      "inputs": [],
      "name": "NotProposedOwner",
      "type": "error"
    },
    {
      "inputs": [],
      "name": "OnlyCallableByOwner",
      "type": "error"
    },
    {
      "inputs": [],
      "name": "OnlyCallableFromLink",
      "type": "error"
    },
    {
      "inputs": [],
      "name": "OwnerMustBeSet",
      "type": "error"
    },
    {
      "inputs": [],
      "name": "PaymentTooLarge",
      "type": "error"
    },
    {
      "inputs": [],
      "name": "PendingRequestExists",
      "type": "error"
    },
    {
      "inputs": [],
      "name": "Reentrant",
      "type": "error"
    },
    {
      "inputs": [],
      "name": "TooManyConsumers",
      "type": "error"
    },
    {
      "inputs": [],
      "name": "UnauthorizedSender",
      "type": "error"
    },
    {
      "anonymous": false,
      "inputs": [
        {
          "indexed": false,
          "internalType": "address[]",
          "name": "senders",
          "type": "address[]"
        },
        {
          "indexed": false,
          "internalType": "address",
          "name": "changedBy",
          "type": "address"
        }
      ],
      "name": "AuthorizedSendersChanged",
      "type": "event"
    },
    {
      "anonymous": false,
      "inputs": [
        {
          "indexed": true,
          "internalType": "bytes32",
          "name": "requestId",
          "type": "bytes32"
        },
        {
          "indexed": false,
          "internalType": "uint64",
          "name": "subscriptionId",
          "type": "uint64"
        },
        {
          "indexed": false,
          "internalType": "uint96",
          "name": "signerPayment",
          "type": "uint96"
        },
        {
          "indexed": false,
          "internalType": "uint96",
          "name": "transmitterPayment",
          "type": "uint96"
        },
        {
          "indexed": false,
          "internalType": "uint96",
          "name": "totalCost",
          "type": "uint96"
        },
        {
          "indexed": false,
          "internalType": "bool",
          "name": "success",
          "type": "bool"
        }
      ],
      "name": "BillingEnd",
      "type": "event"
    },
    {
      "anonymous": false,
      "inputs": [
        {
          "indexed": true,
          "internalType": "bytes32",
          "name": "requestId",
          "type": "bytes32"
        },
        {
          "components": [
            {
              "internalType": "uint64",
              "name": "subscriptionId",
              "type": "uint64"
            },
            {
              "internalType": "address",
              "name": "client",
              "type": "address"
            },
            {
              "internalType": "uint32",
              "name": "gasLimit",
              "type": "uint32"
            },
            {
              "internalType": "uint256",
              "name": "gasPrice",
              "type": "uint256"
            },
            {
              "internalType": "address",
              "name": "don",
              "type": "address"
            },
            {
              "internalType": "uint96",
              "name": "donFee",
              "type": "uint96"
            },
            {
              "internalType": "uint96",
              "name": "registryFee",
              "type": "uint96"
            },
            {
              "internalType": "uint96",
              "name": "estimatedCost",
              "type": "uint96"
            },
            {
              "internalType": "uint256",
              "name": "timestamp",
              "type": "uint256"
            }
          ],
          "indexed": false,
          "internalType": "struct FunctionsBillingRegistry.Commitment",
          "name": "commitment",
          "type": "tuple"
        }
      ],
      "name": "BillingStart",
      "type": "event"
    },
    {
      "anonymous": false,
      "inputs": [
        {
          "indexed": false,
          "internalType": "uint32",
          "name": "maxGasLimit",
          "type": "uint32"
        },
        {
          "indexed": false,
          "internalType": "uint32",
          "name": "stalenessSeconds",
          "type": "uint32"
        },
        {
          "indexed": false,
          "internalType": "uint256",
          "name": "gasAfterPaymentCalculation",
          "type": "uint256"
        },
        {
          "indexed": false,
          "internalType": "int256",
          "name": "fallbackWeiPerUnitLink",
          "type": "int256"
        },
        {
          "indexed": false,
          "internalType": "uint32",
          "name": "gasOverhead",
          "type": "uint32"
        }
      ],
      "name": "ConfigSet",
      "type": "event"
    },
    {
      "anonymous": false,
      "inputs": [
        {
          "indexed": false,
          "internalType": "address",
          "name": "to",
          "type": "address"
        },
        {
          "indexed": false,
          "internalType": "uint256",
          "name": "amount",
          "type": "uint256"
        }
      ],
      "name": "FundsRecovered",
      "type": "event"
    },
    {
      "anonymous": false,
      "inputs": [
        {
          "indexed": false,
          "internalType": "uint8",
          "name": "version",
          "type": "uint8"
        }
      ],
      "name": "Initialized",
      "type": "event"
    },
    {
      "anonymous": false,
      "inputs": [
        {
          "indexed": true,
          "internalType": "address",
          "name": "from",
          "type": "address"
        },
        {
          "indexed": true,
          "internalType": "address",
          "name": "to",
          "type": "address"
        }
      ],
      "name": "OwnershipTransferRequested",
      "type": "event"
    },
    {
      "anonymous": false,
      "inputs": [
        {
          "indexed": true,
          "internalType": "address",
          "name": "from",
          "type": "address"
        },
        {
          "indexed": true,
          "internalType": "address",
          "name": "to",
          "type": "address"
        }
      ],
      "name": "OwnershipTransferred",
      "type": "event"
    },
    {
      "anonymous": false,
      "inputs": [
        {
          "indexed": false,
          "internalType": "address",
          "name": "account",
          "type": "address"
        }
      ],
      "name": "Paused",
      "type": "event"
    },
    {
      "anonymous": false,
      "inputs": [
        {
          "indexed": true,
          "internalType": "bytes32",
          "name": "requestId",
          "type": "bytes32"
        }
      ],
      "name": "RequestTimedOut",
      "type": "event"
    },
    {
      "anonymous": false,
      "inputs": [
        {
          "indexed": true,
          "internalType": "uint64",
          "name": "subscriptionId",
          "type": "uint64"
        },
        {
          "indexed": false,
          "internalType": "address",
          "name": "to",
          "type": "address"
        },
        {
          "indexed": false,
          "internalType": "uint256",
          "name": "amount",
          "type": "uint256"
        }
      ],
      "name": "SubscriptionCanceled",
      "type": "event"
    },
    {
      "anonymous": false,
      "inputs": [
        {
          "indexed": true,
          "internalType": "uint64",
          "name": "subscriptionId",
          "type": "uint64"
        },
        {
          "indexed": false,
          "internalType": "address",
          "name": "consumer",
          "type": "address"
        }
      ],
      "name": "SubscriptionConsumerAdded",
      "type": "event"
    },
    {
      "anonymous": false,
      "inputs": [
        {
          "indexed": true,
          "internalType": "uint64",
          "name": "subscriptionId",
          "type": "uint64"
        },
        {
          "indexed": false,
          "internalType": "address",
          "name": "consumer",
          "type": "address"
        }
      ],
      "name": "SubscriptionConsumerRemoved",
      "type": "event"
    },
    {
      "anonymous": false,
      "inputs": [
        {
          "indexed": true,
          "internalType": "uint64",
          "name": "subscriptionId",
          "type": "uint64"
        },
        {
          "indexed": false,
          "internalType": "address",
          "name": "owner",
          "type": "address"
        }
      ],
      "name": "SubscriptionCreated",
      "type": "event"
    },
    {
      "anonymous": false,
      "inputs": [
        {
          "indexed": true,
          "internalType": "uint64",
          "name": "subscriptionId",
          "type": "uint64"
        },
        {
          "indexed": false,
          "internalType": "uint256",
          "name": "oldBalance",
          "type": "uint256"
        },
        {
          "indexed": false,
          "internalType": "uint256",
          "name": "newBalance",
          "type": "uint256"
        }
      ],
      "name": "SubscriptionFunded",
      "type": "event"
    },
    {
      "anonymous": false,
      "inputs": [
        {
          "indexed": true,
          "internalType": "uint64",
          "name": "subscriptionId",
          "type": "uint64"
        },
        {
          "indexed": false,
          "internalType": "address",
          "name": "from",
          "type": "address"
        },
        {
          "indexed": false,
          "internalType": "address",
          "name": "to",
          "type": "address"
        }
      ],
      "name": "SubscriptionOwnerTransferRequested",
      "type": "event"
    },
    {
      "anonymous": false,
      "inputs": [
        {
          "indexed": true,
          "internalType": "uint64",
          "name": "subscriptionId",
          "type": "uint64"
        },
        {
          "indexed": false,
          "internalType": "address",
          "name": "from",
          "type": "address"
        },
        {
          "indexed": false,
          "internalType": "address",
          "name": "to",
          "type": "address"
        }
      ],
      "name": "SubscriptionOwnerTransferred",
      "type": "event"
    },
    {
      "anonymous": false,
      "inputs": [
        {
          "indexed": false,
          "internalType": "address",
          "name": "account",
          "type": "address"
        }
      ],
      "name": "Unpaused",
      "type": "event"
    },
    {
      "inputs": [],
      "name": "MAX_CONSUMERS",
      "outputs": [
        {
          "internalType": "uint16",
          "name": "",
          "type": "uint16"
        }
      ],
      "stateMutability": "view",
      "type": "function"
    },
    {
      "inputs": [],
      "name": "acceptOwnership",
      "outputs": [],
      "stateMutability": "nonpayable",
      "type": "function"
    },
    {
      "inputs": [
        {
          "internalType": "uint64",
          "name": "subscriptionId",
          "type": "uint64"
        }
      ],
      "name": "acceptSubscriptionOwnerTransfer",
      "outputs": [],
      "stateMutability": "nonpayable",
      "type": "function"
    },
    {
      "inputs": [
        {
          "internalType": "uint64",
          "name": "subscriptionId",
          "type": "uint64"
        },
        {
          "internalType": "address",
          "name": "consumer",
          "type": "address"
        }
      ],
      "name": "addConsumer",
      "outputs": [],
      "stateMutability": "nonpayable",
      "type": "function"
    },
    {
      "inputs": [
        {
          "internalType": "uint64",
          "name": "subscriptionId",
          "type": "uint64"
        },
        {
          "internalType": "address",
          "name": "to",
          "type": "address"
        }
      ],
      "name": "cancelSubscription",
      "outputs": [],
      "stateMutability": "nonpayable",
      "type": "function"
    },
    {
      "inputs": [],
      "name": "createSubscription",
      "outputs": [
        {
          "internalType": "uint64",
          "name": "",
          "type": "uint64"
        }
      ],
      "stateMutability": "nonpayable",
      "type": "function"
    },
    {
      "inputs": [
        {
          "internalType": "uint32",
          "name": "gasLimit",
          "type": "uint32"
        },
        {
          "internalType": "uint256",
          "name": "gasPrice",
          "type": "uint256"
        },
        {
          "internalType": "uint96",
          "name": "donFee",
          "type": "uint96"
        },
        {
          "internalType": "uint96",
          "name": "registryFee",
          "type": "uint96"
        }
      ],
      "name": "estimateCost",
      "outputs": [
        {
          "internalType": "uint96",
          "name": "",
          "type": "uint96"
        }
      ],
      "stateMutability": "view",
      "type": "function"
    },
    {
      "inputs": [
        {
          "internalType": "bytes32",
          "name": "requestId",
          "type": "bytes32"
        },
        {
          "internalType": "bytes",
          "name": "response",
          "type": "bytes"
        },
        {
          "internalType": "bytes",
          "name": "err",
          "type": "bytes"
        },
        {
          "internalType": "address",
          "name": "transmitter",
          "type": "address"
        },
        {
          "internalType": "address[31]",
          "name": "signers",
          "type": "address[31]"
        },
        {
          "internalType": "uint8",
          "name": "signerCount",
          "type": "uint8"
        },
        {
          "internalType": "uint256",
          "name": "reportValidationGas",
          "type": "uint256"
        },
        {
          "internalType": "uint256",
          "name": "initialGas",
          "type": "uint256"
        }
      ],
      "name": "fulfillAndBill",
      "outputs": [
        {
          "internalType": "enum FunctionsBillingRegistryInterface.FulfillResult",
          "name": "",
          "type": "uint8"
        }
      ],
      "stateMutability": "nonpayable",
      "type": "function"
    },
    {
      "inputs": [],
      "name": "getAuthorizedSenders",
      "outputs": [
        {
          "internalType": "address[]",
          "name": "",
          "type": "address[]"
        }
      ],
      "stateMutability": "view",
      "type": "function"
    },
    {
      "inputs": [],
      "name": "getConfig",
      "outputs": [
        {
          "internalType": "uint32",
          "name": "maxGasLimit",
          "type": "uint32"
        },
        {
          "internalType": "uint32",
          "name": "stalenessSeconds",
          "type": "uint32"
        },
        {
          "internalType": "uint256",
          "name": "gasAfterPaymentCalculation",
          "type": "uint256"
        },
        {
          "internalType": "int256",
          "name": "fallbackWeiPerUnitLink",
          "type": "int256"
        },
        {
          "internalType": "uint32",
          "name": "gasOverhead",
          "type": "uint32"
        },
        {
          "internalType": "address",
          "name": "linkAddress",
          "type": "address"
        },
        {
          "internalType": "address",
          "name": "linkPriceFeed",
          "type": "address"
        }
      ],
      "stateMutability": "view",
      "type": "function"
    },
    {
      "inputs": [],
      "name": "getCurrentsubscriptionId",
      "outputs": [
        {
          "internalType": "uint64",
          "name": "",
          "type": "uint64"
        }
      ],
      "stateMutability": "view",
      "type": "function"
    },
    {
      "inputs": [],
      "name": "getRequestConfig",
      "outputs": [
        {
          "internalType": "uint32",
          "name": "",
          "type": "uint32"
        },
        {
          "internalType": "address[]",
          "name": "",
          "type": "address[]"
        }
      ],
      "stateMutability": "view",
      "type": "function"
    },
    {
      "inputs": [
        {
          "internalType": "bytes",
          "name": "",
          "type": "bytes"
        },
        {
          "components": [
            {
              "internalType": "uint64",
              "name": "subscriptionId",
              "type": "uint64"
            },
            {
              "internalType": "address",
              "name": "client",
              "type": "address"
            },
            {
              "internalType": "uint32",
              "name": "gasLimit",
              "type": "uint32"
            },
            {
              "internalType": "uint256",
              "name": "gasPrice",
              "type": "uint256"
            }
          ],
          "internalType": "struct FunctionsBillingRegistryInterface.RequestBilling",
          "name": "",
          "type": "tuple"
        }
      ],
      "name": "getRequiredFee",
      "outputs": [
        {
          "internalType": "uint96",
          "name": "",
          "type": "uint96"
        }
      ],
      "stateMutability": "pure",
      "type": "function"
    },
    {
      "inputs": [
        {
          "internalType": "uint64",
          "name": "subscriptionId",
          "type": "uint64"
        }
      ],
      "name": "getSubscription",
      "outputs": [
        {
          "internalType": "uint96",
          "name": "balance",
          "type": "uint96"
        },
        {
          "internalType": "address",
          "name": "owner",
          "type": "address"
        },
        {
          "internalType": "address[]",
          "name": "consumers",
          "type": "address[]"
        }
      ],
      "stateMutability": "view",
      "type": "function"
    },
    {
      "inputs": [
        {
          "internalType": "uint64",
          "name": "subscriptionId",
          "type": "uint64"
        }
      ],
      "name": "getSubscriptionOwner",
      "outputs": [
        {
          "internalType": "address",
          "name": "owner",
          "type": "address"
        }
      ],
      "stateMutability": "view",
      "type": "function"
    },
    {
      "inputs": [],
      "name": "getTotalBalance",
      "outputs": [
        {
          "internalType": "uint256",
          "name": "",
          "type": "uint256"
        }
      ],
      "stateMutability": "view",
      "type": "function"
    },
    {
      "inputs": [
        {
          "internalType": "address",
          "name": "link",
          "type": "address"
        },
        {
          "internalType": "address",
          "name": "linkEthFeed",
          "type": "address"
        },
        {
          "internalType": "address",
          "name": "oracle",
          "type": "address"
        }
      ],
      "name": "initialize",
      "outputs": [],
      "stateMutability": "nonpayable",
      "type": "function"
    },
    {
      "inputs": [
        {
          "internalType": "address",
          "name": "sender",
          "type": "address"
        }
      ],
      "name": "isAuthorizedSender",
      "outputs": [
        {
          "internalType": "bool",
          "name": "",
          "type": "bool"
        }
      ],
      "stateMutability": "view",
      "type": "function"
    },
    {
      "inputs": [
        {
          "internalType": "address",
          "name": "",
          "type": "address"
        },
        {
          "internalType": "uint256",
          "name": "amount",
          "type": "uint256"
        },
        {
          "internalType": "bytes",
          "name": "data",
          "type": "bytes"
        }
      ],
      "name": "onTokenTransfer",
      "outputs": [],
      "stateMutability": "nonpayable",
      "type": "function"
    },
    {
      "inputs": [
        {
          "internalType": "address",
          "name": "recipient",
          "type": "address"
        },
        {
          "internalType": "uint96",
          "name": "amount",
          "type": "uint96"
        }
      ],
      "name": "oracleWithdraw",
      "outputs": [],
      "stateMutability": "nonpayable",
      "type": "function"
    },
    {
      "inputs": [],
      "name": "owner",
      "outputs": [
        {
          "internalType": "address",
          "name": "",
          "type": "address"
        }
      ],
      "stateMutability": "view",
      "type": "function"
    },
    {
      "inputs": [
        {
          "internalType": "uint64",
          "name": "subscriptionId",
          "type": "uint64"
        }
      ],
      "name": "ownerCancelSubscription",
      "outputs": [],
      "stateMutability": "nonpayable",
      "type": "function"
    },
    {
      "inputs": [],
      "name": "pause",
      "outputs": [],
      "stateMutability": "nonpayable",
      "type": "function"
    },
    {
      "inputs": [],
      "name": "paused",
      "outputs": [
        {
          "internalType": "bool",
          "name": "",
          "type": "bool"
        }
      ],
      "stateMutability": "view",
      "type": "function"
    },
    {
      "inputs": [
        {
          "internalType": "uint64",
          "name": "subscriptionId",
          "type": "uint64"
        }
      ],
      "name": "pendingRequestExists",
      "outputs": [
        {
          "internalType": "bool",
          "name": "",
          "type": "bool"
        }
      ],
      "stateMutability": "view",
      "type": "function"
    },
    {
      "inputs": [
        {
          "internalType": "address",
          "name": "to",
          "type": "address"
        }
      ],
      "name": "recoverFunds",
      "outputs": [],
      "stateMutability": "nonpayable",
      "type": "function"
    },
    {
      "inputs": [
        {
          "internalType": "uint64",
          "name": "subscriptionId",
          "type": "uint64"
        },
        {
          "internalType": "address",
          "name": "consumer",
          "type": "address"
        }
      ],
      "name": "removeConsumer",
      "outputs": [],
      "stateMutability": "nonpayable",
      "type": "function"
    },
    {
      "inputs": [
        {
          "internalType": "uint64",
          "name": "subscriptionId",
          "type": "uint64"
        },
        {
          "internalType": "address",
          "name": "newOwner",
          "type": "address"
        }
      ],
      "name": "requestSubscriptionOwnerTransfer",
      "outputs": [],
      "stateMutability": "nonpayable",
      "type": "function"
    },
    {
      "inputs": [
        {
          "internalType": "address[]",
          "name": "senders",
          "type": "address[]"
        }
      ],
      "name": "setAuthorizedSenders",
      "outputs": [],
      "stateMutability": "nonpayable",
      "type": "function"
    },
    {
      "inputs": [
        {
          "internalType": "uint32",
          "name": "maxGasLimit",
          "type": "uint32"
        },
        {
          "internalType": "uint32",
          "name": "stalenessSeconds",
          "type": "uint32"
        },
        {
          "internalType": "uint256",
          "name": "gasAfterPaymentCalculation",
          "type": "uint256"
        },
        {
          "internalType": "int256",
          "name": "fallbackWeiPerUnitLink",
          "type": "int256"
        },
        {
          "internalType": "uint32",
          "name": "gasOverhead",
          "type": "uint32"
        },
        {
          "internalType": "uint32",
          "name": "requestTimeoutSeconds",
          "type": "uint32"
        }
      ],
      "name": "setConfig",
      "outputs": [],
      "stateMutability": "nonpayable",
      "type": "function"
    },
    {
      "inputs": [
        {
          "internalType": "bytes",
          "name": "data",
          "type": "bytes"
        },
        {
          "components": [
            {
              "internalType": "uint64",
              "name": "subscriptionId",
              "type": "uint64"
            },
            {
              "internalType": "address",
              "name": "client",
              "type": "address"
            },
            {
              "internalType": "uint32",
              "name": "gasLimit",
              "type": "uint32"
            },
            {
              "internalType": "uint256",
              "name": "gasPrice",
              "type": "uint256"
            }
          ],
          "internalType": "struct FunctionsBillingRegistryInterface.RequestBilling",
          "name": "billing",
          "type": "tuple"
        }
      ],
      "name": "startBilling",
      "outputs": [
        {
          "internalType": "bytes32",
          "name": "",
          "type": "bytes32"
        }
      ],
      "stateMutability": "nonpayable",
      "type": "function"
    },
    {
      "inputs": [
        {
          "internalType": "bytes32[]",
          "name": "requestIdsToTimeout",
          "type": "bytes32[]"
        }
      ],
      "name": "timeoutRequests",
      "outputs": [],
      "stateMutability": "nonpayable",
      "type": "function"
    },
    {
      "inputs": [
        {
          "internalType": "address",
          "name": "to",
          "type": "address"
        }
      ],
      "name": "transferOwnership",
      "outputs": [],
      "stateMutability": "nonpayable",
      "type": "function"
    },
    {
      "inputs": [],
      "name": "unpause",
      "outputs": [],
      "stateMutability": "nonpayable",
      "type": "function"
    }
  ],
  "bytecode": "0x608060405234801561001057600080fd5b506146f5806100206000396000f3fe608060405234801561001057600080fd5b50600436106102255760003560e01c80638da5cb5b1161012a578063c0c53b8b116100bd578063e82ad7d41161008c578063f1e14a2111610071578063f1e14a211461052e578063f2fde38b1461054c578063fa00763a1461055f57600080fd5b8063e82ad7d414610508578063ee56997b1461051b57600080fd5b8063c0c53b8b14610467578063c3f909d41461047a578063d7ae1d30146104e2578063e72f6e30146104f557600080fd5b8063a47c7696116100f9578063a47c76961461040c578063a4c0ed361461042e578063a9d03c0514610441578063b2a489ff1461045457600080fd5b80638da5cb5b1461039b5780639f87fad7146103c6578063a1a6d041146103d9578063a21a23e41461040457600080fd5b80633f4ba83a116101bd578063665871ec1161018c57806379ba50971161017157806379ba50971461037857806382359740146103805780638456cb591461039357600080fd5b8063665871ec146103525780637341c10c1461036557600080fd5b80633f4ba83a146103055780635c975abb1461030d57806364d51a2a1461032457806366316d8d1461033f57600080fd5b806312b58349116101f957806312b58349146102915780632408afaa146102b857806327923e41146102cd57806333652e3e146102e057600080fd5b80620122911461022a57806302bcc5b61461024957806304c357cb1461025e5780630739e4f114610271575b600080fd5b610232610572565b604051610240929190613c44565b60405180910390f35b61025c610257366004613c87565b610591565b005b61025c61026c366004613cb9565b6105e7565b61028461027f366004613d5b565b61073b565b6040516102409190613e79565b606f546801000000000000000090046001600160601b03165b604051908152602001610240565b6102c0610c8c565b6040516102409190613ea1565b61025c6102db366004613ec8565b610cee565b606f546001600160401b03165b6040516001600160401b039091168152602001610240565b61025c610dfb565b60345460ff165b6040519015158152602001610240565b61032c606481565b60405161ffff9091168152602001610240565b61025c61034d366004613f43565b610e0d565b61025c610360366004613fbe565b610fce565b61025c610373366004613cb9565b611201565b61025c6113d0565b61025c61038e366004613c87565b611488565b61025c611710565b6000546201000090046001600160a01b03165b6040516001600160a01b039091168152602001610240565b61025c6103d4366004613cb9565b611720565b6103ec6103e7366004613fff565b611a54565b6040516001600160601b039091168152602001610240565b6102ed611b41565b61041f61041a366004613c87565b611dfa565b60405161024093929190614050565b61025c61043c36600461408a565b611ee4565b6102aa61044f3660046140e3565b6120d0565b6103ae610462366004613c87565b61275c565b61025c610475366004614141565b6127c0565b607354607454607254607554606954606a546040805163ffffffff80891682526501000000000090980488166020820152908101959095526060850193909352931660808301526001600160a01b0392831660a08301529190911660c082015260e001610240565b61025c6104f0366004613cb9565b61292b565b61025c610503366004614184565b612a1f565b610314610516366004613c87565b612bd9565b61025c610529366004613fbe565b612dd2565b6103ec61053c366004614217565b6702c68af0bb1400009392505050565b61025c61055a366004614184565b612f3c565b61031461056d366004614184565b612f50565b60735460009060609063ffffffff16610589610c8c565b915091509091565b610599612f63565b6001600160401b0381166000908152606d60205260409020546001600160a01b0316806105d957604051630fb532db60e11b815260040160405180910390fd5b6105e38282612fad565b5050565b6001600160401b0382166000908152606d602052604090205482906001600160a01b03168061062957604051630fb532db60e11b815260040160405180910390fd5b336001600160a01b0382161461066257604051636c51fda960e11b81526001600160a01b03821660048201526024015b60405180910390fd5b607354640100000000900460ff161561068e5760405163769dd35360e11b815260040160405180910390fd5b6106966132b8565b6001600160401b0384166000908152606d60205260409020600101546001600160a01b03848116911614610735576001600160401b0384166000818152606d602090815260409182902060010180546001600160a01b0319166001600160a01b0388169081179091558251338152918201527f69436ea6df009049404f564eff6622cd00522b0bd6a89efd9e52a355c4a879be91015b60405180910390a25b50505050565b600061074561330b565b607354640100000000900460ff16156107715760405163769dd35360e11b815260040160405180910390fd5b6107796132b8565b60008b81526071602090815260409182902082516101208101845281546001600160401b03811682526801000000000000000081046001600160a01b0390811694830194909452600160e01b900463ffffffff169381019390935260018101546060840152600281015491821660808401819052600160a01b9092046001600160601b0390811660a0850152600382015480821660c0860152600160601b90041660e084015260040154610100830152610837576002915050610c7e565b60008c81526071602052604080822082815560018101839055600281018390556003810180546001600160c01b0319169055600401829055517f0ca7617500000000000000000000000000000000000000000000000000000000906108a8908f908f908f908f908f9060240161428b565b60408051601f19818403018152918152602080830180517bffffffffffffffffffffffffffffffffffffffffffffffffffffffff167fffffffff00000000000000000000000000000000000000000000000000000000909516949094179093526073805464ff0000000019166401000000001790558401519184015190925060009161093d9163ffffffff9091169084613331565b6073805464ff000000001916905560745460a085015160c086015192935060009261096f92899290918c908c3a61337d565b60408082015186516001600160401b03166000908152606e60205291909120549192506001600160601b03908116911610156109be57604051631e9acf1760e31b815260040160405180910390fd5b60408082015185516001600160401b03166000908152606e6020529182208054919290916109f69084906001600160601b03166142da565b92506101000a8154816001600160601b0302191690836001600160601b0316021790555060005b8860ff16811015610abd578151607060008c84601f8110610a4057610a406142fa565b60200201516001600160a01b03166001600160a01b0316815260200190815260200160002060008282829054906101000a90046001600160601b0316610a869190614310565b92506101000a8154816001600160601b0302191690836001600160601b031602179055508080610ab590614330565b915050610a1d565b508360c0015160706000610ae06000546001600160a01b03620100009091041690565b6001600160a01b03168152602081019190915260400160009081208054909190610b149084906001600160601b0316614310565b82546101009290920a6001600160601b038181021990931691831602179091556020838101516001600160a01b038e166000908152607090925260408220805491945092610b6491859116614310565b82546101009290920a6001600160601b0381810219909316918316021790915560e086015186516001600160401b03166000908152606e60205260409020805491935091600c91610bbe918591600160601b9004166142da565b92506101000a8154816001600160601b0302191690836001600160601b031602179055508e7fc8dc973332de19a5f71b6026983110e9c2e04b0c98b87eb771ccb78607fd114f856000015183600001518460200151856040015187604051610c609594939291906001600160401b039590951685526001600160601b039384166020860152918316604085015290911660608301521515608082015260a00190565b60405180910390a281610c74576001610c77565b60005b9450505050505b9a9950505050505050505050565b60606068805480602002602001604051908101604052809291908181526020018280548015610ce457602002820191906000526020600020905b81546001600160a01b03168152600190910190602001808311610cc6575b5050505050905090565b610cf6612f63565b60008313610d1a576040516321ea67b360e11b815260048101849052602401610659565b6040805160c08101825263ffffffff888116808352600060208085019190915289831684860181905260608086018b9052888516608080880182905295891660a09788018190526073805468ffffffffffffffffff1916871765010000000000860217905560748d90556075805467ffffffffffffffff1916831764010000000090920291909117905560728b9055875194855292840191909152948201899052938101879052908101929092527f24d3d934adfef9b9029d6ffa463c07d0139ed47d26ee23506f85ece2879d2bd4910160405180910390a1505050505050565b610e03612f63565b610e0b6134c1565b565b607354640100000000900460ff1615610e395760405163769dd35360e11b815260040160405180910390fd5b610e416132b8565b806001600160601b0316600003610e6d5750336000908152607060205260409020546001600160601b03165b336000908152607060205260409020546001600160601b0380831691161015610ea957604051631e9acf1760e31b815260040160405180910390fd5b3360009081526070602052604081208054839290610ed19084906001600160601b03166142da565b92506101000a8154816001600160601b0302191690836001600160601b0316021790555080606f60088282829054906101000a90046001600160601b0316610f1991906142da565b82546101009290920a6001600160601b0381810219909316918316021790915560695460405163a9059cbb60e01b81526001600160a01b03868116600483015292851660248201529116915063a9059cbb906044016020604051808303816000875af1158015610f8d573d6000803e3d6000fd5b505050506040513d601f19601f82011682018060405250810190610fb19190614349565b6105e357604051631e9acf1760e31b815260040160405180910390fd5b610fd66132b8565b60005b818110156111fc576000838383818110610ff557610ff56142fa565b60209081029290920135600081815260718452604080822081516101208101835281546001600160401b0381168083526801000000000000000082046001600160a01b03908116848b0152600160e01b90920463ffffffff16838601526001840154606084015260028401548083166080850152600160a01b90046001600160601b0390811660a0850152600385015480821660c0860152600160601b90041660e0840152600490930154610100830152918452606d90965291205491945016331490506110fd5780516001600160401b03166000908152606d602052604090819020549051636c51fda960e11b81526001600160a01b039091166004820152602401610659565b60755461010082015142916111219164010000000090910463ffffffff169061436b565b11156111e75760e081015181516001600160401b03166000908152606e602052604090208054600c90611165908490600160601b90046001600160601b03166142da565b82546001600160601b039182166101009390930a92830291909202199091161790555060008281526071602052604080822082815560018101839055600281018390556003810180546001600160c01b03191690556004018290555183917ff1ca1e9147be737b04a2b018a79405f687a97de8dd8a2559bbe62357343af41491a25b505080806111f490614330565b915050610fd9565b505050565b6001600160401b0382166000908152606d602052604090205482906001600160a01b03168061124357604051630fb532db60e11b815260040160405180910390fd5b336001600160a01b0382161461127757604051636c51fda960e11b81526001600160a01b0382166004820152602401610659565b607354640100000000900460ff16156112a35760405163769dd35360e11b815260040160405180910390fd5b6112ab6132b8565b6001600160401b0384166000908152606d602052604090206002015460631901611301576040517f05a48e0f00000000000000000000000000000000000000000000000000000000815260040160405180910390fd5b6001600160a01b0383166000908152606c602090815260408083206001600160401b0380891685529252822054169003610735576001600160a01b0383166000818152606c602090815260408083206001600160401b038916808552908352818420805467ffffffffffffffff19166001908117909155606d84528285206002018054918201815585529383902090930180546001600160a01b031916851790555192835290917f43dc749a04ac8fb825cbd514f7c0e13f13bc6f2ee66043b76629d51776cff8e0910161072c565b6001546001600160a01b03163314611414576040517f0f22ca5f00000000000000000000000000000000000000000000000000000000815260040160405180910390fd5b60008054336201000081810275ffffffffffffffffffffffffffffffffffffffff0000198416178455600180546001600160a01b03191690556040516001600160a01b03919093041692909183917f8be0079c531659141344cd1fd0a4f28419497f9722a3daafe3b4186f6b6457e091a350565b607354640100000000900460ff16156114b45760405163769dd35360e11b815260040160405180910390fd5b6114bc6132b8565b606b60009054906101000a90046001600160a01b03166001600160a01b0316634b4fa0c16040518163ffffffff1660e01b8152600401602060405180830381865afa15801561150f573d6000803e3d6000fd5b505050506040513d601f19601f820116820180604052508101906115339190614349565b80156115a85750606b54604051637d003b1d60e11b81523360048201526001600160a01b039091169063fa00763a90602401602060405180830381865afa158015611582573d6000803e3d6000fd5b505050506040513d601f19601f820116820180604052508101906115a69190614349565b155b156115c657604051630101292160e31b815260040160405180910390fd5b6001600160401b0381166000908152606d60205260409020546001600160a01b031661160557604051630fb532db60e11b815260040160405180910390fd5b6001600160401b0381166000908152606d60205260409020600101546001600160a01b0316331461168b576001600160401b0381166000908152606d6020526040908190206001015490517fd084e9750000000000000000000000000000000000000000000000000000000081526001600160a01b039091166004820152602401610659565b6001600160401b0381166000818152606d60209081526040918290208054336001600160a01b0319808316821784556001909301805490931690925583516001600160a01b03909116808252928101919091529092917f6f1dc65165ffffedfd8e507b4a0f1fcfdada045ed11f6c26ba27cedfe87802f0910160405180910390a25050565b611718612f63565b610e0b613513565b6001600160401b0382166000908152606d602052604090205482906001600160a01b03168061176257604051630fb532db60e11b815260040160405180910390fd5b336001600160a01b0382161461179657604051636c51fda960e11b81526001600160a01b0382166004820152602401610659565b607354640100000000900460ff16156117c25760405163769dd35360e11b815260040160405180910390fd5b6117ca6132b8565b6001600160a01b0383166000908152606c602090815260408083206001600160401b038089168552925282205416900361183157604051637800cff360e11b81526001600160401b03851660048201526001600160a01b0384166024820152604401610659565b6001600160401b0384166000908152606d602090815260408083206002018054825181850281018501909352808352919290919083018282801561189e57602002820191906000526020600020905b81546001600160a01b03168152600190910190602001808311611880575b505050505090506000600182516118b5919061437e565b905060005b82518110156119db57856001600160a01b03168382815181106118df576118df6142fa565b60200260200101516001600160a01b0316036119c9576000838381518110611909576119096142fa565b6020026020010151905080606d60008a6001600160401b03166001600160401b03168152602001908152602001600020600201838154811061194d5761194d6142fa565b600091825260208083209190910180546001600160a01b0319166001600160a01b0394909416939093179092556001600160401b038a168152606d909152604090206002018054806119a1576119a1614391565b600082815260209020810160001990810180546001600160a01b0319169055019055506119db565b806119d381614330565b9150506118ba565b506001600160a01b0385166000818152606c602090815260408083206001600160401b038b1680855290835292819020805467ffffffffffffffff191690555192835290917f182bff9831466789164ca77075fffd84916d35a8180ba73c27e45634549b445b91015b60405180910390a2505050505050565b600080611a5f613550565b905060008113611a85576040516321ea67b360e11b815260048101829052602401610659565b60745460755460009163ffffffff808a1692611aa292911661436b565b611aac919061436b565b905060008282611ac489670de0b6b3a76400006143a7565b611ace91906143a7565b611ad891906143d4565b90506000611af26001600160601b0380881690891661436b565b9050611b0a816b033b2e3c9fd0803ce800000061437e565b821115611b2a5760405163e80fa38160e01b815260040160405180910390fd5b611b34818361436b565b9998505050505050505050565b607354600090640100000000900460ff1615611b705760405163769dd35360e11b815260040160405180910390fd5b611b786132b8565b606b60009054906101000a90046001600160a01b03166001600160a01b0316634b4fa0c16040518163ffffffff1660e01b8152600401602060405180830381865afa158015611bcb573d6000803e3d6000fd5b505050506040513d601f19601f82011682018060405250810190611bef9190614349565b8015611c645750606b54604051637d003b1d60e11b81523360048201526001600160a01b039091169063fa00763a90602401602060405180830381865afa158015611c3e573d6000803e3d6000fd5b505050506040513d601f19601f82011682018060405250810190611c629190614349565b155b15611c8257604051630101292160e31b815260040160405180910390fd5b606f80546001600160401b0316906000611c9b836143e8565b82546101009290920a6001600160401b03818102199093169183160217909155606f54169050600080604051908082528060200260200182016040528015611ced578160200160208202803683370190505b50604080518082018252600080825260208083018281526001600160401b038816808452606e83528584209451855492516001600160601b03908116600160601b026001600160c01b0319909416911617919091179093558351606081018552338152808201838152818601878152948452606d835294909220825181546001600160a01b039182166001600160a01b0319918216178355955160018301805491909216961695909517909455915180519495509093611db39260028501920190613b1d565b50506040513381526001600160401b03841691507f464722b4166576d3dcbba877b999bc35cf911f4eaf434b7eba68fa113951d0bf9060200160405180910390a250905090565b6001600160401b0381166000908152606d602052604081205481906060906001600160a01b0316611e3e57604051630fb532db60e11b815260040160405180910390fd5b6001600160401b0384166000908152606e6020908152604080832054606d8352928190208054600290910180548351818602810186019094528084526001600160601b03909516946001600160a01b03909216939092918391830182828015611ed057602002820191906000526020600020905b81546001600160a01b03168152600190910190602001808311611eb2575b505050505090509250925092509193909250565b607354640100000000900460ff1615611f105760405163769dd35360e11b815260040160405180910390fd5b611f186132b8565b6069546001600160a01b03163314611f5c576040517f44b0e3c300000000000000000000000000000000000000000000000000000000815260040160405180910390fd5b60208114611f96576040517f8129bbcd00000000000000000000000000000000000000000000000000000000815260040160405180910390fd5b6000611fa482840184613c87565b6001600160401b0381166000908152606d60205260409020549091506001600160a01b0316611fe657604051630fb532db60e11b815260040160405180910390fd5b6001600160401b0381166000908152606e6020526040812080546001600160601b0316918691906120178385614310565b92506101000a8154816001600160601b0302191690836001600160601b0316021790555084606f60088282829054906101000a90046001600160601b031661205f9190614310565b92506101000a8154816001600160601b0302191690836001600160601b03160217905550816001600160401b03167fd39ec07f4e209f627a4c427971473820dc129761ba28de8906bd56f57101d4f88287846120bb919061436b565b60408051928352602083019190915201611a44565b60006120da61330b565b607354640100000000900460ff16156121065760405163769dd35360e11b815260040160405180910390fd5b61210e6132b8565b6000606d816121206020860186613c87565b6001600160401b031681526020810191909152604001600020546001600160a01b03160361216157604051630fb532db60e11b815260040160405180910390fd5b6000606c816121766040860160208701614184565b6001600160a01b0316815260208082019290925260400160009081209161219f90860186613c87565b6001600160401b03908116825260208201929092526040016000908120549091169150819003612219576121d66020840184613c87565b6121e66040850160208601614184565b604051637800cff360e11b81526001600160401b0390921660048301526001600160a01b03166024820152604401610659565b60735463ffffffff16612232606085016040860161440e565b63ffffffff1611156122935761224e606084016040850161440e565b6073546040517ff5d7e01e00000000000000000000000000000000000000000000000000000000815263ffffffff928316600482015291166024820152604401610659565b6040517ff1e14a21000000000000000000000000000000000000000000000000000000008152600090339063f1e14a21906122d690899089908990600401614429565b602060405180830381865afa1580156122f3573d6000803e3d6000fd5b505050506040513d601f19601f820116820180604052508101906123179190614499565b9050600061232f878761053c368990038901896144b6565b90506000612352612346606088016040890161440e565b87606001358585611a54565b90506000606e8161236660208a018a613c87565b6001600160401b03168152602080820192909252604001600090812054600160601b90046001600160601b031691606e91906123a4908b018b613c87565b6001600160401b031681526020810191909152604001600020546123d191906001600160601b03166142da565b9050816001600160601b0316816001600160601b0316101561240657604051631e9acf1760e31b815260040160405180910390fd5b60006124138660016144d2565b9050600061248d3361242b60408c0160208d01614184565b61243860208d018d613c87565b85604080516001600160a01b0395861660208083019190915294909516858201526001600160401b03928316606086015291166080808501919091528151808503909101815260a09093019052815191012090565b604080516101208101909152909150600090806124ad60208d018d613c87565b6001600160401b031681526020018b60200160208101906124ce9190614184565b6001600160a01b031681526020016124ec60608d0160408e0161440e565b63ffffffff90811682526060808e0135602080850191909152336040808601919091526001600160601b03808e16848701528c81166080808801919091528c821660a0808901919091524260c09889015260008b8152607186528481208a5181548c890151978d0151909a16600160e01b027bffffffffffffffffffffffffffffffffffffffffffffffffffffffff6001600160a01b0398891668010000000000000000027fffffffff00000000000000000000000000000000000000000000000000000000909c166001600160401b03909316929092179a909a171698909817885595890151600188015590880151908801518216600160a01b0292169190911760028501559385015160038401805460e08801518716600160601b026001600160c01b03199091169290961691909117949094179093556101008401516004909201919091559192508691606e91612648908e018e613c87565b6001600160401b0316815260208101919091526040016000208054600c90612681908490600160601b90046001600160601b0316614310565b92506101000a8154816001600160601b0302191690836001600160601b03160217905550817f99f7f4e65b4b9fbabd4e357c47ed3099b36e57ecd3a43e84662f34c207d0ebe4826040516126d591906144f2565b60405180910390a282606c60006126f260408e0160208f01614184565b6001600160a01b0316815260208082019290925260400160009081209161271b908e018e613c87565b6001600160401b0390811682526020820192909252604001600020805467ffffffffffffffff191692909116919091179055509a9950505050505050505050565b6001600160401b0381166000908152606d60205260408120546001600160a01b031661279b57604051630fb532db60e11b815260040160405180910390fd5b506001600160401b03166000908152606d60205260409020546001600160a01b031690565b600054610100900460ff16158080156127e05750600054600160ff909116105b806127fa5750303b1580156127fa575060005460ff166001145b61286c5760405162461bcd60e51b815260206004820152602e60248201527f496e697469616c697a61626c653a20636f6e747261637420697320616c72656160448201527f647920696e697469616c697a65640000000000000000000000000000000000006064820152608401610659565b6000805460ff19166001179055801561288f576000805461ff0019166101001790555b612897613627565b6128a233600061369a565b606980546001600160a01b038087166001600160a01b031992831617909255606a8054868416908316179055606b8054928516929091169190911790558015610735576000805461ff0019169055604051600181527f7f26b83ff96e1f2b6a682f133852f6798a09c465da95921460cefb3847402498906020015b60405180910390a150505050565b6001600160401b0382166000908152606d602052604090205482906001600160a01b03168061296d57604051630fb532db60e11b815260040160405180910390fd5b336001600160a01b038216146129a157604051636c51fda960e11b81526001600160a01b0382166004820152602401610659565b607354640100000000900460ff16156129cd5760405163769dd35360e11b815260040160405180910390fd5b6129d56132b8565b6129de84612bd9565b15612a15576040517fb42f66e800000000000000000000000000000000000000000000000000000000815260040160405180910390fd5b6107358484612fad565b612a27612f63565b6069546040517f70a082310000000000000000000000000000000000000000000000000000000081523060048201526000916001600160a01b0316906370a0823190602401602060405180830381865afa158015612a89573d6000803e3d6000fd5b505050506040513d601f19601f82011682018060405250810190612aad91906145b8565b606f549091506801000000000000000090046001600160601b031681811115612b0c576040517fa99da3020000000000000000000000000000000000000000000000000000000081526004810182905260248101839052604401610659565b818110156111fc576000612b20828461437e565b60695460405163a9059cbb60e01b81526001600160a01b0387811660048301526024820184905292935091169063a9059cbb906044016020604051808303816000875af1158015612b75573d6000803e3d6000fd5b505050506040513d601f19601f82011682018060405250810190612b999190614349565b50604080516001600160a01b0386168152602081018390527f59bfc682b673f8cbf945f1e454df9334834abf7dfe7f92237ca29ecb9b436600910161291d565b6001600160401b0381166000908152606d6020908152604080832060020180548251818502810185019093528083528493830182828015612c4357602002820191906000526020600020905b81546001600160a01b03168152600190910190602001808311612c25575b505050505090506000612c54610c8c565b905060005b8251811015612dc75760005b8251811015612db4576000612d71848381518110612c8557612c856142fa565b6020026020010151868581518110612c9f57612c9f6142fa565b602002602001015189606c60008a8981518110612cbe57612cbe6142fa565b60200260200101516001600160a01b03166001600160a01b0316815260200190815260200160002060008c6001600160401b03166001600160401b0316815260200190815260200160002060009054906101000a90046001600160401b0316604080516001600160a01b0395861660208083019190915294909516858201526001600160401b03928316606086015291166080808501919091528151808503909101815260a09093019052815191012090565b6000818152607160205260409020600201549091506001600160a01b031615612da1575060019695505050505050565b5080612dac81614330565b915050612c65565b5080612dbf81614330565b915050612c59565b506000949350505050565b612dda61378b565b612e10576040517fad77f06100000000000000000000000000000000000000000000000000000000815260040160405180910390fd5b6000819003612e4b576040517f75158c3b00000000000000000000000000000000000000000000000000000000815260040160405180910390fd5b60005b606854811015612e9e57612e8b60688281548110612e6e57612e6e6142fa565b6000918252602090912001546066906001600160a01b031661379b565b5080612e9681614330565b915050612e4e565b5060005b81811015612eef57612edc838383818110612ebf57612ebf6142fa565b9050602002016020810190612ed49190614184565b6066906137b7565b5080612ee781614330565b915050612ea2565b50612efc60688383613b7e565b507ff263cfb3e4298332e776194610cf9fdc09ccb3ada8b9aa39764d882e11fbf0a0828233604051612f30939291906145d1565b60405180910390a15050565b612f44612f63565b612f4d816137cc565b50565b6000612f5d606683613866565b92915050565b6000546201000090046001600160a01b03163314610e0b576040517f2b5c74de00000000000000000000000000000000000000000000000000000000815260040160405180910390fd5b607354640100000000900460ff1615612fd95760405163769dd35360e11b815260040160405180910390fd5b6001600160401b0382166000908152606d60209081526040808320815160608101835281546001600160a01b0390811682526001830154168185015260028201805484518187028101870186528181529295939486019383018282801561306957602002820191906000526020600020905b81546001600160a01b0316815260019091019060200180831161304b575b505050919092525050506001600160401b0384166000908152606e60205260408120549192506001600160601b03909116905b82604001515181101561311d57606c6000846040015183815181106130c3576130c36142fa565b6020908102919091018101516001600160a01b0316825281810192909252604090810160009081206001600160401b03891682529092529020805467ffffffffffffffff191690558061311581614330565b91505061309c565b506001600160401b0384166000908152606d6020526040812080546001600160a01b0319908116825560018201805490911690559061315f6002830182613bd1565b50506001600160401b0384166000908152606e6020526040902080546001600160c01b0319169055606f80548291906008906131b19084906801000000000000000090046001600160601b03166142da565b82546101009290920a6001600160601b0381810219909316918316021790915560695460405163a9059cbb60e01b81526001600160a01b03878116600483015292851660248201529116915063a9059cbb906044016020604051808303816000875af1158015613225573d6000803e3d6000fd5b505050506040513d601f19601f820116820180604052508101906132499190614349565b61326657604051631e9acf1760e31b815260040160405180910390fd5b604080516001600160a01b03851681526001600160601b03831660208201526001600160401b038616917fe8ed5b475a5b5987aa9165e8731bb78043f39eee32ec5a1169a89e27fcd49815910161072c565b60345460ff1615610e0b5760405162461bcd60e51b815260206004820152601060248201527f5061757361626c653a20706175736564000000000000000000000000000000006044820152606401610659565b61331433612f50565b610e0b57604051630101292160e31b815260040160405180910390fd5b60005a61138881101561334357600080fd5b61138881039050846040820482031161335b57600080fd5b50823b61336757600080fd5b60008083516020850160008789f1949350505050565b60408051606081018252600080825260208201819052918101829052906133a2613550565b9050600081136133c8576040516321ea67b360e11b815260048101829052602401610659565b6000815a8b6133d78c8961436b565b6133e1919061436b565b6133eb919061437e565b6133fd86670de0b6b3a76400006143a7565b61340791906143a7565b61341191906143d4565b9050600061342b6001600160601b03808916908b1661436b565b9050613443816b033b2e3c9fd0803ce800000061437e565b8211156134635760405163e80fa38160e01b815260040160405180910390fd5b600061347260ff8a168b61462f565b9050826000613489613484858461436b565b613888565b604080516060810182526001600160601b03958616815293851660208501529316928201929092529c9b505050505050505050505050565b6134c961390b565b6034805460ff191690557f5db9ee0a495bf2e6ff9c91a7834c1ba4fdd244a5e8aa4e537bd38aeae4b073aa335b6040516001600160a01b03909116815260200160405180910390a1565b61351b6132b8565b6034805460ff191660011790557f62e78cea01bee320cd4e420270b5ea74000d11b0c9f74754ebdbfc544b05a2586134f63390565b607354606a54604080517ffeaf968c000000000000000000000000000000000000000000000000000000008152905160009365010000000000900463ffffffff169283151592859283926001600160a01b03169163feaf968c9160048083019260a09291908290030181865afa1580156135ce573d6000803e3d6000fd5b505050506040513d601f19601f820116820180604052508101906135f2919061466f565b50935050925050828015613614575061360b814261437e565b8463ffffffff16105b1561361f5760725491505b509392505050565b600054610100900460ff166136925760405162461bcd60e51b815260206004820152602b60248201527f496e697469616c697a61626c653a20636f6e7472616374206973206e6f74206960448201526a6e697469616c697a696e6760a81b6064820152608401610659565b610e0b61395d565b600054610100900460ff166137055760405162461bcd60e51b815260206004820152602b60248201527f496e697469616c697a61626c653a20636f6e7472616374206973206e6f74206960448201526a6e697469616c697a696e6760a81b6064820152608401610659565b6001600160a01b038216613745576040517fb6b515fa00000000000000000000000000000000000000000000000000000000815260040160405180910390fd5b600080546001600160a01b03808516620100000275ffffffffffffffffffffffffffffffffffffffff000019909216919091179091558116156105e3576105e3816137cc565b6000613795612f63565b50600190565b60006137b0836001600160a01b0384166139d4565b9392505050565b60006137b0836001600160a01b038416613ace565b336001600160a01b0382160361380e576040517f282010c300000000000000000000000000000000000000000000000000000000815260040160405180910390fd5b600180546001600160a01b0319166001600160a01b038381169182179092556000805460405192936201000090910416917fed8889f560326eb138920d842192f0eb3dd22b4f139c87a2c57538e05bae12789190a350565b6001600160a01b038116600090815260018301602052604081205415156137b0565b60006001600160601b038211156139075760405162461bcd60e51b815260206004820152602660248201527f53616665436173743a2076616c756520646f65736e27742066697420696e203960448201527f36206269747300000000000000000000000000000000000000000000000000006064820152608401610659565b5090565b60345460ff16610e0b5760405162461bcd60e51b815260206004820152601460248201527f5061757361626c653a206e6f74207061757365640000000000000000000000006044820152606401610659565b600054610100900460ff166139c85760405162461bcd60e51b815260206004820152602b60248201527f496e697469616c697a61626c653a20636f6e7472616374206973206e6f74206960448201526a6e697469616c697a696e6760a81b6064820152608401610659565b6034805460ff19169055565b60008181526001830160205260408120548015613abd5760006139f860018361437e565b8554909150600090613a0c9060019061437e565b9050818114613a71576000866000018281548110613a2c57613a2c6142fa565b9060005260206000200154905080876000018481548110613a4f57613a4f6142fa565b6000918252602080832090910192909255918252600188019052604090208390555b8554869080613a8257613a82614391565b600190038181906000526020600020016000905590558560010160008681526020019081526020016000206000905560019350505050612f5d565b6000915050612f5d565b5092915050565b6000818152600183016020526040812054613b1557508154600181810184556000848152602080822090930184905584548482528286019093526040902091909155612f5d565b506000612f5d565b828054828255906000526020600020908101928215613b72579160200282015b82811115613b7257825182546001600160a01b0319166001600160a01b03909116178255602090920191600190910190613b3d565b50613907929150613beb565b828054828255906000526020600020908101928215613b72579160200282015b82811115613b725781546001600160a01b0319166001600160a01b03843516178255602090920191600190910190613b9e565b5080546000825590600052602060002090810190612f4d91905b5b808211156139075760008155600101613bec565b600081518084526020808501945080840160005b83811015613c395781516001600160a01b031687529582019590820190600101613c14565b509495945050505050565b63ffffffff83168152604060208201526000613c636040830184613c00565b949350505050565b80356001600160401b0381168114613c8257600080fd5b919050565b600060208284031215613c9957600080fd5b6137b082613c6b565b80356001600160a01b0381168114613c8257600080fd5b60008060408385031215613ccc57600080fd5b613cd583613c6b565b9150613ce360208401613ca2565b90509250929050565b60008083601f840112613cfe57600080fd5b5081356001600160401b03811115613d1557600080fd5b602083019150836020828501011115613d2d57600080fd5b9250929050565b634e487b7160e01b600052604160045260246000fd5b803560ff81168114613c8257600080fd5b6000806000806000806000806000806104c08b8d031215613d7b57600080fd5b8a35995060208b01356001600160401b0380821115613d9957600080fd5b613da58e838f01613cec565b909b50995060408d0135915080821115613dbe57600080fd5b613dca8e838f01613cec565b9099509750879150613dde60608e01613ca2565b96508d609f8e0112613def57600080fd5b60405191506103e082018281108282111715613e0d57613e0d613d34565b60405250806104608d018e811115613e2457600080fd5b60808e015b81811015613e4857613e3a81613ca2565b835260209283019201613e29565b50829650613e5581613d4a565b95505050506104808b013591506104a08b013590509295989b9194979a5092959850565b6020810160038310613e9b57634e487b7160e01b600052602160045260246000fd5b91905290565b6020815260006137b06020830184613c00565b803563ffffffff81168114613c8257600080fd5b60008060008060008060c08789031215613ee157600080fd5b613eea87613eb4565b9550613ef860208801613eb4565b94506040870135935060608701359250613f1460808801613eb4565b9150613f2260a08801613eb4565b90509295509295509295565b6001600160601b0381168114612f4d57600080fd5b60008060408385031215613f5657600080fd5b613f5f83613ca2565b91506020830135613f6f81613f2e565b809150509250929050565b60008083601f840112613f8c57600080fd5b5081356001600160401b03811115613fa357600080fd5b6020830191508360208260051b8501011115613d2d57600080fd5b60008060208385031215613fd157600080fd5b82356001600160401b03811115613fe757600080fd5b613ff385828601613f7a565b90969095509350505050565b6000806000806080858703121561401557600080fd5b61401e85613eb4565b935060208501359250604085013561403581613f2e565b9150606085013561404581613f2e565b939692955090935050565b6001600160601b03841681526001600160a01b03831660208201526060604082015260006140816060830184613c00565b95945050505050565b600080600080606085870312156140a057600080fd5b6140a985613ca2565b93506020850135925060408501356001600160401b038111156140cb57600080fd5b6140d787828801613cec565b95989497509550505050565b600080600083850360a08112156140f957600080fd5b84356001600160401b0381111561410f57600080fd5b61411b87828801613cec565b9095509350506080601f198201121561413357600080fd5b506020840190509250925092565b60008060006060848603121561415657600080fd5b61415f84613ca2565b925061416d60208501613ca2565b915061417b60408501613ca2565b90509250925092565b60006020828403121561419657600080fd5b6137b082613ca2565b6000608082840312156141b157600080fd5b604051608081018181106001600160401b03821117156141d3576141d3613d34565b6040529050806141e283613c6b565b81526141f060208401613ca2565b602082015261420160408401613eb4565b6040820152606083013560608201525092915050565b600080600060a0848603121561422c57600080fd5b83356001600160401b0381111561424257600080fd5b61424e86828701613cec565b909450925061417b9050856020860161419f565b81835281816020850137506000828201602090810191909152601f909101601f19169091010190565b8581526060602082015260006142a5606083018688614262565b82810360408401526142b8818587614262565b98975050505050505050565b634e487b7160e01b600052601160045260246000fd5b6001600160601b03828116828216039080821115613ac757613ac76142c4565b634e487b7160e01b600052603260045260246000fd5b6001600160601b03818116838216019080821115613ac757613ac76142c4565b600060018201614342576143426142c4565b5060010190565b60006020828403121561435b57600080fd5b815180151581146137b057600080fd5b80820180821115612f5d57612f5d6142c4565b81810381811115612f5d57612f5d6142c4565b634e487b7160e01b600052603160045260246000fd5b8082028115828204841417612f5d57612f5d6142c4565b634e487b7160e01b600052601260045260246000fd5b6000826143e3576143e36143be565b500490565b60006001600160401b03808316818103614404576144046142c4565b6001019392505050565b60006020828403121561442057600080fd5b6137b082613eb4565b60a08152600061443d60a083018587614262565b90506001600160401b0361445084613c6b565b1660208301526001600160a01b0361446a60208501613ca2565b16604083015263ffffffff61448160408501613eb4565b16606083015260608301356080830152949350505050565b6000602082840312156144ab57600080fd5b81516137b081613f2e565b6000608082840312156144c857600080fd5b6137b0838361419f565b6001600160401b03818116838216019080821115613ac757613ac76142c4565b6000610120820190506001600160401b0383511682526001600160a01b0360208401511660208301526040830151614532604084018263ffffffff169052565b5060608301516060830152608083015161455760808401826001600160a01b03169052565b5060a083015161457260a08401826001600160601b03169052565b5060c083015161458d60c08401826001600160601b03169052565b5060e08301516145a860e08401826001600160601b03169052565b5061010092830151919092015290565b6000602082840312156145ca57600080fd5b5051919050565b6040808252810183905260008460608301825b86811015614612576001600160a01b036145fd84613ca2565b168252602092830192909101906001016145e4565b5080925050506001600160a01b0383166020830152949350505050565b60006001600160601b0380841680614649576146496143be565b92169190910492915050565b805169ffffffffffffffffffff81168114613c8257600080fd5b600080600080600060a0868803121561468757600080fd5b61469086614655565b94506020860151935060408601519250606086015191506146b360808701614655565b9050929550929590935056fea264697066735822122017b4b38a164dd8540f90920349b50115a2c82e006e5cc7e1e25b5f678abd7a6864736f6c63430008120033",
  "linkReferences": {},
  "deployedLinkReferences": {}
}