{
  "_format": "hh-sol-artifact-1",
  "contractName": "DAOToken",
  "sourceName": "contracts/DAOToken.sol",
  "abi": [
    {
      "inputs": [
        {
          "internalType": "address",
          "name": "defaultAdmin",
          "type": "address"
        },
        {
          "internalType": "address",
          "name": "minter",
          "type": "address"
        }
      ],
      "stateMutability": "nonpayable",
      "type": "constructor"
    },
    {
      "inputs": [],
      "name": "InvalidShortString",
      "type": "error"
    },
    {
      "inputs": [
        {
          "internalType": "string",
          "name": "str",
          "type": "string"
        }
      ],
      "name": "StringTooLong",
      "type": "error"
    },
    {
      "anonymous": false,
      "inputs": [
        {
          "indexed": true,
          "internalType": "address",
          "name": "owner",
          "type": "address"
        },
        {
          "indexed": true,
          "internalType": "address",
          "name": "spender",
          "type": "address"
        },
        {
          "indexed": false,
          "internalType": "uint256",
          "name": "value",
          "type": "uint256"
        }
      ],
      "name": "Approval",
      "type": "event"
    },
    {
      "anonymous": false,
      "inputs": [],
      "name": "EIP712DomainChanged",
      "type": "event"
    },
    {
      "anonymous": false,
      "inputs": [
        {
          "indexed": true,
          "internalType": "bytes32",
          "name": "role",
          "type": "bytes32"
        },
        {
          "indexed": true,
          "internalType": "bytes32",
          "name": "previousAdminRole",
          "type": "bytes32"
        },
        {
          "indexed": true,
          "internalType": "bytes32",
          "name": "newAdminRole",
          "type": "bytes32"
        }
      ],
      "name": "RoleAdminChanged",
      "type": "event"
    },
    {
      "anonymous": false,
      "inputs": [
        {
          "indexed": true,
          "internalType": "bytes32",
          "name": "role",
          "type": "bytes32"
        },
        {
          "indexed": true,
          "internalType": "address",
          "name": "account",
          "type": "address"
        },
        {
          "indexed": true,
          "internalType": "address",
          "name": "sender",
          "type": "address"
        }
      ],
      "name": "RoleGranted",
      "type": "event"
    },
    {
      "anonymous": false,
      "inputs": [
        {
          "indexed": true,
          "internalType": "bytes32",
          "name": "role",
          "type": "bytes32"
        },
        {
          "indexed": true,
          "internalType": "address",
          "name": "account",
          "type": "address"
        },
        {
          "indexed": true,
          "internalType": "address",
          "name": "sender",
          "type": "address"
        }
      ],
      "name": "RoleRevoked",
      "type": "event"
    },
    {
      "anonymous": false,
      "inputs": [
        {
          "indexed": true,
          "internalType": "address",
          "name": "from",
          "type": "address"
        },
        {
          "indexed": true,
          "internalType": "address",
          "name": "to",
          "type": "address"
        },
        {
          "indexed": false,
          "internalType": "uint256",
          "name": "value",
          "type": "uint256"
        }
      ],
      "name": "Transfer",
      "type": "event"
    },
    {
      "inputs": [],
      "name": "DEFAULT_ADMIN_ROLE",
      "outputs": [
        {
          "internalType": "bytes32",
          "name": "",
          "type": "bytes32"
        }
      ],
      "stateMutability": "view",
      "type": "function"
    },
    {
      "inputs": [],
      "name": "DOMAIN_SEPARATOR",
      "outputs": [
        {
          "internalType": "bytes32",
          "name": "",
          "type": "bytes32"
        }
      ],
      "stateMutability": "view",
      "type": "function"
    },
    {
      "inputs": [],
      "name": "MINTER_ROLE",
      "outputs": [
        {
          "internalType": "bytes32",
          "name": "",
          "type": "bytes32"
        }
      ],
      "stateMutability": "view",
      "type": "function"
    },
    {
      "inputs": [
        {
          "internalType": "address",
          "name": "owner",
          "type": "address"
        },
        {
          "internalType": "address",
          "name": "spender",
          "type": "address"
        }
      ],
      "name": "allowance",
      "outputs": [
        {
          "internalType": "uint256",
          "name": "",
          "type": "uint256"
        }
      ],
      "stateMutability": "view",
      "type": "function"
    },
    {
      "inputs": [
        {
          "internalType": "address",
          "name": "spender",
          "type": "address"
        },
        {
          "internalType": "uint256",
          "name": "amount",
          "type": "uint256"
        }
      ],
      "name": "approve",
      "outputs": [
        {
          "internalType": "bool",
          "name": "",
          "type": "bool"
        }
      ],
      "stateMutability": "nonpayable",
      "type": "function"
    },
    {
      "inputs": [
        {
          "internalType": "address",
          "name": "account",
          "type": "address"
        }
      ],
      "name": "balanceOf",
      "outputs": [
        {
          "internalType": "uint256",
          "name": "",
          "type": "uint256"
        }
      ],
      "stateMutability": "view",
      "type": "function"
    },
    {
      "inputs": [],
      "name": "decimals",
      "outputs": [
        {
          "internalType": "uint8",
          "name": "",
          "type": "uint8"
        }
      ],
      "stateMutability": "view",
      "type": "function"
    },
    {
      "inputs": [
        {
          "internalType": "address",
          "name": "spender",
          "type": "address"
        },
        {
          "internalType": "uint256",
          "name": "subtractedValue",
          "type": "uint256"
        }
      ],
      "name": "decreaseAllowance",
      "outputs": [
        {
          "internalType": "bool",
          "name": "",
          "type": "bool"
        }
      ],
      "stateMutability": "nonpayable",
      "type": "function"
    },
    {
      "inputs": [],
      "name": "eip712Domain",
      "outputs": [
        {
          "internalType": "bytes1",
          "name": "fields",
          "type": "bytes1"
        },
        {
          "internalType": "string",
          "name": "name",
          "type": "string"
        },
        {
          "internalType": "string",
          "name": "version",
          "type": "string"
        },
        {
          "internalType": "uint256",
          "name": "chainId",
          "type": "uint256"
        },
        {
          "internalType": "address",
          "name": "verifyingContract",
          "type": "address"
        },
        {
          "internalType": "bytes32",
          "name": "salt",
          "type": "bytes32"
        },
        {
          "internalType": "uint256[]",
          "name": "extensions",
          "type": "uint256[]"
        }
      ],
      "stateMutability": "view",
      "type": "function"
    },
    {
      "inputs": [
        {
          "internalType": "bytes32",
          "name": "role",
          "type": "bytes32"
        }
      ],
      "name": "getRoleAdmin",
      "outputs": [
        {
          "internalType": "bytes32",
          "name": "",
          "type": "bytes32"
        }
      ],
      "stateMutability": "view",
      "type": "function"
    },
    {
      "inputs": [
        {
          "internalType": "bytes32",
          "name": "role",
          "type": "bytes32"
        },
        {
          "internalType": "address",
          "name": "account",
          "type": "address"
        }
      ],
      "name": "grantRole",
      "outputs": [],
      "stateMutability": "nonpayable",
      "type": "function"
    },
    {
      "inputs": [
        {
          "internalType": "bytes32",
          "name": "role",
          "type": "bytes32"
        },
        {
          "internalType": "address",
          "name": "account",
          "type": "address"
        }
      ],
      "name": "hasRole",
      "outputs": [
        {
          "internalType": "bool",
          "name": "",
          "type": "bool"
        }
      ],
      "stateMutability": "view",
      "type": "function"
    },
    {
      "inputs": [
        {
          "internalType": "address",
          "name": "spender",
          "type": "address"
        },
        {
          "internalType": "uint256",
          "name": "addedValue",
          "type": "uint256"
        }
      ],
      "name": "increaseAllowance",
      "outputs": [
        {
          "internalType": "bool",
          "name": "",
          "type": "bool"
        }
      ],
      "stateMutability": "nonpayable",
      "type": "function"
    },
    {
      "inputs": [
        {
          "internalType": "address",
          "name": "to",
          "type": "address"
        },
        {
          "internalType": "uint256",
          "name": "amount",
          "type": "uint256"
        }
      ],
      "name": "mint",
      "outputs": [],
      "stateMutability": "nonpayable",
      "type": "function"
    },
    {
      "inputs": [],
      "name": "name",
      "outputs": [
        {
          "internalType": "string",
          "name": "",
          "type": "string"
        }
      ],
      "stateMutability": "view",
      "type": "function"
    },
    {
      "inputs": [
        {
          "internalType": "address",
          "name": "owner",
          "type": "address"
        }
      ],
      "name": "nonces",
      "outputs": [
        {
          "internalType": "uint256",
          "name": "",
          "type": "uint256"
        }
      ],
      "stateMutability": "view",
      "type": "function"
    },
    {
      "inputs": [
        {
          "internalType": "address",
          "name": "owner",
          "type": "address"
        },
        {
          "internalType": "address",
          "name": "spender",
          "type": "address"
        },
        {
          "internalType": "uint256",
          "name": "value",
          "type": "uint256"
        },
        {
          "internalType": "uint256",
          "name": "deadline",
          "type": "uint256"
        },
        {
          "internalType": "uint8",
          "name": "v",
          "type": "uint8"
        },
        {
          "internalType": "bytes32",
          "name": "r",
          "type": "bytes32"
        },
        {
          "internalType": "bytes32",
          "name": "s",
          "type": "bytes32"
        }
      ],
      "name": "permit",
      "outputs": [],
      "stateMutability": "nonpayable",
      "type": "function"
    },
    {
      "inputs": [
        {
          "internalType": "bytes32",
          "name": "role",
          "type": "bytes32"
        },
        {
          "internalType": "address",
          "name": "account",
          "type": "address"
        }
      ],
      "name": "renounceRole",
      "outputs": [],
      "stateMutability": "nonpayable",
      "type": "function"
    },
    {
      "inputs": [
        {
          "internalType": "bytes32",
          "name": "role",
          "type": "bytes32"
        },
        {
          "internalType": "address",
          "name": "account",
          "type": "address"
        }
      ],
      "name": "revokeRole",
      "outputs": [],
      "stateMutability": "nonpayable",
      "type": "function"
    },
    {
      "inputs": [
        {
          "internalType": "bytes4",
          "name": "interfaceId",
          "type": "bytes4"
        }
      ],
      "name": "supportsInterface",
      "outputs": [
        {
          "internalType": "bool",
          "name": "",
          "type": "bool"
        }
      ],
      "stateMutability": "view",
      "type": "function"
    },
    {
      "inputs": [],
      "name": "symbol",
      "outputs": [
        {
          "internalType": "string",
          "name": "",
          "type": "string"
        }
      ],
      "stateMutability": "view",
      "type": "function"
    },
    {
      "inputs": [],
      "name": "totalSupply",
      "outputs": [
        {
          "internalType": "uint256",
          "name": "",
          "type": "uint256"
        }
      ],
      "stateMutability": "view",
      "type": "function"
    },
    {
      "inputs": [
        {
          "internalType": "address",
          "name": "to",
          "type": "address"
        },
        {
          "internalType": "uint256",
          "name": "amount",
          "type": "uint256"
        }
      ],
      "name": "transfer",
      "outputs": [
        {
          "internalType": "bool",
          "name": "",
          "type": "bool"
        }
      ],
      "stateMutability": "nonpayable",
      "type": "function"
    },
    {
      "inputs": [
        {
          "internalType": "address",
          "name": "from",
          "type": "address"
        },
        {
          "internalType": "address",
          "name": "to",
          "type": "address"
        },
        {
          "internalType": "uint256",
          "name": "amount",
          "type": "uint256"
        }
      ],
      "name": "transferFrom",
      "outputs": [
        {
          "internalType": "bool",
          "name": "",
          "type": "bool"
        }
      ],
      "stateMutability": "nonpayable",
      "type": "function"
    }
  ],
  "bytecode": "0x6101606040523480156200001257600080fd5b50604051620022b6380380620022b6833981016040819052620000359162000342565b604051806040016040528060088152602001672220a7aa37b5b2b760c11b81525080604051806040016040528060018152602001603160f81b815250604051806040016040528060088152602001672220a7aa37b5b2b760c11b81525060405180604001604052806002815260200161111560f21b8152508160039081620000be91906200041f565b506004620000cd82826200041f565b505050620000eb600683620001e160201b6200099d1790919060201c565b6101205262000108816007620001e1602090811b6200099d17901c565b61014052815160208084019190912060e052815190820120610100524660a0526200019660e05161010051604080517f8b73c3c69bb8fe3d512ecc4cf759cc79239f7b179b0ffacaa9a75d522b39400f60208201529081019290925260608201524660808201523060a082015260009060c00160405160208183030381529060405280519060200120905090565b60805250503060c05250620001ad60008362000231565b620001d97f9f2df0fed2c77648de5860a4cc508cd0818c85b8b8a1ab4ceeef8d981c8956a68262000231565b505062000560565b60006020835110156200020157620001f983620002d6565b90506200022b565b8262000218836200032260201b620009ce1760201c565b906200022590826200041f565b5060ff90505b92915050565b60008281526005602090815260408083206001600160a01b038516845290915290205460ff16620002d25760008281526005602090815260408083206001600160a01b03851684529091529020805460ff19166001179055620002913390565b6001600160a01b0316816001600160a01b0316837f2f8788117e7eff1d82e926ec794901d17c78024a50270940304540a733656f0d60405160405180910390a45b5050565b600080829050601f815111156200030d578260405163305a27a960e01b8152600401620003049190620004eb565b60405180910390fd5b80516200031a826200053b565b179392505050565b90565b80516001600160a01b03811681146200033d57600080fd5b919050565b600080604083850312156200035657600080fd5b620003618362000325565b9150620003716020840162000325565b90509250929050565b634e487b7160e01b600052604160045260246000fd5b600181811c90821680620003a557607f821691505b602082108103620003c657634e487b7160e01b600052602260045260246000fd5b50919050565b601f8211156200041a57600081815260208120601f850160051c81016020861015620003f55750805b601f850160051c820191505b81811015620004165782815560010162000401565b5050505b505050565b81516001600160401b038111156200043b576200043b6200037a565b62000453816200044c845462000390565b84620003cc565b602080601f8311600181146200048b5760008415620004725750858301515b600019600386901b1c1916600185901b17855562000416565b600085815260208120601f198616915b82811015620004bc578886015182559484019460019091019084016200049b565b5085821015620004db5787850151600019600388901b60f8161c191681555b5050505050600190811b01905550565b600060208083528351808285015260005b818110156200051a57858101830151858201604001528201620004fc565b506000604082860101526040601f19601f8301168501019250505092915050565b80516020808301519190811015620003c65760001960209190910360031b1b16919050565b60805160a05160c05160e051610100516101205161014051611cfb620005bb60003960006106e1015260006106b601526000610f3101526000610f0901526000610e6401526000610e8e01526000610eb80152611cfb6000f3fe608060405234801561001057600080fd5b50600436106101985760003560e01c806370a08231116100e3578063a457c2d71161008c578063d539139311610066578063d539139314610373578063d547741f1461039a578063dd62ed3e146103ad57600080fd5b8063a457c2d71461033a578063a9059cbb1461034d578063d505accf1461036057600080fd5b806391d14854116100bd57806391d14854146102f157806395d89b411461032a578063a217fddf1461033257600080fd5b806370a082311461029a5780637ecebe00146102c357806384b0196e146102d657600080fd5b80632f2ff15d1161014557806336568abe1161011f57806336568abe14610261578063395093511461027457806340c10f191461028757600080fd5b80632f2ff15d14610235578063313ce5671461024a5780633644e5151461025957600080fd5b806318160ddd1161017657806318160ddd146101ed57806323b872dd146101ff578063248a9ca31461021257600080fd5b806301ffc9a71461019d57806306fdde03146101c5578063095ea7b3146101da575b600080fd5b6101b06101ab36600461176f565b6103e6565b60405190151581526020015b60405180910390f35b6101cd61047f565b6040516101bc9190611801565b6101b06101e8366004611830565b610511565b6002545b6040519081526020016101bc565b6101b061020d36600461185a565b610529565b6101f1610220366004611896565b60009081526005602052604090206001015490565b6102486102433660046118af565b61054d565b005b604051601281526020016101bc565b6101f1610577565b61024861026f3660046118af565b610586565b6101b0610282366004611830565b610617565b610248610295366004611830565b610656565b6101f16102a83660046118db565b6001600160a01b031660009081526020819052604090205490565b6101f16102d13660046118db565b61068a565b6102de6106a8565b6040516101bc97969594939291906118f6565b6101b06102ff3660046118af565b60009182526005602090815260408084206001600160a01b0393909316845291905290205460ff1690565b6101cd61074d565b6101f1600081565b6101b0610348366004611830565b61075c565b6101b061035b366004611830565b610806565b61024861036e3660046119a8565b610814565b6101f17f9f2df0fed2c77648de5860a4cc508cd0818c85b8b8a1ab4ceeef8d981c8956a681565b6102486103a83660046118af565b610978565b6101f16103bb366004611a1b565b6001600160a01b03918216600090815260016020908152604080832093909416825291909152205490565b60007fffffffff0000000000000000000000000000000000000000000000000000000082167f7965db0b00000000000000000000000000000000000000000000000000000000148061047957507f01ffc9a7000000000000000000000000000000000000000000000000000000007fffffffff000000000000000000000000000000000000000000000000000000008316145b92915050565b60606003805461048e90611a45565b80601f01602080910402602001604051908101604052809291908181526020018280546104ba90611a45565b80156105075780601f106104dc57610100808354040283529160200191610507565b820191906000526020600020905b8154815290600101906020018083116104ea57829003601f168201915b5050505050905090565b60003361051f8185856109d1565b5060019392505050565b600033610537858285610b29565b610542858585610bbb565b506001949350505050565b60008281526005602052604090206001015461056881610da8565b6105728383610db5565b505050565b6000610581610e57565b905090565b6001600160a01b03811633146106095760405162461bcd60e51b815260206004820152602f60248201527f416363657373436f6e74726f6c3a2063616e206f6e6c792072656e6f756e636560448201527f20726f6c657320666f722073656c66000000000000000000000000000000000060648201526084015b60405180910390fd5b6106138282610f82565b5050565b3360008181526001602090815260408083206001600160a01b038716845290915281205490919061051f9082908690610651908790611a8f565b6109d1565b7f9f2df0fed2c77648de5860a4cc508cd0818c85b8b8a1ab4ceeef8d981c8956a661068081610da8565b6105728383611005565b6001600160a01b038116600090815260086020526040812054610479565b6000606080828080836106dc7f000000000000000000000000000000000000000000000000000000000000000060066110c4565b6107077f000000000000000000000000000000000000000000000000000000000000000060076110c4565b604080516000808252602082019092527f0f000000000000000000000000000000000000000000000000000000000000009b939a50919850469750309650945092509050565b60606004805461048e90611a45565b3360008181526001602090815260408083206001600160a01b0387168452909152812054909190838110156107f95760405162461bcd60e51b815260206004820152602560248201527f45524332303a2064656372656173656420616c6c6f77616e63652062656c6f7760448201527f207a65726f0000000000000000000000000000000000000000000000000000006064820152608401610600565b61054282868684036109d1565b60003361051f818585610bbb565b834211156108645760405162461bcd60e51b815260206004820152601d60248201527f45524332305065726d69743a206578706972656420646561646c696e650000006044820152606401610600565b60007f6e71edae12b1b97f4d1f60370fef10105fa2faae0126114a169c64845d6126c98888886108938c611168565b6040805160208101969096526001600160a01b0394851690860152929091166060840152608083015260a082015260c0810186905260e00160405160208183030381529060405280519060200120905060006108ee82611190565b905060006108fe828787876111d8565b9050896001600160a01b0316816001600160a01b0316146109615760405162461bcd60e51b815260206004820152601e60248201527f45524332305065726d69743a20696e76616c6964207369676e617475726500006044820152606401610600565b61096c8a8a8a6109d1565b50505050505050505050565b60008281526005602052604090206001015461099381610da8565b6105728383610f82565b60006020835110156109b9576109b283611200565b9050610479565b816109c48482611b06565b5060ff9050610479565b90565b6001600160a01b038316610a4c5760405162461bcd60e51b8152602060048201526024808201527f45524332303a20617070726f76652066726f6d20746865207a65726f2061646460448201527f72657373000000000000000000000000000000000000000000000000000000006064820152608401610600565b6001600160a01b038216610ac85760405162461bcd60e51b815260206004820152602260248201527f45524332303a20617070726f766520746f20746865207a65726f20616464726560448201527f73730000000000000000000000000000000000000000000000000000000000006064820152608401610600565b6001600160a01b0383811660008181526001602090815260408083209487168084529482529182902085905590518481527f8c5be1e5ebec7d5bd14f71427d1e84f3dd0314c0f7b2291e5b200ac8c7c3b925910160405180910390a3505050565b6001600160a01b038381166000908152600160209081526040808320938616835292905220546000198114610bb55781811015610ba85760405162461bcd60e51b815260206004820152601d60248201527f45524332303a20696e73756666696369656e7420616c6c6f77616e63650000006044820152606401610600565b610bb584848484036109d1565b50505050565b6001600160a01b038316610c375760405162461bcd60e51b815260206004820152602560248201527f45524332303a207472616e736665722066726f6d20746865207a65726f20616460448201527f64726573730000000000000000000000000000000000000000000000000000006064820152608401610600565b6001600160a01b038216610cb35760405162461bcd60e51b815260206004820152602360248201527f45524332303a207472616e7366657220746f20746865207a65726f206164647260448201527f65737300000000000000000000000000000000000000000000000000000000006064820152608401610600565b6001600160a01b03831660009081526020819052604090205481811015610d425760405162461bcd60e51b815260206004820152602660248201527f45524332303a207472616e7366657220616d6f756e742065786365656473206260448201527f616c616e636500000000000000000000000000000000000000000000000000006064820152608401610600565b6001600160a01b03848116600081815260208181526040808320878703905593871680835291849020805487019055925185815290927fddf252ad1be2c89b69c2b068fc378daa952ba7f163c4a11628f55a4df523b3ef910160405180910390a3610bb5565b610db28133611257565b50565b60008281526005602090815260408083206001600160a01b038516845290915290205460ff166106135760008281526005602090815260408083206001600160a01b03851684529091529020805460ff19166001179055610e133390565b6001600160a01b0316816001600160a01b0316837f2f8788117e7eff1d82e926ec794901d17c78024a50270940304540a733656f0d60405160405180910390a45050565b6000306001600160a01b037f000000000000000000000000000000000000000000000000000000000000000016148015610eb057507f000000000000000000000000000000000000000000000000000000000000000046145b15610eda57507f000000000000000000000000000000000000000000000000000000000000000090565b610581604080517f8b73c3c69bb8fe3d512ecc4cf759cc79239f7b179b0ffacaa9a75d522b39400f60208201527f0000000000000000000000000000000000000000000000000000000000000000918101919091527f000000000000000000000000000000000000000000000000000000000000000060608201524660808201523060a082015260009060c00160405160208183030381529060405280519060200120905090565b60008281526005602090815260408083206001600160a01b038516845290915290205460ff16156106135760008281526005602090815260408083206001600160a01b0385168085529252808320805460ff1916905551339285917ff6391f5c32d9c69d2a47ea670b442974b53935d1edc7fd64eb21e047a839171b9190a45050565b6001600160a01b03821661105b5760405162461bcd60e51b815260206004820152601f60248201527f45524332303a206d696e7420746f20746865207a65726f2061646472657373006044820152606401610600565b806002600082825461106d9190611a8f565b90915550506001600160a01b038216600081815260208181526040808320805486019055518481527fddf252ad1be2c89b69c2b068fc378daa952ba7f163c4a11628f55a4df523b3ef910160405180910390a35050565b606060ff83146110d7576109b2836112cc565b8180546110e390611a45565b80601f016020809104026020016040519081016040528092919081815260200182805461110f90611a45565b801561115c5780601f106111315761010080835404028352916020019161115c565b820191906000526020600020905b81548152906001019060200180831161113f57829003601f168201915b50505050509050610479565b6001600160a01b03811660009081526008602052604090208054600181018255905b50919050565b600061047961119d610e57565b836040517f19010000000000000000000000000000000000000000000000000000000000008152600281019290925260228201526042902090565b60008060006111e98787878761130b565b915091506111f6816113cf565b5095945050505050565b600080829050601f8151111561124457826040517f305a27a90000000000000000000000000000000000000000000000000000000081526004016106009190611801565b805161124f82611bc6565b179392505050565b60008281526005602090815260408083206001600160a01b038516845290915290205460ff166106135761128a81611534565b611295836020611546565b6040516020016112a6929190611bea565b60408051601f198184030181529082905262461bcd60e51b825261060091600401611801565b606060006112d98361172e565b604080516020808252818301909252919250600091906020820181803683375050509182525060208101929092525090565b6000807f7fffffffffffffffffffffffffffffff5d576e7357a4501ddfe92f46681b20a083111561134257506000905060036113c6565b6040805160008082526020820180845289905260ff881692820192909252606081018690526080810185905260019060a0016020604051602081039080840390855afa158015611396573d6000803e3d6000fd5b5050604051601f1901519150506001600160a01b0381166113bf576000600192509250506113c6565b9150600090505b94509492505050565b60008160048111156113e3576113e3611c6b565b036113eb5750565b60018160048111156113ff576113ff611c6b565b0361144c5760405162461bcd60e51b815260206004820152601860248201527f45434453413a20696e76616c6964207369676e617475726500000000000000006044820152606401610600565b600281600481111561146057611460611c6b565b036114ad5760405162461bcd60e51b815260206004820152601f60248201527f45434453413a20696e76616c6964207369676e6174757265206c656e677468006044820152606401610600565b60038160048111156114c1576114c1611c6b565b03610db25760405162461bcd60e51b815260206004820152602260248201527f45434453413a20696e76616c6964207369676e6174757265202773272076616c60448201527f75650000000000000000000000000000000000000000000000000000000000006064820152608401610600565b60606104796001600160a01b03831660145b60606000611555836002611c81565b611560906002611a8f565b67ffffffffffffffff81111561157857611578611aa2565b6040519080825280601f01601f1916602001820160405280156115a2576020820181803683370190505b5090507f3000000000000000000000000000000000000000000000000000000000000000816000815181106115d9576115d9611c98565b60200101906001600160f81b031916908160001a9053507f78000000000000000000000000000000000000000000000000000000000000008160018151811061162457611624611c98565b60200101906001600160f81b031916908160001a9053506000611648846002611c81565b611653906001611a8f565b90505b60018111156116d8577f303132333435363738396162636465660000000000000000000000000000000085600f166010811061169457611694611c98565b1a60f81b8282815181106116aa576116aa611c98565b60200101906001600160f81b031916908160001a90535060049490941c936116d181611cae565b9050611656565b5083156117275760405162461bcd60e51b815260206004820181905260248201527f537472696e67733a20686578206c656e67746820696e73756666696369656e746044820152606401610600565b9392505050565b600060ff8216601f811115610479576040517fb3512b0c00000000000000000000000000000000000000000000000000000000815260040160405180910390fd5b60006020828403121561178157600080fd5b81357fffffffff000000000000000000000000000000000000000000000000000000008116811461172757600080fd5b60005b838110156117cc5781810151838201526020016117b4565b50506000910152565b600081518084526117ed8160208601602086016117b1565b601f01601f19169290920160200192915050565b60208152600061172760208301846117d5565b80356001600160a01b038116811461182b57600080fd5b919050565b6000806040838503121561184357600080fd5b61184c83611814565b946020939093013593505050565b60008060006060848603121561186f57600080fd5b61187884611814565b925061188660208501611814565b9150604084013590509250925092565b6000602082840312156118a857600080fd5b5035919050565b600080604083850312156118c257600080fd5b823591506118d260208401611814565b90509250929050565b6000602082840312156118ed57600080fd5b61172782611814565b7fff00000000000000000000000000000000000000000000000000000000000000881681526000602060e08184015261193260e084018a6117d5565b8381036040850152611944818a6117d5565b606085018990526001600160a01b038816608086015260a0850187905284810360c0860152855180825283870192509083019060005b818110156119965783518352928401929184019160010161197a565b50909c9b505050505050505050505050565b600080600080600080600060e0888a0312156119c357600080fd5b6119cc88611814565b96506119da60208901611814565b95506040880135945060608801359350608088013560ff811681146119fe57600080fd5b9699959850939692959460a0840135945060c09093013592915050565b60008060408385031215611a2e57600080fd5b611a3783611814565b91506118d260208401611814565b600181811c90821680611a5957607f821691505b60208210810361118a57634e487b7160e01b600052602260045260246000fd5b634e487b7160e01b600052601160045260246000fd5b8082018082111561047957610479611a79565b634e487b7160e01b600052604160045260246000fd5b601f82111561057257600081815260208120601f850160051c81016020861015611adf5750805b601f850160051c820191505b81811015611afe57828155600101611aeb565b505050505050565b815167ffffffffffffffff811115611b2057611b20611aa2565b611b3481611b2e8454611a45565b84611ab8565b602080601f831160018114611b695760008415611b515750858301515b600019600386901b1c1916600185901b178555611afe565b600085815260208120601f198616915b82811015611b9857888601518255948401946001909101908401611b79565b5085821015611bb65787850151600019600388901b60f8161c191681555b5050505050600190811b01905550565b8051602080830151919081101561118a5760001960209190910360031b1b16919050565b7f416363657373436f6e74726f6c3a206163636f756e7420000000000000000000815260008351611c228160178501602088016117b1565b7f206973206d697373696e6720726f6c65200000000000000000000000000000006017918401918201528351611c5f8160288401602088016117b1565b01602801949350505050565b634e487b7160e01b600052602160045260246000fd5b808202811582820484141761047957610479611a79565b634e487b7160e01b600052603260045260246000fd5b600081611cbd57611cbd611a79565b50600019019056fea26469706673582212208c16aadfbd3dc5d48ad2560ac32dba1c5f32328b5998ee79f68f01a80aaaf11464736f6c63430008120033",
  "linkReferences": {},
  "deployedLinkReferences": {}
}