{
  "address": "0x3FDb159157C6CB8a8955CDcC2CeADFF157BA6F56",
  "abi": [
    {
      "inputs": [
        {
          "internalType": "address",
          "name": "token",
          "type": "address"
        },
        {
          "internalType": "uint256",
          "name": "_blanceToJoin",
          "type": "uint256"
        }
      ],
      "stateMutability": "nonpayable",
      "type": "constructor"
    },
    {
      "anonymous": false,
      "inputs": [
        {
          "indexed": true,
          "internalType": "address",
          "name": "contributorAddress",
          "type": "address"
        },
        {
          "indexed": true,
          "internalType": "string",
          "name": "githubUsername",
          "type": "string"
        }
      ],
      "name": "ContributorRegistered",
      "type": "event"
    },
    {
      "anonymous": false,
      "inputs": [
        {
          "indexed": true,
          "internalType": "address",
          "name": "creatorAddress",
          "type": "address"
        }
      ],
      "name": "CreatorRegistered",
      "type": "event"
    },
    {
      "anonymous": false,
      "inputs": [
        {
          "indexed": true,
          "internalType": "address",
          "name": "previousOwner",
          "type": "address"
        },
        {
          "indexed": true,
          "internalType": "address",
          "name": "newOwner",
          "type": "address"
        }
      ],
      "name": "OwnershipTransferred",
      "type": "event"
    },
    {
      "anonymous": false,
      "inputs": [
        {
          "indexed": false,
          "internalType": "address",
          "name": "account",
          "type": "address"
        }
      ],
      "name": "Paused",
      "type": "event"
    },
    {
      "anonymous": false,
      "inputs": [
        {
          "indexed": false,
          "internalType": "address",
          "name": "account",
          "type": "address"
        }
      ],
      "name": "Unpaused",
      "type": "event"
    },
    {
      "inputs": [
        {
          "internalType": "address",
          "name": "",
          "type": "address"
        }
      ],
      "name": "addressToGithub",
      "outputs": [
        {
          "internalType": "string",
          "name": "",
          "type": "string"
        }
      ],
      "stateMutability": "view",
      "type": "function"
    },
    {
      "inputs": [],
      "name": "blanceToJoin",
      "outputs": [
        {
          "internalType": "uint256",
          "name": "",
          "type": "uint256"
        }
      ],
      "stateMutability": "view",
      "type": "function"
    },
    {
      "inputs": [
        {
          "internalType": "string",
          "name": "",
          "type": "string"
        }
      ],
      "name": "githubToAddress",
      "outputs": [
        {
          "internalType": "address",
          "name": "",
          "type": "address"
        }
      ],
      "stateMutability": "view",
      "type": "function"
    },
    {
      "inputs": [
        {
          "internalType": "address",
          "name": "",
          "type": "address"
        }
      ],
      "name": "isOpenSourceProjectCreator",
      "outputs": [
        {
          "internalType": "bool",
          "name": "",
          "type": "bool"
        }
      ],
      "stateMutability": "view",
      "type": "function"
    },
    {
      "inputs": [
        {
          "internalType": "string",
          "name": "githubUsername",
          "type": "string"
        }
      ],
      "name": "joinAsContributor",
      "outputs": [],
      "stateMutability": "nonpayable",
      "type": "function"
    },
    {
      "inputs": [],
      "name": "joinAsOpenSourceProjectCreator",
      "outputs": [],
      "stateMutability": "nonpayable",
      "type": "function"
    },
    {
      "inputs": [],
      "name": "owner",
      "outputs": [
        {
          "internalType": "address",
          "name": "",
          "type": "address"
        }
      ],
      "stateMutability": "view",
      "type": "function"
    },
    {
      "inputs": [],
      "name": "pause",
      "outputs": [],
      "stateMutability": "nonpayable",
      "type": "function"
    },
    {
      "inputs": [],
      "name": "paused",
      "outputs": [
        {
          "internalType": "bool",
          "name": "",
          "type": "bool"
        }
      ],
      "stateMutability": "view",
      "type": "function"
    },
    {
      "inputs": [],
      "name": "renounceOwnership",
      "outputs": [],
      "stateMutability": "nonpayable",
      "type": "function"
    },
    {
      "inputs": [
        {
          "internalType": "address",
          "name": "newOwner",
          "type": "address"
        }
      ],
      "name": "transferOwnership",
      "outputs": [],
      "stateMutability": "nonpayable",
      "type": "function"
    },
    {
      "inputs": [],
      "name": "unpause",
      "outputs": [],
      "stateMutability": "nonpayable",
      "type": "function"
    },
    {
      "inputs": [
        {
          "internalType": "uint256",
          "name": "_blanceToJoin",
          "type": "uint256"
        }
      ],
      "name": "updateBlanceToJoin",
      "outputs": [],
      "stateMutability": "nonpayable",
      "type": "function"
    }
  ],
  "transactionHash": "0x9aefd54cc177bccdcda7c367dbca78c3679d738bb089eb7c3a98c719ef032ab8",
  "args": [
    "0xDDbd49e16edCc87C670E64c28a2E566C384F89cC",
    100
  ],
  "numDeployments": 1,
  "solcInputHash": "ec351aeec021a1e090c01f16e1c579a7",
  "bytecode": "0x608060405234801561001057600080fd5b50604051610d5f380380610d5f83398101604081905261002f91610113565b6000805460ff19169055610042336100ba565b600480546001600160a01b0319166001600160a01b038416179055600a81116100b15760405162461bcd60e51b815260206004820152601f60248201527f62616c616e6365206d7573742062652067726561746572207468616e20313000604482015260640160405180910390fd5b6005555061014d565b600080546001600160a01b03838116610100818102610100600160a81b0319851617855560405193049190911692909183917f8be0079c531659141344cd1fd0a4f28419497f9722a3daafe3b4186f6b6457e091a35050565b6000806040838503121561012657600080fd5b82516001600160a01b038116811461013d57600080fd5b6020939093015192949293505050565b610c038061015c6000396000f3fe608060405234801561001057600080fd5b50600436106100df5760003560e01c8063715018a61161008c5780638da5cb5b116100665780638da5cb5b146101bb578063a5dc1f35146101d1578063d1ab4961146101f1578063f2fde38b1461020857600080fd5b8063715018a61461015f57806372a0ca23146101675780638456cb59146101b357600080fd5b80634837388c116100bd5780634837388c146101395780635c975abb1461014157806361a399e61461014c57600080fd5b80631a695e5a146100e45780633e2eadbd146100f95780633f4ba83a14610131575b600080fd5b6100f76100f23660046108fe565b61021b565b005b61011c6101073660046109af565b60036020526000908152604090205460ff1681565b60405190151581526020015b60405180910390f35b6100f7610382565b6100f7610394565b60005460ff1661011c565b6100f761015a3660046109df565b61053b565b6100f7610598565b61019b6101753660046108fe565b80516020818301810180516001825292820191909301209152546001600160a01b031681565b6040516001600160a01b039091168152602001610128565b6100f76105aa565b60005461010090046001600160a01b031661019b565b6101e46101df3660046109af565b6105ba565b6040516101289190610a1c565b6101fa60055481565b604051908152602001610128565b6100f76102163660046109af565b610654565b6102236106e4565b60006001600160a01b031660018260405161023e9190610a4f565b908152604051908190036020019020546001600160a01b0316146102cf5760405162461bcd60e51b815260206004820152602260248201527f67697468756220757365726e616d6520616c726561647920726567697374657260448201527f656400000000000000000000000000000000000000000000000000000000000060648201526084015b60405180910390fd5b336001826040516102e09190610a4f565b908152604080516020928190038301902080547fffffffffffffffffffffffff0000000000000000000000000000000000000000166001600160a01b03949094169390931790925533600090815260029091522061033e8282610af4565b508060405161034d9190610a4f565b6040519081900381209033907f13ee88f0d8cd989788df59eb339f13fe43ba9ade63ece035c6cba34f1bfbe19b90600090a350565b61038a610737565b610392610797565b565b61039c6106e4565b3360009081526003602052604090205460ff16156104225760405162461bcd60e51b815260206004820152603160248201527f616c72656164792072656769737465726564206173206f70656e20736f75726360448201527f652070726f6a6563742063726561746f7200000000000000000000000000000060648201526084016102c6565b600554600480546040517f70a0823100000000000000000000000000000000000000000000000000000000815233928101929092526001600160a01b0316906370a0823190602401602060405180830381865afa158015610487573d6000803e3d6000fd5b505050506040513d601f19601f820116820180604052508101906104ab9190610bb4565b10156104f95760405162461bcd60e51b815260206004820152601a60248201527f6e6f7420656e6f7567682062616c616e636520746f206a6f696e00000000000060448201526064016102c6565b33600081815260036020526040808220805460ff19166001179055517f177b4e655e9aaf45f5db25b396dfba96e0152f6adcf5d9a3e7d07276431d42e79190a2565b610543610737565b600a81116105935760405162461bcd60e51b815260206004820152601f60248201527f62616c616e6365206d7573742062652067726561746572207468616e2031300060448201526064016102c6565b600555565b6105a0610737565b61039260006107e9565b6105b2610737565b610392610859565b600260205260009081526040902080546105d390610a6b565b80601f01602080910402602001604051908101604052809291908181526020018280546105ff90610a6b565b801561064c5780601f106106215761010080835404028352916020019161064c565b820191906000526020600020905b81548152906001019060200180831161062f57829003601f168201915b505050505081565b61065c610737565b6001600160a01b0381166106d85760405162461bcd60e51b815260206004820152602660248201527f4f776e61626c653a206e6577206f776e657220697320746865207a65726f206160448201527f646472657373000000000000000000000000000000000000000000000000000060648201526084016102c6565b6106e1816107e9565b50565b60005460ff16156103925760405162461bcd60e51b815260206004820152601060248201527f5061757361626c653a207061757365640000000000000000000000000000000060448201526064016102c6565b6000546001600160a01b036101009091041633146103925760405162461bcd60e51b815260206004820181905260248201527f4f776e61626c653a2063616c6c6572206973206e6f7420746865206f776e657260448201526064016102c6565b61079f610896565b6000805460ff191690557f5db9ee0a495bf2e6ff9c91a7834c1ba4fdd244a5e8aa4e537bd38aeae4b073aa335b6040516001600160a01b03909116815260200160405180910390a1565b600080546001600160a01b038381166101008181027fffffffffffffffffffffff0000000000000000000000000000000000000000ff851617855560405193049190911692909183917f8be0079c531659141344cd1fd0a4f28419497f9722a3daafe3b4186f6b6457e091a35050565b6108616106e4565b6000805460ff191660011790557f62e78cea01bee320cd4e420270b5ea74000d11b0c9f74754ebdbfc544b05a2586107cc3390565b60005460ff166103925760405162461bcd60e51b815260206004820152601460248201527f5061757361626c653a206e6f742070617573656400000000000000000000000060448201526064016102c6565b634e487b7160e01b600052604160045260246000fd5b60006020828403121561091057600080fd5b813567ffffffffffffffff8082111561092857600080fd5b818401915084601f83011261093c57600080fd5b81358181111561094e5761094e6108e8565b604051601f8201601f19908116603f01168101908382118183101715610976576109766108e8565b8160405282815287602084870101111561098f57600080fd5b826020860160208301376000928101602001929092525095945050505050565b6000602082840312156109c157600080fd5b81356001600160a01b03811681146109d857600080fd5b9392505050565b6000602082840312156109f157600080fd5b5035919050565b60005b83811015610a135781810151838201526020016109fb565b50506000910152565b6020815260008251806020840152610a3b8160408501602087016109f8565b601f01601f19169190910160400192915050565b60008251610a618184602087016109f8565b9190910192915050565b600181811c90821680610a7f57607f821691505b602082108103610a9f57634e487b7160e01b600052602260045260246000fd5b50919050565b601f821115610aef57600081815260208120601f850160051c81016020861015610acc5750805b601f850160051c820191505b81811015610aeb57828155600101610ad8565b5050505b505050565b815167ffffffffffffffff811115610b0e57610b0e6108e8565b610b2281610b1c8454610a6b565b84610aa5565b602080601f831160018114610b575760008415610b3f5750858301515b600019600386901b1c1916600185901b178555610aeb565b600085815260208120601f198616915b82811015610b8657888601518255948401946001909101908401610b67565b5085821015610ba45787850151600019600388901b60f8161c191681555b5050505050600190811b01905550565b600060208284031215610bc657600080fd5b505191905056fea264697066735822122094c6e180c197288b93bc24bf7914c32bcf8fe67dc9c54190f436a5f1e1a1bcf264736f6c63430008120033",
  "devdoc": {
    "events": {
      "Paused(address)": {
        "details": "Emitted when the pause is triggered by `account`."
      },
      "Unpaused(address)": {
        "details": "Emitted when the pause is lifted by `account`."
      }
    },
    "kind": "dev",
    "methods": {
      "owner()": {
        "details": "Returns the address of the current owner."
      },
      "paused()": {
        "details": "Returns true if the contract is paused, and false otherwise."
      },
      "renounceOwnership()": {
        "details": "Leaves the contract without owner. It will not be possible to call `onlyOwner` functions. Can only be called by the current owner. NOTE: Renouncing ownership will leave the contract without an owner, thereby disabling any functionality that is only available to the owner."
      },
      "transferOwnership(address)": {
        "details": "Transfers ownership of the contract to a new account (`newOwner`). Can only be called by the current owner."
      }
    },
    "version": 1
  },
  "userdoc": {
    "kind": "user",
    "methods": {},
    "notice": "the contract should manage user registration , for creator and contributors",
    "version": 1
  },
  "storageLayout": {
    "storage": [
      {
        "astId": 130,
        "contract": "contracts/Registration.sol:Registration",
        "label": "_paused",
        "offset": 0,
        "slot": "0",
        "type": "t_bool"
      },
      {
        "astId": 7,
        "contract": "contracts/Registration.sol:Registration",
        "label": "_owner",
        "offset": 1,
        "slot": "0",
        "type": "t_address"
      },
      {
        "astId": 340,
        "contract": "contracts/Registration.sol:Registration",
        "label": "githubToAddress",
        "offset": 0,
        "slot": "1",
        "type": "t_mapping(t_string_memory_ptr,t_address)"
      },
      {
        "astId": 344,
        "contract": "contracts/Registration.sol:Registration",
        "label": "addressToGithub",
        "offset": 0,
        "slot": "2",
        "type": "t_mapping(t_address,t_string_storage)"
      },
      {
        "astId": 348,
        "contract": "contracts/Registration.sol:Registration",
        "label": "isOpenSourceProjectCreator",
        "offset": 0,
        "slot": "3",
        "type": "t_mapping(t_address,t_bool)"
      },
      {
        "astId": 351,
        "contract": "contracts/Registration.sol:Registration",
        "label": "daoToken",
        "offset": 0,
        "slot": "4",
        "type": "t_contract(IERC20)298"
      },
      {
        "astId": 353,
        "contract": "contracts/Registration.sol:Registration",
        "label": "blanceToJoin",
        "offset": 0,
        "slot": "5",
        "type": "t_uint256"
      }
    ],
    "types": {
      "t_address": {
        "encoding": "inplace",
        "label": "address",
        "numberOfBytes": "20"
      },
      "t_bool": {
        "encoding": "inplace",
        "label": "bool",
        "numberOfBytes": "1"
      },
      "t_contract(IERC20)298": {
        "encoding": "inplace",
        "label": "contract IERC20",
        "numberOfBytes": "20"
      },
      "t_mapping(t_address,t_bool)": {
        "encoding": "mapping",
        "key": "t_address",
        "label": "mapping(address => bool)",
        "numberOfBytes": "32",
        "value": "t_bool"
      },
      "t_mapping(t_address,t_string_storage)": {
        "encoding": "mapping",
        "key": "t_address",
        "label": "mapping(address => string)",
        "numberOfBytes": "32",
        "value": "t_string_storage"
      },
      "t_mapping(t_string_memory_ptr,t_address)": {
        "encoding": "mapping",
        "key": "t_string_memory_ptr",
        "label": "mapping(string => address)",
        "numberOfBytes": "32",
        "value": "t_address"
      },
      "t_string_memory_ptr": {
        "encoding": "bytes",
        "label": "string",
        "numberOfBytes": "32"
      },
      "t_string_storage": {
        "encoding": "bytes",
        "label": "string",
        "numberOfBytes": "32"
      },
      "t_uint256": {
        "encoding": "inplace",
        "label": "uint256",
        "numberOfBytes": "32"
      }
    }
  }
}