{
  "address": "0x61fC4a178ED1b88a07697Ea56E2A8E503c44d491",
  "abi": [
    {
      "inputs": [
        {
          "internalType": "address",
          "name": "_registration",
          "type": "address"
        },
        {
          "internalType": "address",
          "name": "_token",
          "type": "address"
        }
      ],
      "stateMutability": "nonpayable",
      "type": "constructor"
    },
    {
      "anonymous": false,
      "inputs": [
        {
          "indexed": false,
          "internalType": "uint256",
          "name": "amount",
          "type": "uint256"
        },
        {
          "indexed": false,
          "internalType": "address",
          "name": "by",
          "type": "address"
        }
      ],
      "name": "Claimed",
      "type": "event"
    },
    {
      "anonymous": false,
      "inputs": [
        {
          "indexed": false,
          "internalType": "uint256",
          "name": "listingId",
          "type": "uint256"
        },
        {
          "indexed": false,
          "internalType": "string",
          "name": "githubRepo",
          "type": "string"
        },
        {
          "indexed": false,
          "internalType": "uint256",
          "name": "deposit",
          "type": "uint256"
        },
        {
          "indexed": false,
          "internalType": "uint256",
          "name": "payableAmount",
          "type": "uint256"
        }
      ],
      "name": "ListingCreated",
      "type": "event"
    },
    {
      "anonymous": false,
      "inputs": [
        {
          "indexed": true,
          "internalType": "address",
          "name": "previousOwner",
          "type": "address"
        },
        {
          "indexed": true,
          "internalType": "address",
          "name": "newOwner",
          "type": "address"
        }
      ],
      "name": "OwnershipTransferred",
      "type": "event"
    },
    {
      "anonymous": false,
      "inputs": [
        {
          "indexed": false,
          "internalType": "uint256",
          "name": "amount",
          "type": "uint256"
        },
        {
          "indexed": false,
          "internalType": "address",
          "name": "by",
          "type": "address"
        },
        {
          "indexed": false,
          "internalType": "string",
          "name": "prUrl",
          "type": "string"
        }
      ],
      "name": "Requested",
      "type": "event"
    },
    {
      "inputs": [
        {
          "internalType": "string",
          "name": "repo",
          "type": "string"
        },
        {
          "internalType": "string",
          "name": "prUrl",
          "type": "string"
        }
      ],
      "name": "claim",
      "outputs": [],
      "stateMutability": "nonpayable",
      "type": "function"
    },
    {
      "inputs": [
        {
          "internalType": "string",
          "name": "_login",
          "type": "string"
        },
        {
          "internalType": "string",
          "name": "githubIssue",
          "type": "string"
        },
        {
          "internalType": "uint256",
          "name": "bountyAmount",
          "type": "uint256"
        }
      ],
      "name": "finalizeClaim",
      "outputs": [],
      "stateMutability": "nonpayable",
      "type": "function"
    },
    {
      "inputs": [
        {
          "internalType": "string",
          "name": "",
          "type": "string"
        }
      ],
      "name": "githubToCreatorAddress",
      "outputs": [
        {
          "internalType": "address",
          "name": "",
          "type": "address"
        }
      ],
      "stateMutability": "view",
      "type": "function"
    },
    {
      "inputs": [
        {
          "internalType": "string",
          "name": "githubRepo",
          "type": "string"
        },
        {
          "internalType": "uint256",
          "name": "payableAmount",
          "type": "uint256"
        }
      ],
      "name": "listRepo",
      "outputs": [],
      "stateMutability": "payable",
      "type": "function"
    },
    {
      "inputs": [],
      "name": "owner",
      "outputs": [
        {
          "internalType": "address",
          "name": "",
          "type": "address"
        }
      ],
      "stateMutability": "view",
      "type": "function"
    },
    {
      "inputs": [],
      "name": "renounceOwnership",
      "outputs": [],
      "stateMutability": "nonpayable",
      "type": "function"
    },
    {
      "inputs": [
        {
          "internalType": "address",
          "name": "newOwner",
          "type": "address"
        }
      ],
      "name": "transferOwnership",
      "outputs": [],
      "stateMutability": "nonpayable",
      "type": "function"
    },
    {
      "inputs": [
        {
          "internalType": "string",
          "name": "",
          "type": "string"
        }
      ],
      "name": "usedRequests",
      "outputs": [
        {
          "internalType": "bool",
          "name": "",
          "type": "bool"
        }
      ],
      "stateMutability": "view",
      "type": "function"
    }
  ],
  "transactionHash": "0xcf86f6fefa97c7806529d9360019c9387117cfd190125374add7191ba85026e9",
  "args": [
    "0x8861B67f5Ac24eDc67A34162B31472ADDb1547A7",
    "0xB1eB539E7E845991F2915967f96838025277804C"
  ],
  "numDeployments": 1,
  "solcInputHash": "367458c00e2dafb2c24e97c04ead4dcb",
  "bytecode": "0x608060405234801561001057600080fd5b50604051610f24380380610f2483398101604081905261002f916100d5565b61003833610069565b600380546001600160a01b039384166001600160a01b03199182161790915560048054929093169116179055610108565b600080546001600160a01b038381166001600160a01b0319831681178455604051919092169283917f8be0079c531659141344cd1fd0a4f28419497f9722a3daafe3b4186f6b6457e09190a35050565b80516001600160a01b03811681146100d057600080fd5b919050565b600080604083850312156100e857600080fd5b6100f1836100b9565b91506100ff602084016100b9565b90509250929050565b610e0d806101176000396000f3fe60806040526004361061007b5760003560e01c80638da5cb5b1161004e5780638da5cb5b1461011a57806396d05b041461014c578063cb6ab5d81461018d578063f2fde38b146101ad57600080fd5b80630f0a585f14610080578063601a8d33146100d05780636d129f04146100e5578063715018a614610105575b600080fd5b34801561008c57600080fd5b506100bb61009b366004610909565b8051602081830181018051600b8252928201919093012091525460ff1681565b60405190151581526020015b60405180910390f35b6100e36100de366004610946565b6101cd565b005b3480156100f157600080fd5b506100e361010036600461098b565b61028a565b34801561011157600080fd5b506100e3610467565b34801561012657600080fd5b506000546001600160a01b03165b6040516001600160a01b0390911681526020016100c7565b34801561015857600080fd5b50610134610167366004610909565b80516020818301810180516006825292820191909301209152546001600160a01b031681565b34801561019957600080fd5b506100e36101a8366004610a41565b61047b565b3480156101b957600080fd5b506100e36101c8366004610ac2565b61071f565b600280549060006101dd83610afc565b9190505550336006836040516101f39190610b39565b9081526040805160209281900383018120805473ffffffffffffffffffffffffffffffffffffffff19166001600160a01b039590951694909417909355608083018152600254835281830185815234848301526060840185905233600090815260059093529120825181559051600182019061026f9082610bde565b50604082015160028201556060909101516003909101555050565b6003546040517f55beba040000000000000000000000000000000000000000000000000000000081526000916001600160a01b0316906355beba04906102d4908790600401610c9e565b602060405180830381865afa1580156102f1573d6000803e3d6000fd5b505050506040513d601f19601f820116820180604052508101906103159190610cd1565b90506001600b846040516103299190610b39565b9081526040805160209281900383019020805460ff1916931515939093179092553360009081526005909152908120600201805484929061036b908490610cee565b9091555050600480546040517f40c10f190000000000000000000000000000000000000000000000000000000081526001600160a01b0384811693820193909352600160248201529116906340c10f1990604401600060405180830381600087803b1580156103d957600080fd5b505af11580156103ed573d6000803e3d6000fd5b5050604080518581526001600160a01b03851660208201527f6aa3eac93d079e5e100b1029be716caa33586c96aa4baac390669fb5c2a21212935001905060405180910390a1604051339083156108fc029084906000818181858888f19350505050158015610460573d6000803e3d6000fd5b5050505050565b61046f6107af565b6104796000610809565b565b6005600060068686604051610491929190610d07565b908152602001604051809103902060009054906101000a90046001600160a01b03166001600160a01b03166001600160a01b031681526020019081526020016000206003015460056000600687876040516104ed929190610d07565b9081526040805160209281900383019020546001600160a01b03168352908201929092520160002060020154101561056c5760405162461bcd60e51b815260206004820152601960248201527f6e6f7420656e6f7567682062616c616e636520746f207061790000000000000060448201526064015b60405180910390fd5b600b828260405161057e929190610d07565b9081526040519081900360200190205460ff16156105de5760405162461bcd60e51b815260206004820152601460248201527f7265717565737420616c726561647920757365640000000000000000000000006044820152606401610563565b600180549060006105ee83610afc565b919050555060068484604051610605929190610d07565b9081526040805191829003602090810183205460015460009081526008909252919020805473ffffffffffffffffffffffffffffffffffffffff19166001600160a01b039092169190911790556006906106629086908690610d07565b908152604080519182900360209081019092205460018054600090815260078552838120805473ffffffffffffffffffffffffffffffffffffffff19166001600160a01b0390941693909317909255548152600990925290206106c6828483610d17565b5060056000600686866040516106dd929190610d07565b9081526040805160209281900383019020546001600160a01b03168352828201939093529082016000908120546001548252600a909252919091205550505050565b6107276107af565b6001600160a01b0381166107a35760405162461bcd60e51b815260206004820152602660248201527f4f776e61626c653a206e6577206f776e657220697320746865207a65726f206160448201527f64647265737300000000000000000000000000000000000000000000000000006064820152608401610563565b6107ac81610809565b50565b6000546001600160a01b031633146104795760405162461bcd60e51b815260206004820181905260248201527f4f776e61626c653a2063616c6c6572206973206e6f7420746865206f776e65726044820152606401610563565b600080546001600160a01b0383811673ffffffffffffffffffffffffffffffffffffffff19831681178455604051919092169283917f8be0079c531659141344cd1fd0a4f28419497f9722a3daafe3b4186f6b6457e09190a35050565b634e487b7160e01b600052604160045260246000fd5b600082601f83011261088d57600080fd5b813567ffffffffffffffff808211156108a8576108a8610866565b604051601f8301601f19908116603f011681019082821181831017156108d0576108d0610866565b816040528381528660208588010111156108e957600080fd5b836020870160208301376000602085830101528094505050505092915050565b60006020828403121561091b57600080fd5b813567ffffffffffffffff81111561093257600080fd5b61093e8482850161087c565b949350505050565b6000806040838503121561095957600080fd5b823567ffffffffffffffff81111561097057600080fd5b61097c8582860161087c565b95602094909401359450505050565b6000806000606084860312156109a057600080fd5b833567ffffffffffffffff808211156109b857600080fd5b6109c48783880161087c565b945060208601359150808211156109da57600080fd5b506109e78682870161087c565b925050604084013590509250925092565b60008083601f840112610a0a57600080fd5b50813567ffffffffffffffff811115610a2257600080fd5b602083019150836020828501011115610a3a57600080fd5b9250929050565b60008060008060408587031215610a5757600080fd5b843567ffffffffffffffff80821115610a6f57600080fd5b610a7b888389016109f8565b90965094506020870135915080821115610a9457600080fd5b50610aa1878288016109f8565b95989497509550505050565b6001600160a01b03811681146107ac57600080fd5b600060208284031215610ad457600080fd5b8135610adf81610aad565b9392505050565b634e487b7160e01b600052601160045260246000fd5b600060018201610b0e57610b0e610ae6565b5060010190565b60005b83811015610b30578181015183820152602001610b18565b50506000910152565b60008251610b4b818460208701610b15565b9190910192915050565b600181811c90821680610b6957607f821691505b602082108103610b8957634e487b7160e01b600052602260045260246000fd5b50919050565b601f821115610bd957600081815260208120601f850160051c81016020861015610bb65750805b601f850160051c820191505b81811015610bd557828155600101610bc2565b5050505b505050565b815167ffffffffffffffff811115610bf857610bf8610866565b610c0c81610c068454610b55565b84610b8f565b602080601f831160018114610c415760008415610c295750858301515b600019600386901b1c1916600185901b178555610bd5565b600085815260208120601f198616915b82811015610c7057888601518255948401946001909101908401610c51565b5085821015610c8e5787850151600019600388901b60f8161c191681555b5050505050600190811b01905550565b6020815260008251806020840152610cbd816040850160208701610b15565b601f01601f19169190910160400192915050565b600060208284031215610ce357600080fd5b8151610adf81610aad565b81810381811115610d0157610d01610ae6565b92915050565b8183823760009101908152919050565b67ffffffffffffffff831115610d2f57610d2f610866565b610d4383610d3d8354610b55565b83610b8f565b6000601f841160018114610d775760008515610d5f5750838201355b600019600387901b1c1916600186901b178355610460565b600083815260209020601f19861690835b82811015610da85786850135825560209485019460019092019101610d88565b5086821015610dc55760001960f88860031b161c19848701351681555b505060018560011b018355505050505056fea2646970667358221220ad8e43ed19dd681782dc658654db55c7cdb2287862b019eb69a391a55b4f5cf364736f6c63430008120033",
  "devdoc": {
    "kind": "dev",
    "methods": {
      "owner()": {
        "details": "Returns the address of the current owner."
      },
      "renounceOwnership()": {
        "details": "Leaves the contract without owner. It will not be possible to call `onlyOwner` functions. Can only be called by the current owner. NOTE: Renouncing ownership will leave the contract without an owner, thereby disabling any functionality that is only available to the owner."
      },
      "transferOwnership(address)": {
        "details": "Transfers ownership of the contract to a new account (`newOwner`). Can only be called by the current owner."
      }
    },
    "version": 1
  },
  "userdoc": {
    "kind": "user",
    "methods": {
      "claim(string,string)": {
        "notice": "Can be called by contributor to request fund"
      },
      "finalizeClaim(string,string,uint256)": {
        "notice": "Finalizes the claim process by the creator to fun the contributor"
      }
    },
    "notice": "The core functionality is to enable  Creators to list thier github repos, set how the deposit that they will be paid , once the contributor create PR and close the issue , the contract release the payment to the contributor and mint DAO token to the contributor",
    "version": 1
  },
  "storageLayout": {
    "storage": [
      {
        "astId": 396,
        "contract": "contracts/ContributionPool.sol:ContributionPool",
        "label": "_owner",
        "offset": 0,
        "slot": "0",
        "type": "t_address"
      },
      {
        "astId": 3771,
        "contract": "contracts/ContributionPool.sol:ContributionPool",
        "label": "assignedReqId",
        "offset": 0,
        "slot": "1",
        "type": "t_uint256"
      },
      {
        "astId": 3773,
        "contract": "contracts/ContributionPool.sol:ContributionPool",
        "label": "counter",
        "offset": 0,
        "slot": "2",
        "type": "t_uint256"
      },
      {
        "astId": 3776,
        "contract": "contracts/ContributionPool.sol:ContributionPool",
        "label": "registration",
        "offset": 0,
        "slot": "3",
        "type": "t_contract(Registration)4292"
      },
      {
        "astId": 3779,
        "contract": "contracts/ContributionPool.sol:ContributionPool",
        "label": "token",
        "offset": 0,
        "slot": "4",
        "type": "t_contract(DAOToken)4074"
      },
      {
        "astId": 3784,
        "contract": "contracts/ContributionPool.sol:ContributionPool",
        "label": "CreatorListings",
        "offset": 0,
        "slot": "5",
        "type": "t_mapping(t_address,t_struct(Listing)3797_storage)"
      },
      {
        "astId": 3788,
        "contract": "contracts/ContributionPool.sol:ContributionPool",
        "label": "githubToCreatorAddress",
        "offset": 0,
        "slot": "6",
        "type": "t_mapping(t_string_memory_ptr,t_address)"
      },
      {
        "astId": 3801,
        "contract": "contracts/ContributionPool.sol:ContributionPool",
        "label": "runningClaims",
        "offset": 0,
        "slot": "7",
        "type": "t_mapping(t_uint256,t_address)"
      },
      {
        "astId": 3805,
        "contract": "contracts/ContributionPool.sol:ContributionPool",
        "label": "requestIdToCreator",
        "offset": 0,
        "slot": "8",
        "type": "t_mapping(t_uint256,t_address)"
      },
      {
        "astId": 3809,
        "contract": "contracts/ContributionPool.sol:ContributionPool",
        "label": "requestIdToprUrl",
        "offset": 0,
        "slot": "9",
        "type": "t_mapping(t_uint256,t_string_storage)"
      },
      {
        "astId": 3813,
        "contract": "contracts/ContributionPool.sol:ContributionPool",
        "label": "requestIdToListingId",
        "offset": 0,
        "slot": "10",
        "type": "t_mapping(t_uint256,t_uint256)"
      },
      {
        "astId": 3817,
        "contract": "contracts/ContributionPool.sol:ContributionPool",
        "label": "usedRequests",
        "offset": 0,
        "slot": "11",
        "type": "t_mapping(t_string_memory_ptr,t_bool)"
      }
    ],
    "types": {
      "t_address": {
        "encoding": "inplace",
        "label": "address",
        "numberOfBytes": "20"
      },
      "t_bool": {
        "encoding": "inplace",
        "label": "bool",
        "numberOfBytes": "1"
      },
      "t_contract(DAOToken)4074": {
        "encoding": "inplace",
        "label": "contract DAOToken",
        "numberOfBytes": "20"
      },
      "t_contract(Registration)4292": {
        "encoding": "inplace",
        "label": "contract Registration",
        "numberOfBytes": "20"
      },
      "t_mapping(t_address,t_struct(Listing)3797_storage)": {
        "encoding": "mapping",
        "key": "t_address",
        "label": "mapping(address => struct ContributionPool.Listing)",
        "numberOfBytes": "32",
        "value": "t_struct(Listing)3797_storage"
      },
      "t_mapping(t_string_memory_ptr,t_address)": {
        "encoding": "mapping",
        "key": "t_string_memory_ptr",
        "label": "mapping(string => address)",
        "numberOfBytes": "32",
        "value": "t_address"
      },
      "t_mapping(t_string_memory_ptr,t_bool)": {
        "encoding": "mapping",
        "key": "t_string_memory_ptr",
        "label": "mapping(string => bool)",
        "numberOfBytes": "32",
        "value": "t_bool"
      },
      "t_mapping(t_uint256,t_address)": {
        "encoding": "mapping",
        "key": "t_uint256",
        "label": "mapping(uint256 => address)",
        "numberOfBytes": "32",
        "value": "t_address"
      },
      "t_mapping(t_uint256,t_string_storage)": {
        "encoding": "mapping",
        "key": "t_uint256",
        "label": "mapping(uint256 => string)",
        "numberOfBytes": "32",
        "value": "t_string_storage"
      },
      "t_mapping(t_uint256,t_uint256)": {
        "encoding": "mapping",
        "key": "t_uint256",
        "label": "mapping(uint256 => uint256)",
        "numberOfBytes": "32",
        "value": "t_uint256"
      },
      "t_string_memory_ptr": {
        "encoding": "bytes",
        "label": "string",
        "numberOfBytes": "32"
      },
      "t_string_storage": {
        "encoding": "bytes",
        "label": "string",
        "numberOfBytes": "32"
      },
      "t_struct(Listing)3797_storage": {
        "encoding": "inplace",
        "label": "struct ContributionPool.Listing",
        "members": [
          {
            "astId": 3790,
            "contract": "contracts/ContributionPool.sol:ContributionPool",
            "label": "listingId",
            "offset": 0,
            "slot": "0",
            "type": "t_uint256"
          },
          {
            "astId": 3792,
            "contract": "contracts/ContributionPool.sol:ContributionPool",
            "label": "githubRepo",
            "offset": 0,
            "slot": "1",
            "type": "t_string_storage"
          },
          {
            "astId": 3794,
            "contract": "contracts/ContributionPool.sol:ContributionPool",
            "label": "currentDeposit",
            "offset": 0,
            "slot": "2",
            "type": "t_uint256"
          },
          {
            "astId": 3796,
            "contract": "contracts/ContributionPool.sol:ContributionPool",
            "label": "payableAmount",
            "offset": 0,
            "slot": "3",
            "type": "t_uint256"
          }
        ],
        "numberOfBytes": "128"
      },
      "t_uint256": {
        "encoding": "inplace",
        "label": "uint256",
        "numberOfBytes": "32"
      }
    }
  }
}