{
  "address": "0x8861B67f5Ac24eDc67A34162B31472ADDb1547A7",
  "abi": [
    {
      "inputs": [
        {
          "internalType": "address",
          "name": "token",
          "type": "address"
        },
        {
          "internalType": "uint256",
          "name": "_blanceToJoin",
          "type": "uint256"
        }
      ],
      "stateMutability": "nonpayable",
      "type": "constructor"
    },
    {
      "anonymous": false,
      "inputs": [
        {
          "indexed": true,
          "internalType": "address",
          "name": "contributorAddress",
          "type": "address"
        },
        {
          "indexed": true,
          "internalType": "string",
          "name": "githubUsername",
          "type": "string"
        }
      ],
      "name": "ContributorRegistered",
      "type": "event"
    },
    {
      "anonymous": false,
      "inputs": [
        {
          "indexed": true,
          "internalType": "address",
          "name": "creatorAddress",
          "type": "address"
        }
      ],
      "name": "CreatorRegistered",
      "type": "event"
    },
    {
      "anonymous": false,
      "inputs": [
        {
          "indexed": true,
          "internalType": "address",
          "name": "previousOwner",
          "type": "address"
        },
        {
          "indexed": true,
          "internalType": "address",
          "name": "newOwner",
          "type": "address"
        }
      ],
      "name": "OwnershipTransferred",
      "type": "event"
    },
    {
      "anonymous": false,
      "inputs": [
        {
          "indexed": false,
          "internalType": "address",
          "name": "account",
          "type": "address"
        }
      ],
      "name": "Paused",
      "type": "event"
    },
    {
      "anonymous": false,
      "inputs": [
        {
          "indexed": false,
          "internalType": "address",
          "name": "account",
          "type": "address"
        }
      ],
      "name": "Unpaused",
      "type": "event"
    },
    {
      "inputs": [
        {
          "internalType": "address",
          "name": "creatorAddress",
          "type": "address"
        }
      ],
      "name": "IsProjectCreatorRegistered",
      "outputs": [
        {
          "internalType": "bool",
          "name": "",
          "type": "bool"
        }
      ],
      "stateMutability": "view",
      "type": "function"
    },
    {
      "inputs": [
        {
          "internalType": "address",
          "name": "",
          "type": "address"
        }
      ],
      "name": "addressToGithub",
      "outputs": [
        {
          "internalType": "string",
          "name": "",
          "type": "string"
        }
      ],
      "stateMutability": "view",
      "type": "function"
    },
    {
      "inputs": [],
      "name": "blanceToJoin",
      "outputs": [
        {
          "internalType": "uint256",
          "name": "",
          "type": "uint256"
        }
      ],
      "stateMutability": "view",
      "type": "function"
    },
    {
      "inputs": [
        {
          "internalType": "address",
          "name": "",
          "type": "address"
        }
      ],
      "name": "creatorRegistratedTime",
      "outputs": [
        {
          "internalType": "uint256",
          "name": "",
          "type": "uint256"
        }
      ],
      "stateMutability": "view",
      "type": "function"
    },
    {
      "inputs": [
        {
          "internalType": "string",
          "name": "githubUsername",
          "type": "string"
        }
      ],
      "name": "getDeveloperAddress",
      "outputs": [
        {
          "internalType": "address",
          "name": "",
          "type": "address"
        }
      ],
      "stateMutability": "view",
      "type": "function"
    },
    {
      "inputs": [
        {
          "internalType": "address",
          "name": "dev",
          "type": "address"
        }
      ],
      "name": "getDeveloperGithub",
      "outputs": [
        {
          "internalType": "string",
          "name": "githubUsername",
          "type": "string"
        }
      ],
      "stateMutability": "view",
      "type": "function"
    },
    {
      "inputs": [
        {
          "internalType": "string",
          "name": "",
          "type": "string"
        }
      ],
      "name": "githubToAddress",
      "outputs": [
        {
          "internalType": "address",
          "name": "",
          "type": "address"
        }
      ],
      "stateMutability": "view",
      "type": "function"
    },
    {
      "inputs": [
        {
          "internalType": "string",
          "name": "githubUsername",
          "type": "string"
        }
      ],
      "name": "joinAsContributor",
      "outputs": [],
      "stateMutability": "nonpayable",
      "type": "function"
    },
    {
      "inputs": [],
      "name": "joinAsOpenSourceProjectCreator",
      "outputs": [],
      "stateMutability": "nonpayable",
      "type": "function"
    },
    {
      "inputs": [],
      "name": "owner",
      "outputs": [
        {
          "internalType": "address",
          "name": "",
          "type": "address"
        }
      ],
      "stateMutability": "view",
      "type": "function"
    },
    {
      "inputs": [],
      "name": "pause",
      "outputs": [],
      "stateMutability": "nonpayable",
      "type": "function"
    },
    {
      "inputs": [],
      "name": "paused",
      "outputs": [
        {
          "internalType": "bool",
          "name": "",
          "type": "bool"
        }
      ],
      "stateMutability": "view",
      "type": "function"
    },
    {
      "inputs": [],
      "name": "renounceOwnership",
      "outputs": [],
      "stateMutability": "nonpayable",
      "type": "function"
    },
    {
      "inputs": [
        {
          "internalType": "address",
          "name": "newOwner",
          "type": "address"
        }
      ],
      "name": "transferOwnership",
      "outputs": [],
      "stateMutability": "nonpayable",
      "type": "function"
    },
    {
      "inputs": [],
      "name": "unpause",
      "outputs": [],
      "stateMutability": "nonpayable",
      "type": "function"
    },
    {
      "inputs": [
        {
          "internalType": "uint256",
          "name": "_blanceToJoin",
          "type": "uint256"
        }
      ],
      "name": "updateBlanceToJoin",
      "outputs": [],
      "stateMutability": "nonpayable",
      "type": "function"
    }
  ],
  "transactionHash": "0x620e4f44082208139ecc0dd4be941d588844772fb4a0a3adc62329d83d9ced38",
  "args": [
    "0xB1eB539E7E845991F2915967f96838025277804C",
    100
  ],
  "numDeployments": 1,
  "solcInputHash": "367458c00e2dafb2c24e97c04ead4dcb",
  "bytecode": "0x608060405234801561001057600080fd5b50604051610ea0380380610ea083398101604081905261002f91610113565b6000805460ff19169055610042336100ba565b600480546001600160a01b0319166001600160a01b038416179055600a81116100b15760405162461bcd60e51b815260206004820152601f60248201527f62616c616e6365206d7573742062652067726561746572207468616e20313000604482015260640160405180910390fd5b6005555061014d565b600080546001600160a01b03838116610100818102610100600160a81b0319851617855560405193049190911692909183917f8be0079c531659141344cd1fd0a4f28419497f9722a3daafe3b4186f6b6457e091a35050565b6000806040838503121561012657600080fd5b82516001600160a01b038116811461013d57600080fd5b6020939093015192949293505050565b610d448061015c6000396000f3fe608060405234801561001057600080fd5b50600436106101005760003560e01c8063715018a611610097578063a5dc1f3511610066578063a5dc1f351461023b578063ba2c52e51461025b578063d1ab49611461026e578063f2fde38b1461027757600080fd5b8063715018a6146101e157806372a0ca23146101e95780638456cb591461021d5780638da5cb5b1461022557600080fd5b806355beba04116100d357806355beba041461016a5780635c975abb1461019557806360de7781146101a057806361a399e6146101ce57600080fd5b80631a695e5a146101055780633f4ba83a1461011a5780634441e099146101225780634837388c14610162575b600080fd5b610118610113366004610a3f565b61028a565b005b6101186103f1565b61014d610130366004610af0565b6001600160a01b0316600090815260036020526040902054151590565b60405190151581526020015b60405180910390f35b610118610403565b61017d610178366004610a3f565b61059f565b6040516001600160a01b039091168152602001610159565b60005460ff1661014d565b6101c06101ae366004610af0565b60036020526000908152604090205481565b604051908152602001610159565b6101186101dc366004610b20565b6105d0565b61011861062d565b61017d6101f7366004610a3f565b80516020818301810180516001825292820191909301209152546001600160a01b031681565b61011861063f565b60005461010090046001600160a01b031661017d565b61024e610249366004610af0565b61064f565b6040516101599190610b5d565b61024e610269366004610af0565b6106e9565b6101c060055481565b610118610285366004610af0565b610795565b610292610825565b60006001600160a01b03166001826040516102ad9190610b90565b908152604051908190036020019020546001600160a01b03161461033e5760405162461bcd60e51b815260206004820152602260248201527f67697468756220757365726e616d6520616c726561647920726567697374657260448201527f656400000000000000000000000000000000000000000000000000000000000060648201526084015b60405180910390fd5b3360018260405161034f9190610b90565b908152604080516020928190038301902080547fffffffffffffffffffffffff0000000000000000000000000000000000000000166001600160a01b0394909416939093179092553360009081526002909152206103ad8282610c35565b50806040516103bc9190610b90565b6040519081900381209033907f13ee88f0d8cd989788df59eb339f13fe43ba9ade63ece035c6cba34f1bfbe19b90600090a350565b6103f9610878565b6104016108d8565b565b61040b610825565b336000908152600360205260409020541561048e5760405162461bcd60e51b815260206004820152603160248201527f616c72656164792072656769737465726564206173206f70656e20736f75726360448201527f652070726f6a6563742063726561746f720000000000000000000000000000006064820152608401610335565b600554600480546040517f70a0823100000000000000000000000000000000000000000000000000000000815233928101929092526001600160a01b0316906370a0823190602401602060405180830381865afa1580156104f3573d6000803e3d6000fd5b505050506040513d601f19601f820116820180604052508101906105179190610cf5565b10156105655760405162461bcd60e51b815260206004820152601a60248201527f6e6f7420656e6f7567682062616c616e636520746f206a6f696e0000000000006044820152606401610335565b33600081815260036020526040808220429055517f177b4e655e9aaf45f5db25b396dfba96e0152f6adcf5d9a3e7d07276431d42e79190a2565b60006001826040516105b19190610b90565b908152604051908190036020019020546001600160a01b031692915050565b6105d8610878565b600a81116106285760405162461bcd60e51b815260206004820152601f60248201527f62616c616e6365206d7573742062652067726561746572207468616e203130006044820152606401610335565b600555565b610635610878565b610401600061092a565b610647610878565b61040161099a565b6002602052600090815260409020805461066890610bac565b80601f016020809104026020016040519081016040528092919081815260200182805461069490610bac565b80156106e15780601f106106b6576101008083540402835291602001916106e1565b820191906000526020600020905b8154815290600101906020018083116106c457829003601f168201915b505050505081565b6001600160a01b038116600090815260026020526040902080546060919061071090610bac565b80601f016020809104026020016040519081016040528092919081815260200182805461073c90610bac565b80156107895780601f1061075e57610100808354040283529160200191610789565b820191906000526020600020905b81548152906001019060200180831161076c57829003601f168201915b50505050509050919050565b61079d610878565b6001600160a01b0381166108195760405162461bcd60e51b815260206004820152602660248201527f4f776e61626c653a206e6577206f776e657220697320746865207a65726f206160448201527f64647265737300000000000000000000000000000000000000000000000000006064820152608401610335565b6108228161092a565b50565b60005460ff16156104015760405162461bcd60e51b815260206004820152601060248201527f5061757361626c653a20706175736564000000000000000000000000000000006044820152606401610335565b6000546001600160a01b036101009091041633146104015760405162461bcd60e51b815260206004820181905260248201527f4f776e61626c653a2063616c6c6572206973206e6f7420746865206f776e65726044820152606401610335565b6108e06109d7565b6000805460ff191690557f5db9ee0a495bf2e6ff9c91a7834c1ba4fdd244a5e8aa4e537bd38aeae4b073aa335b6040516001600160a01b03909116815260200160405180910390a1565b600080546001600160a01b038381166101008181027fffffffffffffffffffffff0000000000000000000000000000000000000000ff851617855560405193049190911692909183917f8be0079c531659141344cd1fd0a4f28419497f9722a3daafe3b4186f6b6457e091a35050565b6109a2610825565b6000805460ff191660011790557f62e78cea01bee320cd4e420270b5ea74000d11b0c9f74754ebdbfc544b05a25861090d3390565b60005460ff166104015760405162461bcd60e51b815260206004820152601460248201527f5061757361626c653a206e6f74207061757365640000000000000000000000006044820152606401610335565b634e487b7160e01b600052604160045260246000fd5b600060208284031215610a5157600080fd5b813567ffffffffffffffff80821115610a6957600080fd5b818401915084601f830112610a7d57600080fd5b813581811115610a8f57610a8f610a29565b604051601f8201601f19908116603f01168101908382118183101715610ab757610ab7610a29565b81604052828152876020848701011115610ad057600080fd5b826020860160208301376000928101602001929092525095945050505050565b600060208284031215610b0257600080fd5b81356001600160a01b0381168114610b1957600080fd5b9392505050565b600060208284031215610b3257600080fd5b5035919050565b60005b83811015610b54578181015183820152602001610b3c565b50506000910152565b6020815260008251806020840152610b7c816040850160208701610b39565b601f01601f19169190910160400192915050565b60008251610ba2818460208701610b39565b9190910192915050565b600181811c90821680610bc057607f821691505b602082108103610be057634e487b7160e01b600052602260045260246000fd5b50919050565b601f821115610c3057600081815260208120601f850160051c81016020861015610c0d5750805b601f850160051c820191505b81811015610c2c57828155600101610c19565b5050505b505050565b815167ffffffffffffffff811115610c4f57610c4f610a29565b610c6381610c5d8454610bac565b84610be6565b602080601f831160018114610c985760008415610c805750858301515b600019600386901b1c1916600185901b178555610c2c565b600085815260208120601f198616915b82811015610cc757888601518255948401946001909101908401610ca8565b5085821015610ce55787850151600019600388901b60f8161c191681555b5050505050600190811b01905550565b600060208284031215610d0757600080fd5b505191905056fea26469706673582212202d10891e8de80b654f19535a3dc9c4915084b890c4abe94c04c0e93aa94619c964736f6c63430008120033",
  "devdoc": {
    "events": {
      "Paused(address)": {
        "details": "Emitted when the pause is triggered by `account`."
      },
      "Unpaused(address)": {
        "details": "Emitted when the pause is lifted by `account`."
      }
    },
    "kind": "dev",
    "methods": {
      "owner()": {
        "details": "Returns the address of the current owner."
      },
      "paused()": {
        "details": "Returns true if the contract is paused, and false otherwise."
      },
      "renounceOwnership()": {
        "details": "Leaves the contract without owner. It will not be possible to call `onlyOwner` functions. Can only be called by the current owner. NOTE: Renouncing ownership will leave the contract without an owner, thereby disabling any functionality that is only available to the owner."
      },
      "transferOwnership(address)": {
        "details": "Transfers ownership of the contract to a new account (`newOwner`). Can only be called by the current owner."
      }
    },
    "version": 1
  },
  "userdoc": {
    "kind": "user",
    "methods": {},
    "notice": "the contract should manage user registration , for creator and contributors",
    "version": 1
  },
  "storageLayout": {
    "storage": [
      {
        "astId": 544,
        "contract": "contracts/Registration.sol:Registration",
        "label": "_paused",
        "offset": 0,
        "slot": "0",
        "type": "t_bool"
      },
      {
        "astId": 396,
        "contract": "contracts/Registration.sol:Registration",
        "label": "_owner",
        "offset": 1,
        "slot": "0",
        "type": "t_address"
      },
      {
        "astId": 4088,
        "contract": "contracts/Registration.sol:Registration",
        "label": "githubToAddress",
        "offset": 0,
        "slot": "1",
        "type": "t_mapping(t_string_memory_ptr,t_address)"
      },
      {
        "astId": 4092,
        "contract": "contracts/Registration.sol:Registration",
        "label": "addressToGithub",
        "offset": 0,
        "slot": "2",
        "type": "t_mapping(t_address,t_string_storage)"
      },
      {
        "astId": 4096,
        "contract": "contracts/Registration.sol:Registration",
        "label": "creatorRegistratedTime",
        "offset": 0,
        "slot": "3",
        "type": "t_mapping(t_address,t_uint256)"
      },
      {
        "astId": 4099,
        "contract": "contracts/Registration.sol:Registration",
        "label": "daoToken",
        "offset": 0,
        "slot": "4",
        "type": "t_contract(IERC20)1299"
      },
      {
        "astId": 4101,
        "contract": "contracts/Registration.sol:Registration",
        "label": "blanceToJoin",
        "offset": 0,
        "slot": "5",
        "type": "t_uint256"
      }
    ],
    "types": {
      "t_address": {
        "encoding": "inplace",
        "label": "address",
        "numberOfBytes": "20"
      },
      "t_bool": {
        "encoding": "inplace",
        "label": "bool",
        "numberOfBytes": "1"
      },
      "t_contract(IERC20)1299": {
        "encoding": "inplace",
        "label": "contract IERC20",
        "numberOfBytes": "20"
      },
      "t_mapping(t_address,t_string_storage)": {
        "encoding": "mapping",
        "key": "t_address",
        "label": "mapping(address => string)",
        "numberOfBytes": "32",
        "value": "t_string_storage"
      },
      "t_mapping(t_address,t_uint256)": {
        "encoding": "mapping",
        "key": "t_address",
        "label": "mapping(address => uint256)",
        "numberOfBytes": "32",
        "value": "t_uint256"
      },
      "t_mapping(t_string_memory_ptr,t_address)": {
        "encoding": "mapping",
        "key": "t_string_memory_ptr",
        "label": "mapping(string => address)",
        "numberOfBytes": "32",
        "value": "t_address"
      },
      "t_string_memory_ptr": {
        "encoding": "bytes",
        "label": "string",
        "numberOfBytes": "32"
      },
      "t_string_storage": {
        "encoding": "bytes",
        "label": "string",
        "numberOfBytes": "32"
      },
      "t_uint256": {
        "encoding": "inplace",
        "label": "uint256",
        "numberOfBytes": "32"
      }
    }
  }
}