{
  "_format": "hh-sol-artifact-1",
  "contractName": "ContributionPool",
  "sourceName": "contracts/ContributionPool.sol",
  "abi": [
    {
      "inputs": [
        {
          "internalType": "address",
          "name": "oracle",
          "type": "address"
        },
        {
          "internalType": "address",
          "name": "_registration",
          "type": "address"
        },
        {
          "internalType": "address",
          "name": "_token",
          "type": "address"
        },
        {
          "internalType": "uint64",
          "name": "_subscriptionId",
          "type": "uint64"
        },
        {
          "internalType": "string",
          "name": "_checkLogic",
          "type": "string"
        }
      ],
      "stateMutability": "nonpayable",
      "type": "constructor"
    },
    {
      "inputs": [],
      "name": "EmptyArgs",
      "type": "error"
    },
    {
      "inputs": [],
      "name": "EmptySource",
      "type": "error"
    },
    {
      "inputs": [],
      "name": "NoInlineSecrets",
      "type": "error"
    },
    {
      "inputs": [],
      "name": "RequestIsAlreadyPending",
      "type": "error"
    },
    {
      "inputs": [],
      "name": "RequestIsNotPending",
      "type": "error"
    },
    {
      "inputs": [],
      "name": "SenderIsNotRegistry",
      "type": "error"
    },
    {
      "anonymous": false,
      "inputs": [
        {
          "indexed": false,
          "internalType": "uint256",
          "name": "amount",
          "type": "uint256"
        },
        {
          "indexed": false,
          "internalType": "address",
          "name": "by",
          "type": "address"
        }
      ],
      "name": "Claimed",
      "type": "event"
    },
    {
      "anonymous": false,
      "inputs": [
        {
          "indexed": false,
          "internalType": "uint256",
          "name": "listingId",
          "type": "uint256"
        },
        {
          "indexed": false,
          "internalType": "string",
          "name": "githubRepo",
          "type": "string"
        },
        {
          "indexed": false,
          "internalType": "uint256",
          "name": "deposit",
          "type": "uint256"
        },
        {
          "indexed": false,
          "internalType": "uint256",
          "name": "payableAmount",
          "type": "uint256"
        }
      ],
      "name": "ListingCreated",
      "type": "event"
    },
    {
      "anonymous": false,
      "inputs": [
        {
          "indexed": true,
          "internalType": "bytes32",
          "name": "requestId",
          "type": "bytes32"
        },
        {
          "indexed": false,
          "internalType": "bytes",
          "name": "result",
          "type": "bytes"
        },
        {
          "indexed": false,
          "internalType": "bytes",
          "name": "err",
          "type": "bytes"
        }
      ],
      "name": "OCRResponse",
      "type": "event"
    },
    {
      "anonymous": false,
      "inputs": [
        {
          "indexed": true,
          "internalType": "address",
          "name": "previousOwner",
          "type": "address"
        },
        {
          "indexed": true,
          "internalType": "address",
          "name": "newOwner",
          "type": "address"
        }
      ],
      "name": "OwnershipTransferred",
      "type": "event"
    },
    {
      "anonymous": false,
      "inputs": [
        {
          "indexed": true,
          "internalType": "bytes32",
          "name": "id",
          "type": "bytes32"
        }
      ],
      "name": "RequestFulfilled",
      "type": "event"
    },
    {
      "anonymous": false,
      "inputs": [
        {
          "indexed": true,
          "internalType": "bytes32",
          "name": "id",
          "type": "bytes32"
        }
      ],
      "name": "RequestSent",
      "type": "event"
    },
    {
      "inputs": [
        {
          "internalType": "string",
          "name": "repo",
          "type": "string"
        },
        {
          "internalType": "string",
          "name": "prUrl",
          "type": "string"
        }
      ],
      "name": "claim",
      "outputs": [],
      "stateMutability": "nonpayable",
      "type": "function"
    },
    {
      "inputs": [
        {
          "components": [
            {
              "internalType": "enum Functions.Location",
              "name": "codeLocation",
              "type": "uint8"
            },
            {
              "internalType": "enum Functions.Location",
              "name": "secretsLocation",
              "type": "uint8"
            },
            {
              "internalType": "enum Functions.CodeLanguage",
              "name": "language",
              "type": "uint8"
            },
            {
              "internalType": "string",
              "name": "source",
              "type": "string"
            },
            {
              "internalType": "bytes",
              "name": "secrets",
              "type": "bytes"
            },
            {
              "internalType": "string[]",
              "name": "args",
              "type": "string[]"
            }
          ],
          "internalType": "struct Functions.Request",
          "name": "req",
          "type": "tuple"
        },
        {
          "internalType": "uint64",
          "name": "subscriptionId",
          "type": "uint64"
        },
        {
          "internalType": "uint32",
          "name": "gasLimit",
          "type": "uint32"
        },
        {
          "internalType": "uint256",
          "name": "gasPrice",
          "type": "uint256"
        }
      ],
      "name": "estimateCost",
      "outputs": [
        {
          "internalType": "uint96",
          "name": "",
          "type": "uint96"
        }
      ],
      "stateMutability": "view",
      "type": "function"
    },
    {
      "inputs": [],
      "name": "getDONPublicKey",
      "outputs": [
        {
          "internalType": "bytes",
          "name": "",
          "type": "bytes"
        }
      ],
      "stateMutability": "view",
      "type": "function"
    },
    {
      "inputs": [
        {
          "internalType": "string",
          "name": "",
          "type": "string"
        }
      ],
      "name": "githubToCreatorAddress",
      "outputs": [
        {
          "internalType": "address",
          "name": "",
          "type": "address"
        }
      ],
      "stateMutability": "view",
      "type": "function"
    },
    {
      "inputs": [
        {
          "internalType": "bytes32",
          "name": "requestId",
          "type": "bytes32"
        },
        {
          "internalType": "bytes",
          "name": "response",
          "type": "bytes"
        },
        {
          "internalType": "bytes",
          "name": "err",
          "type": "bytes"
        }
      ],
      "name": "handleOracleFulfillment",
      "outputs": [],
      "stateMutability": "nonpayable",
      "type": "function"
    },
    {
      "inputs": [
        {
          "internalType": "string",
          "name": "githubRepo",
          "type": "string"
        },
        {
          "internalType": "uint256",
          "name": "payableAmount",
          "type": "uint256"
        }
      ],
      "name": "listRepo",
      "outputs": [],
      "stateMutability": "payable",
      "type": "function"
    },
    {
      "inputs": [],
      "name": "owner",
      "outputs": [
        {
          "internalType": "address",
          "name": "",
          "type": "address"
        }
      ],
      "stateMutability": "view",
      "type": "function"
    },
    {
      "inputs": [],
      "name": "renounceOwnership",
      "outputs": [],
      "stateMutability": "nonpayable",
      "type": "function"
    },
    {
      "inputs": [
        {
          "internalType": "address",
          "name": "newOwner",
          "type": "address"
        }
      ],
      "name": "transferOwnership",
      "outputs": [],
      "stateMutability": "nonpayable",
      "type": "function"
    },
    {
      "inputs": [
        {
          "internalType": "address",
          "name": "oracle",
          "type": "address"
        }
      ],
      "name": "updateOracleAddress",
      "outputs": [],
      "stateMutability": "nonpayable",
      "type": "function"
    },
    {
      "inputs": [
        {
          "internalType": "string",
          "name": "",
          "type": "string"
        }
      ],
      "name": "usedRequests",
      "outputs": [
        {
          "internalType": "bool",
          "name": "",
          "type": "bool"
        }
      ],
      "stateMutability": "view",
      "type": "function"
    }
  ],
  "bytecode": "0x60806040523480156200001157600080fd5b50604051620026e8380380620026e8833981016040819052620000349162000141565b846200004033620000be565b600180546001600160a01b0319166001600160a01b03831617905550600c6200006a8282620002f7565b505060048054600580546001600160a01b039586166001600160a01b0319919091161790556001600160401b03909216600160a01b026001600160e01b0319909216929093169190911717905550620003c3565b600080546001600160a01b038381166001600160a01b0319831681178455604051919092169283917f8be0079c531659141344cd1fd0a4f28419497f9722a3daafe3b4186f6b6457e09190a35050565b80516001600160a01b03811681146200012657600080fd5b919050565b634e487b7160e01b600052604160045260246000fd5b600080600080600060a086880312156200015a57600080fd5b62000165866200010e565b94506020620001768188016200010e565b945062000186604088016200010e565b60608801519094506001600160401b038082168214620001a557600080fd5b608089015191945080821115620001bb57600080fd5b818901915089601f830112620001d057600080fd5b815181811115620001e557620001e56200012b565b604051601f8201601f19908116603f011681019083821181831017156200021057620002106200012b565b816040528281528c868487010111156200022957600080fd5b600093505b828410156200024d57848401860151818501870152928501926200022e565b60008684830101528096505050505050509295509295909350565b600181811c908216806200027d57607f821691505b6020821081036200029e57634e487b7160e01b600052602260045260246000fd5b50919050565b601f821115620002f257600081815260208120601f850160051c81016020861015620002cd5750805b601f850160051c820191505b81811015620002ee57828155600101620002d9565b5050505b505050565b81516001600160401b038111156200031357620003136200012b565b6200032b8162000324845462000268565b84620002a4565b602080601f8311600181146200036357600084156200034a5750858301515b600019600386901b1c1916600185901b178555620002ee565b600085815260208120601f198616915b82811015620003945788860151825594840194600190910190840162000373565b5085821015620003b35787850151600019600388901b60f8161c191681555b5050505050600190811b01905550565b61231580620003d36000396000f3fe6080604052600436106100bc5760003560e01c806396d05b0411610074578063d4b391751161004e578063d4b3917514610210578063f2fde38b1461024d578063f7023bb61461026d57600080fd5b806396d05b041461018d578063cb6ab5d8146101ce578063d328a91e146101ee57600080fd5b8063601a8d33116100a5578063601a8d3314610133578063715018a6146101465780638da5cb5b1461015b57600080fd5b80630ca76175146100c15780630f0a585f146100e3575b600080fd5b3480156100cd57600080fd5b506100e16100dc366004611941565b61028d565b005b3480156100ef57600080fd5b5061011e6100fe3660046119ae565b8051602081830181018051600d8252928201919093012091525460ff1681565b60405190151581526020015b60405180910390f35b6100e16101413660046119eb565b610333565b34801561015257600080fd5b506100e1610530565b34801561016757600080fd5b506000546001600160a01b03165b6040516001600160a01b03909116815260200161012a565b34801561019957600080fd5b506101756101a83660046119ae565b80516020818301810180516007825292820191909301209152546001600160a01b031681565b3480156101da57600080fd5b506100e16101e9366004611a79565b610544565b3480156101fa57600080fd5b50610203610938565b60405161012a9190611b35565b34801561021c57600080fd5b5061023061022b366004611c36565b6109c8565b6040516bffffffffffffffffffffffff909116815260200161012a565b34801561025957600080fd5b506100e1610268366004611d5d565b610a51565b34801561027957600080fd5b506100e1610288366004611d5d565b610ae1565b60008381526002602052604090205483906001600160a01b031633146102df576040517fa0c5ec6300000000000000000000000000000000000000000000000000000000815260040160405180910390fd5b60008181526002602052604080822080546001600160a01b03191690555182917f85e1543bf2f84fe80c6badbce3648c8539ad1df4d2b3d822938ca0538be727e691a261032d848484610b07565b50505050565b6040517f4441e099000000000000000000000000000000000000000000000000000000008152336004820181905290634441e09990602401602060405180830381865afa158015610388573d6000803e3d6000fd5b505050506040513d601f19601f820116820180604052508101906103ac9190611d7a565b6104235760405162461bcd60e51b815260206004820152602160248201527f6e6f7420726567697374657265642061732070726f6a6563742063726561746f60448201527f720000000000000000000000000000000000000000000000000000000000000060648201526084015b60405180910390fd5b33600090815260066020526040902054156104805760405162461bcd60e51b815260206004820152600e60248201527f616c7265616479206c6973746564000000000000000000000000000000000000604482015260640161041a565b6003805490600061049083611db2565b9190505550336007836040516104a69190611dcb565b908152604080516020928190038301812080546001600160a01b0319166001600160a01b03959095169490941790935560808301815260035483528183018581523484830152606084018590523360009081526006909352912082518155905160018201906105159082611e67565b50604082015160028201556060909101516003909101555050565b610538610c40565b6105426000610c9a565b565b600660006007868660405161055a929190611f27565b908152602001604051809103902060009054906101000a90046001600160a01b03166001600160a01b03166001600160a01b031681526020019081526020016000206003015460066000600787876040516105b6929190611f27565b9081526040805160209281900383019020546001600160a01b0316835290820192909252016000206002015410156106305760405162461bcd60e51b815260206004820152601960248201527f6e6f7420656e6f7567682062616c616e636520746f2070617900000000000000604482015260640161041a565b600d8282604051610642929190611f27565b9081526040519081900360200190205460ff16156106a25760405162461bcd60e51b815260206004820152601460248201527f7265717565737420616c72656164792075736564000000000000000000000000604482015260640161041a565b6106dc6040805160c08101909152806000815260200160008152602001600081526020016060815260200160608152602001606081525090565b61077e600080600c80546106ef90611de7565b80601f016020809104026020016040519081016040528092919081815260200182805461071b90611de7565b80156107685780601f1061073d57610100808354040283529160200191610768565b820191906000526020600020905b81548152906001019060200180831161074b57829003601f168201915b505050505084610cea909392919063ffffffff16565b604080516001808252818301909252600091816020015b606081526020019060019003908161079557905050905083838080601f01602080910402602001604051908101604052809392919081815260200183838082843760009201829052508551869450909250151590506107f6576107f6611f37565b602090810291909101015261080b8282610d81565b600061083183600460149054906101000a900467ffffffffffffffff16620493e0610dc4565b905060078787604051610845929190611f27565b908152604080519182900360209081018320546000858152600990925291902080546001600160a01b0319166001600160a01b039092169190911790556007906108929089908990611f27565b908152604080519182900360209081019092205460008481526008845282812080546001600160a01b0319166001600160a01b0390931692909217909155600a90925290206108e2858783611f4d565b5060066000600789896040516108f9929190611f27565b9081526040805160209281900383019020546001600160a01b0316835282820193909352908201600090812054938152600b9091522055505050505050565b600154604080517fd328a91e00000000000000000000000000000000000000000000000000000000815290516060926001600160a01b03169163d328a91e9160048083019260009291908290030181865afa15801561099b573d6000803e3d6000fd5b505050506040513d6000823e601f3d908101601f191682016040526109c3919081019061200e565b905090565b6001546000906001600160a01b031663d227d245856109e688610f1c565b86866040518563ffffffff1660e01b8152600401610a07949392919061207c565b602060405180830381865afa158015610a24573d6000803e3d6000fd5b505050506040513d601f19601f82011682018060405250810190610a4891906120b8565b95945050505050565b610a59610c40565b6001600160a01b038116610ad55760405162461bcd60e51b815260206004820152602660248201527f4f776e61626c653a206e6577206f776e657220697320746865207a65726f206160448201527f6464726573730000000000000000000000000000000000000000000000000000606482015260840161041a565b610ade81610c9a565b50565b610ae9610c40565b600180546001600160a01b0319166001600160a01b03831617905550565b827f7bab0ec163b5c132c72b8146ac4d6e067e82ed58f8b131150aa71c92589115628383604051610b399291906120e6565b60405180910390a260008251118015610b6857506000838152600860205260409020546001600160a01b031615155b15610c3b57600083815260096020908152604080832054600a9092529091208054849261032d926001600160a01b0390911691849190610ba790611de7565b80601f0160208091040260200160405190810160405280929190818152602001828054610bd390611de7565b8015610c205780601f10610bf557610100808354040283529160200191610c20565b820191906000526020600020905b815481529060010190602001808311610c0357829003601f168201915b50505060008a8152600b602052604090205491506111e79050565b505050565b6000546001600160a01b031633146105425760405162461bcd60e51b815260206004820181905260248201527f4f776e61626c653a2063616c6c6572206973206e6f7420746865206f776e6572604482015260640161041a565b600080546001600160a01b038381166001600160a01b0319831681178455604051919092169283917f8be0079c531659141344cd1fd0a4f28419497f9722a3daafe3b4186f6b6457e09190a35050565b8051600003610d25576040517f22ce3edd00000000000000000000000000000000000000000000000000000000815260040160405180910390fd5b83836001811115610d3857610d3861210b565b90816001811115610d4b57610d4b61210b565b90525060408401828015610d6157610d6161210b565b90818015610d7157610d7161210b565b9052506060909301929092525050565b8051600003610dbc576040517ffe936cb700000000000000000000000000000000000000000000000000000000815260040160405180910390fd5b60a090910152565b60015460009081906001600160a01b03166328242b0485610de488610f1c565b866040518463ffffffff1660e01b8152600401610e0393929190612121565b6020604051808303816000875af1158015610e22573d6000803e3d6000fd5b505050506040513d601f19601f82011682018060405250810190610e46919061215a565b9050600160009054906101000a90046001600160a01b03166001600160a01b0316635ab1bd536040518163ffffffff1660e01b8152600401602060405180830381865afa158015610e9b573d6000803e3d6000fd5b505050506040513d601f19601f82011682018060405250810190610ebf9190612173565b60008281526002602052604080822080546001600160a01b0319166001600160a01b039490941693909317909255905182917f1131472297a800fee664d1d89cfa8f7676ff07189ecc53f80bbb5f4969099db891a2949350505050565b6060610f2661181e565b8051610f34906101006113cd565b50610f74816040518060400160405280600c81526020017f636f64654c6f636174696f6e0000000000000000000000000000000000000000815250611447565b610f938184600001516001811115610f8e57610f8e61210b565b611460565b610fd2816040518060400160405280600881526020017f6c616e6775616765000000000000000000000000000000000000000000000000815250611447565b610fec8184604001516000811115610f8e57610f8e61210b565b61102b816040518060400160405280600681526020017f736f757263650000000000000000000000000000000000000000000000000000815250611447565b611039818460600151611447565b60a083015151156110df57611083816040518060400160405280600481526020017f6172677300000000000000000000000000000000000000000000000000000000815250611447565b61108c8161149d565b60005b8360a00151518110156110d5576110c3828560a0015183815181106110b6576110b6611f37565b6020026020010151611447565b806110cd81611db2565b91505061108f565b506110df816114c1565b608083015151156111df576000836020015160018111156111025761110261210b565b03611139576040517fa80d31f700000000000000000000000000000000000000000000000000000000815260040160405180910390fd5b611178816040518060400160405280600f81526020017f736563726574734c6f636174696f6e0000000000000000000000000000000000815250611447565b6111928184602001516001811115610f8e57610f8e61210b565b6111d1816040518060400160405280600781526020017f7365637265747300000000000000000000000000000000000000000000000000815250611447565b6111df8184608001516114df565b515192915050565b600480546040517f55beba040000000000000000000000000000000000000000000000000000000081526000926001600160a01b03909216916355beba049161123291889101611b35565b602060405180830381865afa15801561124f573d6000803e3d6000fd5b505050506040513d601f19601f820116820180604052508101906112739190612173565b90506001600d846040516112879190611dcb565b9081526040805160209281900383019020805460ff1916931515939093179092556001600160a01b0387166000908152600690915290812060020180548492906112d2908490612190565b90915550506005546040517f40c10f190000000000000000000000000000000000000000000000000000000081526001600160a01b03838116600483015260016024830152909116906340c10f1990604401600060405180830381600087803b15801561133e57600080fd5b505af1158015611352573d6000803e3d6000fd5b5050604080518581526001600160a01b03851660208201527f6aa3eac93d079e5e100b1029be716caa33586c96aa4baac390669fb5c2a21212935001905060405180910390a1604051339083156108fc029084906000818181858888f193505050501580156113c5573d6000803e3d6000fd5b505050505050565b6040805180820190915260608152600060208201526113ed6020836121a3565b15611415576113fd6020836121a3565b611408906020612190565b61141290836121c5565b91505b60208084018390526040518085526000815290818401018181101561143957600080fd5b604052508290505b92915050565b61145482600383516114e8565b8151610c3b9082611609565b815161146d9060c2611631565b50611499828260405160200161148591815260200190565b6040516020818303038152906040526114df565b5050565b6114a881600461169a565b6001816020018181516114bb91906121c5565b90525050565b6114cc81600761169a565b6001816020018181516114bb9190612190565b61145482600283515b60178167ffffffffffffffff161161150f57825161032d9060e0600585901b168317611631565b60ff8167ffffffffffffffff1611611551578251611538906018611fe0600586901b1617611631565b50825161032d9067ffffffffffffffff831660016116b1565b61ffff8167ffffffffffffffff161161159457825161157b906019611fe0600586901b1617611631565b50825161032d9067ffffffffffffffff831660026116b1565b63ffffffff8167ffffffffffffffff16116115d95782516115c090601a611fe0600586901b1617611631565b50825161032d9067ffffffffffffffff831660046116b1565b82516115f090601b611fe0600586901b1617611631565b50825161032d9067ffffffffffffffff831660086116b1565b60408051808201909152606081526000602082015261162a83838451611736565b9392505050565b60408051808201909152606081526000602082015282515160006116568260016121c5565b90508460200151821061167757611677856116728360026121d8565b611807565b8451602083820101858153508051821115611690578181525b5093949350505050565b8151610c3b90601f611fe0600585901b1617611631565b60408051808201909152606081526000602082015283515160006116d582856121c5565b905085602001518111156116f2576116f2866116728360026121d8565b60006001611702866101006122d3565b61170c9190612190565b9050865182810187831982511617815250805183111561172a578281525b50959695505050505050565b604080518082019091526060815260006020820152825182111561175957600080fd5b835151600061176884836121c5565b9050856020015181111561178557611785866116728360026121d8565b85518051838201602001916000918085111561179f578482525b505050602086015b602086106117df57805182526117be6020836121c5565b91506117cb6020826121c5565b90506117d8602087612190565b95506117a7565b51815160001960208890036101000a0190811690199190911617905250849150509392505050565b815161181383836113cd565b5061032d8382611609565b6040518060400160405280611846604051806040016040528060608152602001600081525090565b8152602001600081525090565b634e487b7160e01b600052604160045260246000fd5b60405160c0810167ffffffffffffffff8111828210171561188c5761188c611853565b60405290565b604051601f8201601f1916810167ffffffffffffffff811182821017156118bb576118bb611853565b604052919050565b600067ffffffffffffffff8211156118dd576118dd611853565b50601f01601f191660200190565b600082601f8301126118fc57600080fd5b813561190f61190a826118c3565b611892565b81815284602083860101111561192457600080fd5b816020850160208301376000918101602001919091529392505050565b60008060006060848603121561195657600080fd5b83359250602084013567ffffffffffffffff8082111561197557600080fd5b611981878388016118eb565b9350604086013591508082111561199757600080fd5b506119a4868287016118eb565b9150509250925092565b6000602082840312156119c057600080fd5b813567ffffffffffffffff8111156119d757600080fd5b6119e3848285016118eb565b949350505050565b600080604083850312156119fe57600080fd5b823567ffffffffffffffff811115611a1557600080fd5b611a21858286016118eb565b95602094909401359450505050565b60008083601f840112611a4257600080fd5b50813567ffffffffffffffff811115611a5a57600080fd5b602083019150836020828501011115611a7257600080fd5b9250929050565b60008060008060408587031215611a8f57600080fd5b843567ffffffffffffffff80821115611aa757600080fd5b611ab388838901611a30565b90965094506020870135915080821115611acc57600080fd5b50611ad987828801611a30565b95989497509550505050565b60005b83811015611b00578181015183820152602001611ae8565b50506000910152565b60008151808452611b21816020860160208601611ae5565b601f01601f19169290920160200192915050565b60208152600061162a6020830184611b09565b803560028110611b5757600080fd5b919050565b803560018110611b5757600080fd5b600082601f830112611b7c57600080fd5b8135602067ffffffffffffffff80831115611b9957611b99611853565b8260051b611ba8838201611892565b9384528581018301938381019088861115611bc257600080fd5b84880192505b85831015611bfe57823584811115611be05760008081fd5b611bee8a87838c01016118eb565b8352509184019190840190611bc8565b98975050505050505050565b803567ffffffffffffffff81168114611b5757600080fd5b803563ffffffff81168114611b5757600080fd5b60008060008060808587031215611c4c57600080fd5b843567ffffffffffffffff80821115611c6457600080fd5b9086019060c08289031215611c7857600080fd5b611c80611869565b611c8983611b48565b8152611c9760208401611b48565b6020820152611ca860408401611b5c565b6040820152606083013582811115611cbf57600080fd5b611ccb8a8286016118eb565b606083015250608083013582811115611ce357600080fd5b611cef8a8286016118eb565b60808301525060a083013582811115611d0757600080fd5b611d138a828601611b6b565b60a0830152509550611d2a91505060208601611c0a565b9250611d3860408601611c22565b9396929550929360600135925050565b6001600160a01b0381168114610ade57600080fd5b600060208284031215611d6f57600080fd5b813561162a81611d48565b600060208284031215611d8c57600080fd5b8151801515811461162a57600080fd5b634e487b7160e01b600052601160045260246000fd5b600060018201611dc457611dc4611d9c565b5060010190565b60008251611ddd818460208701611ae5565b9190910192915050565b600181811c90821680611dfb57607f821691505b602082108103611e1b57634e487b7160e01b600052602260045260246000fd5b50919050565b601f821115610c3b57600081815260208120601f850160051c81016020861015611e485750805b601f850160051c820191505b818110156113c557828155600101611e54565b815167ffffffffffffffff811115611e8157611e81611853565b611e9581611e8f8454611de7565b84611e21565b602080601f831160018114611eca5760008415611eb25750858301515b600019600386901b1c1916600185901b1785556113c5565b600085815260208120601f198616915b82811015611ef957888601518255948401946001909101908401611eda565b5085821015611f175787850151600019600388901b60f8161c191681555b5050505050600190811b01905550565b8183823760009101908152919050565b634e487b7160e01b600052603260045260246000fd5b67ffffffffffffffff831115611f6557611f65611853565b611f7983611f738354611de7565b83611e21565b6000601f841160018114611fad5760008515611f955750838201355b600019600387901b1c1916600186901b178355612007565b600083815260209020601f19861690835b82811015611fde5786850135825560209485019460019092019101611fbe565b5086821015611ffb5760001960f88860031b161c19848701351681555b505060018560011b0183555b5050505050565b60006020828403121561202057600080fd5b815167ffffffffffffffff81111561203757600080fd5b8201601f8101841361204857600080fd5b805161205661190a826118c3565b81815285602083850101111561206b57600080fd5b610a48826020830160208601611ae5565b67ffffffffffffffff8516815260806020820152600061209f6080830186611b09565b63ffffffff949094166040830152506060015292915050565b6000602082840312156120ca57600080fd5b81516bffffffffffffffffffffffff8116811461162a57600080fd5b6040815260006120f96040830185611b09565b8281036020840152610a488185611b09565b634e487b7160e01b600052602160045260246000fd5b67ffffffffffffffff841681526060602082015260006121446060830185611b09565b905063ffffffff83166040830152949350505050565b60006020828403121561216c57600080fd5b5051919050565b60006020828403121561218557600080fd5b815161162a81611d48565b8181038181111561144157611441611d9c565b6000826121c057634e487b7160e01b600052601260045260246000fd5b500690565b8082018082111561144157611441611d9c565b808202811582820484141761144157611441611d9c565b600181815b8085111561222a57816000190482111561221057612210611d9c565b8085161561221d57918102915b93841c93908002906121f4565b509250929050565b60008261224157506001611441565b8161224e57506000611441565b8160018114612264576002811461226e5761228a565b6001915050611441565b60ff84111561227f5761227f611d9c565b50506001821b611441565b5060208310610133831016604e8410600b84101617156122ad575081810a611441565b6122b783836121ef565b80600019048211156122cb576122cb611d9c565b029392505050565b600061162a838361223256fea264697066735822122007c9eb311d19be014b0811d7642c4e81771a4cf303bf90b58ef3c9d744d4566f64736f6c63430008120033",
  "linkReferences": {},
  "deployedLinkReferences": {}
}