{
  "_format": "hh-sol-artifact-1",
  "contractName": "FunctionsOracle",
  "sourceName": "contracts/dev/functions/FunctionsOracle.sol",
  "abi": [
    {
      "inputs": [],
      "name": "AlreadySet",
      "type": "error"
    },
    {
      "inputs": [],
      "name": "CannotSelfTransfer",
      "type": "error"
    },
    {
      "inputs": [],
      "name": "EmptyBillingRegistry",
      "type": "error"
    },
    {
      "inputs": [],
      "name": "EmptyPublicKey",
      "type": "error"
    },
    {
      "inputs": [],
      "name": "EmptyRequestData",
      "type": "error"
    },
    {
      "inputs": [],
      "name": "EmptySendersList",
      "type": "error"
    },
    {
      "inputs": [],
      "name": "InconsistentReportData",
      "type": "error"
    },
    {
      "inputs": [],
      "name": "NotAllowedToSetSenders",
      "type": "error"
    },
    {
      "inputs": [],
      "name": "NotProposedOwner",
      "type": "error"
    },
    {
      "inputs": [],
      "name": "OnlyCallableByOwner",
      "type": "error"
    },
    {
      "inputs": [],
      "name": "OwnerMustBeSet",
      "type": "error"
    },
    {
      "inputs": [],
      "name": "ReportInvalid",
      "type": "error"
    },
    {
      "inputs": [],
      "name": "UnauthorizedPublicKeyChange",
      "type": "error"
    },
    {
      "inputs": [],
      "name": "UnauthorizedSender",
      "type": "error"
    },
    {
      "anonymous": false,
      "inputs": [
        {
          "indexed": false,
          "internalType": "address",
          "name": "account",
          "type": "address"
        }
      ],
      "name": "AuthorizedSendersActive",
      "type": "event"
    },
    {
      "anonymous": false,
      "inputs": [
        {
          "indexed": false,
          "internalType": "address[]",
          "name": "senders",
          "type": "address[]"
        },
        {
          "indexed": false,
          "internalType": "address",
          "name": "changedBy",
          "type": "address"
        }
      ],
      "name": "AuthorizedSendersChanged",
      "type": "event"
    },
    {
      "anonymous": false,
      "inputs": [
        {
          "indexed": false,
          "internalType": "address",
          "name": "account",
          "type": "address"
        }
      ],
      "name": "AuthorizedSendersDeactive",
      "type": "event"
    },
    {
      "anonymous": false,
      "inputs": [
        {
          "indexed": false,
          "internalType": "uint32",
          "name": "previousConfigBlockNumber",
          "type": "uint32"
        },
        {
          "indexed": false,
          "internalType": "bytes32",
          "name": "configDigest",
          "type": "bytes32"
        },
        {
          "indexed": false,
          "internalType": "uint64",
          "name": "configCount",
          "type": "uint64"
        },
        {
          "indexed": false,
          "internalType": "address[]",
          "name": "signers",
          "type": "address[]"
        },
        {
          "indexed": false,
          "internalType": "address[]",
          "name": "transmitters",
          "type": "address[]"
        },
        {
          "indexed": false,
          "internalType": "uint8",
          "name": "f",
          "type": "uint8"
        },
        {
          "indexed": false,
          "internalType": "bytes",
          "name": "onchainConfig",
          "type": "bytes"
        },
        {
          "indexed": false,
          "internalType": "uint64",
          "name": "offchainConfigVersion",
          "type": "uint64"
        },
        {
          "indexed": false,
          "internalType": "bytes",
          "name": "offchainConfig",
          "type": "bytes"
        }
      ],
      "name": "ConfigSet",
      "type": "event"
    },
    {
      "anonymous": false,
      "inputs": [
        {
          "indexed": false,
          "internalType": "uint8",
          "name": "version",
          "type": "uint8"
        }
      ],
      "name": "Initialized",
      "type": "event"
    },
    {
      "anonymous": false,
      "inputs": [
        {
          "indexed": true,
          "internalType": "bytes32",
          "name": "requestId",
          "type": "bytes32"
        }
      ],
      "name": "InvalidRequestID",
      "type": "event"
    },
    {
      "anonymous": false,
      "inputs": [
        {
          "indexed": true,
          "internalType": "bytes32",
          "name": "requestId",
          "type": "bytes32"
        },
        {
          "indexed": false,
          "internalType": "address",
          "name": "requestingContract",
          "type": "address"
        },
        {
          "indexed": false,
          "internalType": "address",
          "name": "requestInitiator",
          "type": "address"
        },
        {
          "indexed": false,
          "internalType": "uint64",
          "name": "subscriptionId",
          "type": "uint64"
        },
        {
          "indexed": false,
          "internalType": "address",
          "name": "subscriptionOwner",
          "type": "address"
        },
        {
          "indexed": false,
          "internalType": "bytes",
          "name": "data",
          "type": "bytes"
        }
      ],
      "name": "OracleRequest",
      "type": "event"
    },
    {
      "anonymous": false,
      "inputs": [
        {
          "indexed": true,
          "internalType": "bytes32",
          "name": "requestId",
          "type": "bytes32"
        }
      ],
      "name": "OracleResponse",
      "type": "event"
    },
    {
      "anonymous": false,
      "inputs": [
        {
          "indexed": true,
          "internalType": "address",
          "name": "from",
          "type": "address"
        },
        {
          "indexed": true,
          "internalType": "address",
          "name": "to",
          "type": "address"
        }
      ],
      "name": "OwnershipTransferRequested",
      "type": "event"
    },
    {
      "anonymous": false,
      "inputs": [
        {
          "indexed": true,
          "internalType": "address",
          "name": "from",
          "type": "address"
        },
        {
          "indexed": true,
          "internalType": "address",
          "name": "to",
          "type": "address"
        }
      ],
      "name": "OwnershipTransferred",
      "type": "event"
    },
    {
      "anonymous": false,
      "inputs": [
        {
          "indexed": false,
          "internalType": "bytes32",
          "name": "configDigest",
          "type": "bytes32"
        },
        {
          "indexed": false,
          "internalType": "uint32",
          "name": "epoch",
          "type": "uint32"
        }
      ],
      "name": "Transmitted",
      "type": "event"
    },
    {
      "anonymous": false,
      "inputs": [
        {
          "indexed": true,
          "internalType": "bytes32",
          "name": "requestId",
          "type": "bytes32"
        },
        {
          "indexed": false,
          "internalType": "string",
          "name": "reason",
          "type": "string"
        }
      ],
      "name": "UserCallbackError",
      "type": "event"
    },
    {
      "anonymous": false,
      "inputs": [
        {
          "indexed": true,
          "internalType": "bytes32",
          "name": "requestId",
          "type": "bytes32"
        },
        {
          "indexed": false,
          "internalType": "bytes",
          "name": "lowLevelData",
          "type": "bytes"
        }
      ],
      "name": "UserCallbackRawError",
      "type": "event"
    },
    {
      "inputs": [],
      "name": "acceptOwnership",
      "outputs": [],
      "stateMutability": "nonpayable",
      "type": "function"
    },
    {
      "inputs": [],
      "name": "activateAuthorizedReceiver",
      "outputs": [],
      "stateMutability": "nonpayable",
      "type": "function"
    },
    {
      "inputs": [
        {
          "internalType": "address[]",
          "name": "senders",
          "type": "address[]"
        }
      ],
      "name": "addAuthorizedSenders",
      "outputs": [],
      "stateMutability": "nonpayable",
      "type": "function"
    },
    {
      "inputs": [],
      "name": "authorizedReceiverActive",
      "outputs": [
        {
          "internalType": "bool",
          "name": "",
          "type": "bool"
        }
      ],
      "stateMutability": "view",
      "type": "function"
    },
    {
      "inputs": [],
      "name": "deactivateAuthorizedReceiver",
      "outputs": [],
      "stateMutability": "nonpayable",
      "type": "function"
    },
    {
      "inputs": [
        {
          "internalType": "address",
          "name": "node",
          "type": "address"
        }
      ],
      "name": "deleteNodePublicKey",
      "outputs": [],
      "stateMutability": "nonpayable",
      "type": "function"
    },
    {
      "inputs": [
        {
          "internalType": "uint64",
          "name": "subscriptionId",
          "type": "uint64"
        },
        {
          "internalType": "bytes",
          "name": "data",
          "type": "bytes"
        },
        {
          "internalType": "uint32",
          "name": "gasLimit",
          "type": "uint32"
        },
        {
          "internalType": "uint256",
          "name": "gasPrice",
          "type": "uint256"
        }
      ],
      "name": "estimateCost",
      "outputs": [
        {
          "internalType": "uint96",
          "name": "",
          "type": "uint96"
        }
      ],
      "stateMutability": "view",
      "type": "function"
    },
    {
      "inputs": [],
      "name": "getAllNodePublicKeys",
      "outputs": [
        {
          "internalType": "address[]",
          "name": "",
          "type": "address[]"
        },
        {
          "internalType": "bytes[]",
          "name": "",
          "type": "bytes[]"
        }
      ],
      "stateMutability": "view",
      "type": "function"
    },
    {
      "inputs": [],
      "name": "getAuthorizedSenders",
      "outputs": [
        {
          "internalType": "address[]",
          "name": "",
          "type": "address[]"
        }
      ],
      "stateMutability": "view",
      "type": "function"
    },
    {
      "inputs": [],
      "name": "getDONPublicKey",
      "outputs": [
        {
          "internalType": "bytes",
          "name": "",
          "type": "bytes"
        }
      ],
      "stateMutability": "view",
      "type": "function"
    },
    {
      "inputs": [],
      "name": "getRegistry",
      "outputs": [
        {
          "internalType": "address",
          "name": "",
          "type": "address"
        }
      ],
      "stateMutability": "view",
      "type": "function"
    },
    {
      "inputs": [
        {
          "internalType": "bytes",
          "name": "",
          "type": "bytes"
        },
        {
          "components": [
            {
              "internalType": "uint64",
              "name": "subscriptionId",
              "type": "uint64"
            },
            {
              "internalType": "address",
              "name": "client",
              "type": "address"
            },
            {
              "internalType": "uint32",
              "name": "gasLimit",
              "type": "uint32"
            },
            {
              "internalType": "uint256",
              "name": "gasPrice",
              "type": "uint256"
            }
          ],
          "internalType": "struct FunctionsBillingRegistryInterface.RequestBilling",
          "name": "",
          "type": "tuple"
        }
      ],
      "name": "getRequiredFee",
      "outputs": [
        {
          "internalType": "uint96",
          "name": "",
          "type": "uint96"
        }
      ],
      "stateMutability": "pure",
      "type": "function"
    },
    {
      "inputs": [],
      "name": "initialize",
      "outputs": [],
      "stateMutability": "nonpayable",
      "type": "function"
    },
    {
      "inputs": [
        {
          "internalType": "address",
          "name": "sender",
          "type": "address"
        }
      ],
      "name": "isAuthorizedSender",
      "outputs": [
        {
          "internalType": "bool",
          "name": "",
          "type": "bool"
        }
      ],
      "stateMutability": "view",
      "type": "function"
    },
    {
      "inputs": [],
      "name": "latestConfigDetails",
      "outputs": [
        {
          "internalType": "uint32",
          "name": "configCount",
          "type": "uint32"
        },
        {
          "internalType": "uint32",
          "name": "blockNumber",
          "type": "uint32"
        },
        {
          "internalType": "bytes32",
          "name": "configDigest",
          "type": "bytes32"
        }
      ],
      "stateMutability": "view",
      "type": "function"
    },
    {
      "inputs": [],
      "name": "latestConfigDigestAndEpoch",
      "outputs": [
        {
          "internalType": "bool",
          "name": "scanLogs",
          "type": "bool"
        },
        {
          "internalType": "bytes32",
          "name": "configDigest",
          "type": "bytes32"
        },
        {
          "internalType": "uint32",
          "name": "epoch",
          "type": "uint32"
        }
      ],
      "stateMutability": "view",
      "type": "function"
    },
    {
      "inputs": [],
      "name": "owner",
      "outputs": [
        {
          "internalType": "address",
          "name": "",
          "type": "address"
        }
      ],
      "stateMutability": "view",
      "type": "function"
    },
    {
      "inputs": [
        {
          "internalType": "address[]",
          "name": "senders",
          "type": "address[]"
        }
      ],
      "name": "removeAuthorizedSenders",
      "outputs": [],
      "stateMutability": "nonpayable",
      "type": "function"
    },
    {
      "inputs": [
        {
          "internalType": "uint64",
          "name": "subscriptionId",
          "type": "uint64"
        },
        {
          "internalType": "bytes",
          "name": "data",
          "type": "bytes"
        },
        {
          "internalType": "uint32",
          "name": "gasLimit",
          "type": "uint32"
        }
      ],
      "name": "sendRequest",
      "outputs": [
        {
          "internalType": "bytes32",
          "name": "",
          "type": "bytes32"
        }
      ],
      "stateMutability": "nonpayable",
      "type": "function"
    },
    {
      "inputs": [
        {
          "internalType": "address[]",
          "name": "_signers",
          "type": "address[]"
        },
        {
          "internalType": "address[]",
          "name": "_transmitters",
          "type": "address[]"
        },
        {
          "internalType": "uint8",
          "name": "_f",
          "type": "uint8"
        },
        {
          "internalType": "bytes",
          "name": "_onchainConfig",
          "type": "bytes"
        },
        {
          "internalType": "uint64",
          "name": "_offchainConfigVersion",
          "type": "uint64"
        },
        {
          "internalType": "bytes",
          "name": "_offchainConfig",
          "type": "bytes"
        }
      ],
      "name": "setConfig",
      "outputs": [],
      "stateMutability": "nonpayable",
      "type": "function"
    },
    {
      "inputs": [
        {
          "internalType": "bytes",
          "name": "donPublicKey",
          "type": "bytes"
        }
      ],
      "name": "setDONPublicKey",
      "outputs": [],
      "stateMutability": "nonpayable",
      "type": "function"
    },
    {
      "inputs": [
        {
          "internalType": "address",
          "name": "node",
          "type": "address"
        },
        {
          "internalType": "bytes",
          "name": "publicKey",
          "type": "bytes"
        }
      ],
      "name": "setNodePublicKey",
      "outputs": [],
      "stateMutability": "nonpayable",
      "type": "function"
    },
    {
      "inputs": [
        {
          "internalType": "address",
          "name": "registryAddress",
          "type": "address"
        }
      ],
      "name": "setRegistry",
      "outputs": [],
      "stateMutability": "nonpayable",
      "type": "function"
    },
    {
      "inputs": [
        {
          "internalType": "address",
          "name": "to",
          "type": "address"
        }
      ],
      "name": "transferOwnership",
      "outputs": [],
      "stateMutability": "nonpayable",
      "type": "function"
    },
    {
      "inputs": [
        {
          "internalType": "bytes32[3]",
          "name": "reportContext",
          "type": "bytes32[3]"
        },
        {
          "internalType": "bytes",
          "name": "report",
          "type": "bytes"
        },
        {
          "internalType": "bytes32[]",
          "name": "rs",
          "type": "bytes32[]"
        },
        {
          "internalType": "bytes32[]",
          "name": "ss",
          "type": "bytes32[]"
        },
        {
          "internalType": "bytes32",
          "name": "rawVs",
          "type": "bytes32"
        }
      ],
      "name": "transmit",
      "outputs": [],
      "stateMutability": "nonpayable",
      "type": "function"
    },
    {
      "inputs": [],
      "name": "transmitters",
      "outputs": [
        {
          "internalType": "address[]",
          "name": "",
          "type": "address[]"
        }
      ],
      "stateMutability": "view",
      "type": "function"
    },
    {
      "inputs": [],
      "name": "typeAndVersion",
      "outputs": [
        {
          "internalType": "string",
          "name": "",
          "type": "string"
        }
      ],
      "stateMutability": "pure",
      "type": "function"
    }
  ],
  "bytecode": "0x608060405234801561001057600080fd5b50613934806100206000396000f3fe608060405234801561001057600080fd5b50600436106101b95760003560e01c80638129fc1c116100f9578063b1dc65a411610097578063e3d0e71211610071578063e3d0e712146103df578063f1e14a21146103f2578063f2fde38b14610409578063fa00763a1461041c57600080fd5b8063b1dc65a414610394578063d227d245146103a7578063d328a91e146103d757600080fd5b80638da5cb5b116100d35780638da5cb5b1461034257806391bb64eb14610359578063a91ee0dc14610361578063afcb95d71461037457600080fd5b80638129fc1c14610302578063814118341461030a57806381ff70481461031257600080fd5b80634b4fa0c1116101665780635ab1bd53116101405780635ab1bd53146102af57806379ba5097146102d45780637f15e166146102dc57806380756031146102ef57600080fd5b80634b4fa0c11461026f5780634dcef40414610286578063533989871461029957600080fd5b80632408afaa116101975780632408afaa1461022657806326ceabac1461023b57806328242b041461024e57600080fd5b806303e1bf23146101be578063110254c8146101d3578063181f5a77146101db575b600080fd5b6101d16101cc3660046129f3565b61042f565b005b6101d1610512565b60408051808201909152601581527f46756e6374696f6e734f7261636c6520302e302e30000000000000000000000060208201525b60405161021d9190612a7b565b60405180910390f35b61022e6105aa565b60405161021d9190612ad2565b6101d1610249366004612afa565b6105bb565b61026161025c366004612b8a565b610635565b60405190815260200161021d565b60085460ff165b604051901515815260200161021d565b6101d16102943660046129f3565b610841565b6102a16108e4565b60405161021d929190612bef565b600c546001600160a01b03165b6040516001600160a01b03909116815260200161021d565b6101d1610ab0565b6101d16102ea366004612c61565b610b68565b6101d16102fd366004612c97565b610bbd565b6101d1610c4c565b61022e610d7c565b6004546002546040805163ffffffff8085168252640100000000909404909316602084015282015260600161021d565b6000546201000090046001600160a01b03166102bc565b6101d1610dde565b6101d161036f366004612afa565b610e6c565b60408051600181526000602082018190529181019190915260600161021d565b6101d16103a2366004612cec565b610ebd565b6103ba6103b5366004612da3565b6114b6565b6040516bffffffffffffffffffffffff909116815260200161021d565b61021061165f565b6101d16103ed366004612f70565b6116e8565b6103ba61040036600461303d565b60009392505050565b6101d1610417366004612afa565b611e3e565b61027661042a366004612afa565b611e4f565b6000546201000090046001600160a01b031633146104605760405163ad77f06160e01b815260040160405180910390fd5b6000819003610482576040516375158c3b60e01b815260040160405180910390fd5b60005b818110156104d2576104bf8383838181106104a2576104a26130fa565b90506020020160208101906104b79190612afa565b600990611e7a565b50806104ca81613126565b915050610485565b507ff263cfb3e4298332e776194610cf9fdc09ccb3ada8b9aa39764d882e11fbf0a08282336040516105069392919061313f565b60405180910390a15050565b6000546201000090046001600160a01b031633146105435760405163ad77f06160e01b815260040160405180910390fd5b60085460ff16156105675760405163a741a04560e01b815260040160405180910390fd5b6008805460ff191660011790556040513381527fae51766a982895b0c444fc99fc1a560762b464d709e6c78376c85617f7eeb5ce906020015b60405180910390a1565b60606105b66009611e96565b905090565b6000546201000090046001600160a01b03166001600160a01b0316336001600160a01b031614806105f45750336001600160a01b038216145b6106115760405163ed6dd19b60e01b815260040160405180910390fd5b6001600160a01b0381166000908152600d6020526040812061063291612935565b50565b600c546000906001600160a01b031661066157604051632717f8c960e21b815260040160405180910390fd5b610669611ea3565b60008390036106a3576040517ec1cfc000000000000000000000000000000000000000000000000000000000815260040160405180910390fd5b600c546040805160808101825267ffffffffffffffff8816815233602082015263ffffffff8516818301523a606082015290517fa9d03c050000000000000000000000000000000000000000000000000000000081526000926001600160a01b03169163a9d03c059161071d9189918991906004016131c8565b6020604051808303816000875af115801561073c573d6000803e3d6000fd5b505050506040513d601f19601f820116820180604052508101906107609190613224565b600c546040517fb2a489ff00000000000000000000000000000000000000000000000000000000815267ffffffffffffffff8916600482015291925082917fa1ec73989d79578cd6f67d4f593ac3e0a4d1020e5c0164db52108d7ff785406c91339132918b916001600160a01b039091169063b2a489ff90602401602060405180830381865afa1580156107f8573d6000803e3d6000fd5b505050506040513d601f19601f8201168201806040525081019061081c919061323d565b8a8a6040516108309695949392919061325a565b60405180910390a295945050505050565b6000546201000090046001600160a01b031633146108725760405163ad77f06160e01b815260040160405180910390fd5b6000819003610894576040516375158c3b60e01b815260040160405180910390fd5b60005b818110156104d2576108d18383838181106108b4576108b46130fa565b90506020020160208101906108c99190612afa565b600990611ee4565b50806108dc81613126565b915050610897565b6060806000306001600160a01b031663814118346040518163ffffffff1660e01b8152600401600060405180830381865afa158015610927573d6000803e3d6000fd5b505050506040513d6000823e601f3d908101601f1916820160405261094f91908101906132ab565b90506000815167ffffffffffffffff81111561096d5761096d612e10565b6040519080825280602002602001820160405280156109a057816020015b606081526020019060019003908161098b5790505b50905060005b8251811015610aa657600d60008483815181106109c5576109c56130fa565b60200260200101516001600160a01b03166001600160a01b0316815260200190815260200160002080546109f890613345565b80601f0160208091040260200160405190810160405280929190818152602001828054610a2490613345565b8015610a715780601f10610a4657610100808354040283529160200191610a71565b820191906000526020600020905b815481529060010190602001808311610a5457829003601f168201915b5050505050828281518110610a8857610a886130fa565b60200260200101819052508080610a9e90613126565b9150506109a6565b5090939092509050565b6001546001600160a01b03163314610af4576040517f0f22ca5f00000000000000000000000000000000000000000000000000000000815260040160405180910390fd5b60008054336201000081810275ffffffffffffffffffffffffffffffffffffffff0000198416178455600180546001600160a01b03191690556040516001600160a01b03919093041692909183917f8be0079c531659141344cd1fd0a4f28419497f9722a3daafe3b4186f6b6457e091a350565b610b70611ef9565b6000819003610bab576040517f4f42be3d00000000000000000000000000000000000000000000000000000000815260040160405180910390fd5b600b610bb88284836133cd565b505050565b6000546201000090046001600160a01b03166001600160a01b0316336001600160a01b03161480610c065750610bf233611f43565b8015610c065750336001600160a01b038416145b610c235760405163ed6dd19b60e01b815260040160405180910390fd5b6001600160a01b0383166000908152600d60205260409020610c468284836133cd565b50505050565b600054610100900460ff1615808015610c6c5750600054600160ff909116105b80610c865750303b158015610c86575060005460ff166001145b610cfd5760405162461bcd60e51b815260206004820152602e60248201527f496e697469616c697a61626c653a20636f6e747261637420697320616c72656160448201527f647920696e697469616c697a656400000000000000000000000000000000000060648201526084015b60405180910390fd5b6000805460ff191660011790558015610d20576000805461ff0019166101001790555b610d2a6001612012565b610d3460016120c1565b8015610632576000805461ff0019169055604051600181527f7f26b83ff96e1f2b6a682f133852f6798a09c465da95921460cefb38474024989060200160405180910390a150565b60606007805480602002602001604051908101604052809291908181526020018280548015610dd457602002820191906000526020600020905b81546001600160a01b03168152600190910190602001808311610db6575b5050505050905090565b6000546201000090046001600160a01b03163314610e0f5760405163ad77f06160e01b815260040160405180910390fd5b60085460ff16610e325760405163a741a04560e01b815260040160405180910390fd5b6008805460ff191690556040513381527fea3828816a323b8d7ff49d755efd105e7719166d6c76fad97a28eee5eccc3d9a906020016105a0565b610e74611ef9565b6001600160a01b038116610e9b57604051632717f8c960e21b815260040160405180910390fd5b600c80546001600160a01b0319166001600160a01b0392909216919091179055565b60005a604080516020601f8b018190048102820181019092528981529192508a3591818c013591610f1391849163ffffffff851691908e908e908190840183828082843760009201919091525061213f92505050565b610f305760405163017c6c6560e31b815260040160405180910390fd5b6040805183815262ffffff600884901c1660208201527fb04e63db38c49950639fa09d29872f21f5d49d614f3a969d8adf3d4b52e41a62910160405180910390a16040805160608101825260025480825260035460ff80821660208501526101009091041692820192909252908314610feb5760405162461bcd60e51b815260206004820152601560248201527f636f6e666967446967657374206d69736d6174636800000000000000000000006044820152606401610cf4565b610ff98b8b8b8b8b8b612148565b600154600090600160a01b900460ff161561104357600282602001518360400151611024919061348e565b61102e91906134bd565b61103990600161348e565b60ff169050611059565b602082015161105390600161348e565b60ff1690505b8881146110a85760405162461bcd60e51b815260206004820152601a60248201527f77726f6e67206e756d626572206f66207369676e6174757265730000000000006044820152606401610cf4565b8887146110f75760405162461bcd60e51b815260206004820152601e60248201527f7369676e617475726573206f7574206f6620726567697374726174696f6e00006044820152606401610cf4565b3360009081526005602090815260408083208151808301909252805460ff8082168452929391929184019161010090910416600281111561113a5761113a6134df565b600281111561114b5761114b6134df565b9052509050600281602001516002811115611168576111686134df565b1480156111a257506007816000015160ff168154811061118a5761118a6130fa565b6000918252602090912001546001600160a01b031633145b6111ee5760405162461bcd60e51b815260206004820152601860248201527f756e617574686f72697a6564207472616e736d697474657200000000000000006044820152606401610cf4565b50505050506111fb61296f565b6000808a8a60405161120e9291906134f5565b604051908190038120611225918e90602001613505565b60408051601f198184030181528282528051602091820120838301909252600080845290830152915060005b89811015611498576000600184898460208110611270576112706130fa565b61127d91901a601b61348e565b8e8e8681811061128f5761128f6130fa565b905060200201358d8d878181106112a8576112a86130fa565b90506020020135604051600081526020016040526040516112e5949392919093845260ff9290921660208401526040830152606082015260800190565b6020604051602081039080840390855afa158015611307573d6000803e3d6000fd5b505060408051601f198101516001600160a01b03811660009081526005602090815290849020838501909452835460ff8082168552929650929450840191610100900416600281111561135c5761135c6134df565b600281111561136d5761136d6134df565b905250925060018360200151600281111561138a5761138a6134df565b146113d75760405162461bcd60e51b815260206004820152601e60248201527f61646472657373206e6f7420617574686f72697a656420746f207369676e00006044820152606401610cf4565b8251600090879060ff16601f81106113f1576113f16130fa565b60200201516001600160a01b03161461144c5760405162461bcd60e51b815260206004820152601460248201527f6e6f6e2d756e69717565207369676e61747572650000000000000000000000006044820152606401610cf4565b8086846000015160ff16601f8110611466576114666130fa565b6001600160a01b03909216602092909202015261148460018661348e565b9450508061149190613126565b9050611251565b5050506114a9833383858e8e6121e5565b5050505050505050505050565b600c546000906001600160a01b03166114e257604051632717f8c960e21b815260040160405180910390fd5b6040805160808101825267ffffffffffffffff8816815233602082015263ffffffff85168183015260608101849052600c5491517ff1e14a21000000000000000000000000000000000000000000000000000000008152909160009182916001600160a01b03169063f1e14a2190611562908b908b9088906004016131c8565b602060405180830381865afa15801561157f573d6000803e3d6000fd5b505050506040513d601f19601f820116820180604052508101906115a39190613519565b600c546040517fa1a6d04100000000000000000000000000000000000000000000000000000000815263ffffffff89166004820152602481018890526bffffffffffffffffffffffff8086166044830152831660648201529192506001600160a01b03169063a1a6d04190608401602060405180830381865afa15801561162e573d6000803e3d6000fd5b505050506040513d601f19601f820116820180604052508101906116529190613519565b9998505050505050505050565b6060600b805461166e90613345565b80601f016020809104026020016040519081016040528092919081815260200182805461169a90613345565b8015610dd45780601f106116bc57610100808354040283529160200191610dd4565b820191906000526020600020905b8154815290600101906020018083116116ca57509395945050505050565b855185518560ff16601f8311156117415760405162461bcd60e51b815260206004820152601060248201527f746f6f206d616e79207369676e657273000000000000000000000000000000006044820152606401610cf4565b600081116117915760405162461bcd60e51b815260206004820152601260248201527f66206d75737420626520706f73697469766500000000000000000000000000006044820152606401610cf4565b8183146118055760405162461bcd60e51b8152602060048201526024808201527f6f7261636c6520616464726573736573206f7574206f6620726567697374726160448201527f74696f6e000000000000000000000000000000000000000000000000000000006064820152608401610cf4565b611810816003613547565b831161185e5760405162461bcd60e51b815260206004820152601860248201527f6661756c74792d6f7261636c65206620746f6f206869676800000000000000006044820152606401610cf4565b611866611ef9565b6040805160c0810182528a8152602081018a905260ff8916918101919091526060810187905267ffffffffffffffff8616608082015260a081018590525b600654156119b6576006546000906118be9060019061355e565b90506000600682815481106118d5576118d56130fa565b6000918252602082200154600780546001600160a01b0390921693509084908110611902576119026130fa565b60009182526020808320909101546001600160a01b03858116845260059092526040808420805461ffff199081169091559290911680845292208054909116905560068054919250908061195857611958613571565b600082815260209020810160001990810180546001600160a01b0319169055019055600780548061198b5761198b613571565b600082815260209020810160001990810180546001600160a01b0319169055019055506118a4915050565b60005b815151811015611cf357600060056000846000015184815181106119df576119df6130fa565b6020908102919091018101516001600160a01b0316825281019190915260400160002054610100900460ff166002811115611a1c57611a1c6134df565b14611a695760405162461bcd60e51b815260206004820152601760248201527f7265706561746564207369676e657220616464726573730000000000000000006044820152606401610cf4565b6040805180820190915260ff82168152600160208201528251805160059160009185908110611a9a57611a9a6130fa565b6020908102919091018101516001600160a01b03168252818101929092526040016000208251815460ff90911660ff19821681178355928401519192839161ffff191617610100836002811115611af357611af36134df565b021790555060009150611b039050565b6005600084602001518481518110611b1d57611b1d6130fa565b6020908102919091018101516001600160a01b0316825281019190915260400160002054610100900460ff166002811115611b5a57611b5a6134df565b14611ba75760405162461bcd60e51b815260206004820152601c60248201527f7265706561746564207472616e736d69747465722061646472657373000000006044820152606401610cf4565b6040805180820190915260ff821681526020810160028152506005600084602001518481518110611bda57611bda6130fa565b6020908102919091018101516001600160a01b03168252818101929092526040016000208251815460ff90911660ff19821681178355928401519192839161ffff191617610100836002811115611c3357611c336134df565b021790555050825180516006925083908110611c5157611c516130fa565b602090810291909101810151825460018101845560009384529282902090920180546001600160a01b0319166001600160a01b039093169290921790915582015180516007919083908110611ca857611ca86130fa565b60209081029190910181015182546001810184556000938452919092200180546001600160a01b0319166001600160a01b03909216919091179055611cec81613126565b90506119b9565b5060408101516003805460ff191660ff9092169190911790556004805467ffffffff0000000019811664010000000063ffffffff438116820292831785559083048116936001939092600092611d50928692908216911617613587565b92506101000a81548163ffffffff021916908363ffffffff160217905550611daf4630600460009054906101000a900463ffffffff1663ffffffff16856000015186602001518760400151886060015189608001518a60a00151612556565b6002819055825180516003805460ff9092166101000261ff001990921691909117905560045460208501516040808701516060880151608089015160a08a015193517f1591690b8638f5fb2dbec82ac741805ac5da8b45dc5263f4875b0496fdce4e0598611e31988b98919763ffffffff9092169690959194919391926135a4565b60405180910390a16114a9565b611e46611ef9565b610632816125e3565b6000611e5d60085460ff1690565b611e6957506001919050565b611e7460098361267d565b92915050565b6000611e8f836001600160a01b03841661269f565b9392505050565b60606000611e8f83612799565b611eac32611e4f565b611ee2576040517f0809490800000000000000000000000000000000000000000000000000000000815260040160405180910390fd5b565b6000611e8f836001600160a01b0384166127f5565b6000546201000090046001600160a01b03163314611ee2576040517f2b5c74de00000000000000000000000000000000000000000000000000000000815260040160405180910390fd5b600080306001600160a01b031663814118346040518163ffffffff1660e01b8152600401600060405180830381865afa158015611f84573d6000803e3d6000fd5b505050506040513d6000823e601f3d908101601f19168201604052611fac91908101906132ab565b905060005b815181101561200857836001600160a01b0316828281518110611fd657611fd66130fa565b60200260200101516001600160a01b031603611ff6575060019392505050565b8061200081613126565b915050611fb1565b5060009392505050565b600054610100900460ff1661207d5760405162461bcd60e51b815260206004820152602b60248201527f496e697469616c697a61626c653a20636f6e7472616374206973206e6f74206960448201526a6e697469616c697a696e6760a81b6064820152608401610cf4565b612088336000612844565b60018054911515600160a01b027fffffffffffffffffffffff00ffffffffffffffffffffffffffffffffffffffff909216919091179055565b600054610100900460ff1661212c5760405162461bcd60e51b815260206004820152602b60248201527f496e697469616c697a61626c653a20636f6e7472616374206973206e6f74206960448201526a6e697469616c697a696e6760a81b6064820152608401610cf4565b6008805460ff1916911515919091179055565b60019392505050565b6000612155826020613547565b612160856020613547565b61216c8861014461363a565b612176919061363a565b612180919061363a565b61218b90600061363a565b90503681146121dc5760405162461bcd60e51b815260206004820152601860248201527f63616c6c64617461206c656e677468206d69736d6174636800000000000000006044820152606401610cf4565b50505050505050565b600c546001600160a01b031661220e57604051632717f8c960e21b815260040160405180910390fd5b6060808061221e848601866136cd565b82519295509093509150158061223657508151835114155b8061224357508051835114155b156122615760405163017c6c6560e31b815260040160405180910390fd5b600083515a612270908c61355e565b61227a91906137aa565b905060005b84518110156114a957600c5485516001600160a01b0390911690630739e4f1908790849081106122b1576122b16130fa565b60200260200101518684815181106122cb576122cb6130fa565b60200260200101518685815181106122e5576122e56130fa565b60200260200101518e8d8f895a6040518963ffffffff1660e01b81526004016123159897969594939291906137be565b6020604051808303816000875af1925050508015612350575060408051601f3d908101601f1916820190925261234d91810190613855565b60015b6123db573d80801561237e576040519150601f19603f3d011682016040523d82523d6000602084013e612383565b606091505b50858281518110612396576123966130fa565b60200260200101517fe0b838ffe6ee22a0d3acf19a85db6a41b34a1ab739e2d6c759a2e42d95bdccb2826040516123cd9190612a7b565b60405180910390a250612540565b60008160028111156123ef576123ef6134df565b0361243f57858281518110612406576124066130fa565b60200260200101517f9e9bc7616d42c2835d05ae617e508454e63b30b934be8aa932ebc125e0e58a6460405160405180910390a261253e565b6001816002811115612453576124536134df565b036124de5785828151811061246a5761246a6130fa565b60200260200101517fb2931868c372fe17a25643458add467d60ec5c51125a99b7309f41f5bcd2da6c6040516124d19060208082526011908201527f6572726f7220696e2063616c6c6261636b000000000000000000000000000000604082015260600190565b60405180910390a261253e565b60028160028111156124f2576124f26134df565b0361253e57858281518110612509576125096130fa565b60200260200101517fa1c120e327c9ad8b075793878c88d59b8934b97ae37117faa3bb21616237f7be60405160405180910390a25b505b8061254a81613126565b91505061227f565b5050565b6000808a8a8a8a8a8a8a8a8a60405160200161257a99989796959493929190613876565b60408051601f1981840301815291905280516020909101207dffffffffffffffffffffffffffffffffffffffffffffffffffffffffffff167e01000000000000000000000000000000000000000000000000000000000000179150509998505050505050505050565b336001600160a01b03821603612625576040517f282010c300000000000000000000000000000000000000000000000000000000815260040160405180910390fd5b600180546001600160a01b0319166001600160a01b038381169182179092556000805460405192936201000090910416917fed8889f560326eb138920d842192f0eb3dd22b4f139c87a2c57538e05bae12789190a350565b6001600160a01b03811660009081526001830160205260408120541515611e8f565b600081815260018301602052604081205480156127885760006126c360018361355e565b85549091506000906126d79060019061355e565b905081811461273c5760008660000182815481106126f7576126f76130fa565b906000526020600020015490508087600001848154811061271a5761271a6130fa565b6000918252602080832090910192909255918252600188019052604090208390555b855486908061274d5761274d613571565b600190038181906000526020600020016000905590558560010160008681526020019081526020016000206000905560019350505050611e74565b6000915050611e74565b5092915050565b6060816000018054806020026020016040519081016040528092919081815260200182805480156127e957602002820191906000526020600020905b8154815260200190600101908083116127d5575b50505050509050919050565b600081815260018301602052604081205461283c57508154600181810184556000848152602080822090930184905584548482528286019093526040902091909155611e74565b506000611e74565b600054610100900460ff166128af5760405162461bcd60e51b815260206004820152602b60248201527f496e697469616c697a61626c653a20636f6e7472616374206973206e6f74206960448201526a6e697469616c697a696e6760a81b6064820152608401610cf4565b6001600160a01b0382166128ef576040517fb6b515fa00000000000000000000000000000000000000000000000000000000815260040160405180910390fd5b600080546001600160a01b03808516620100000275ffffffffffffffffffffffffffffffffffffffff0000199092169190911790915581161561255257612552816125e3565b50805461294190613345565b6000825580601f10612951575050565b601f016020900490600052602060002090810190610632919061298e565b604051806103e00160405280601f906020820280368337509192915050565b5b808211156129a3576000815560010161298f565b5090565b60008083601f8401126129b957600080fd5b50813567ffffffffffffffff8111156129d157600080fd5b6020830191508360208260051b85010111156129ec57600080fd5b9250929050565b60008060208385031215612a0657600080fd5b823567ffffffffffffffff811115612a1d57600080fd5b612a29858286016129a7565b90969095509350505050565b6000815180845260005b81811015612a5b57602081850181015186830182015201612a3f565b506000602082860101526020601f19601f83011685010191505092915050565b602081526000611e8f6020830184612a35565b600081518084526020808501945080840160005b83811015612ac75781516001600160a01b031687529582019590820190600101612aa2565b509495945050505050565b602081526000611e8f6020830184612a8e565b6001600160a01b038116811461063257600080fd5b600060208284031215612b0c57600080fd5b8135611e8f81612ae5565b803567ffffffffffffffff81168114612b2f57600080fd5b919050565b60008083601f840112612b4657600080fd5b50813567ffffffffffffffff811115612b5e57600080fd5b6020830191508360208285010111156129ec57600080fd5b803563ffffffff81168114612b2f57600080fd5b60008060008060608587031215612ba057600080fd5b612ba985612b17565b9350602085013567ffffffffffffffff811115612bc557600080fd5b612bd187828801612b34565b9094509250612be4905060408601612b76565b905092959194509250565b604081526000612c026040830185612a8e565b6020838203818501528185518084528284019150828160051b85010183880160005b83811015612c5257601f19878403018552612c40838351612a35565b94860194925090850190600101612c24565b50909998505050505050505050565b60008060208385031215612c7457600080fd5b823567ffffffffffffffff811115612c8b57600080fd5b612a2985828601612b34565b600080600060408486031215612cac57600080fd5b8335612cb781612ae5565b9250602084013567ffffffffffffffff811115612cd357600080fd5b612cdf86828701612b34565b9497909650939450505050565b60008060008060008060008060e0898b031215612d0857600080fd5b606089018a811115612d1957600080fd5b8998503567ffffffffffffffff80821115612d3357600080fd5b612d3f8c838d01612b34565b909950975060808b0135915080821115612d5857600080fd5b612d648c838d016129a7565b909750955060a08b0135915080821115612d7d57600080fd5b50612d8a8b828c016129a7565b999c989b50969995989497949560c00135949350505050565b600080600080600060808688031215612dbb57600080fd5b612dc486612b17565b9450602086013567ffffffffffffffff811115612de057600080fd5b612dec88828901612b34565b9095509350612dff905060408701612b76565b949793965091946060013592915050565b634e487b7160e01b600052604160045260246000fd5b604051601f8201601f1916810167ffffffffffffffff81118282101715612e4f57612e4f612e10565b604052919050565b600067ffffffffffffffff821115612e7157612e71612e10565b5060051b60200190565b600082601f830112612e8c57600080fd5b81356020612ea1612e9c83612e57565b612e26565b82815260059290921b84018101918181019086841115612ec057600080fd5b8286015b84811015612ee4578035612ed781612ae5565b8352918301918301612ec4565b509695505050505050565b803560ff81168114612b2f57600080fd5b600082601f830112612f1157600080fd5b813567ffffffffffffffff811115612f2b57612f2b612e10565b612f3e601f8201601f1916602001612e26565b818152846020838601011115612f5357600080fd5b816020850160208301376000918101602001919091529392505050565b60008060008060008060c08789031215612f8957600080fd5b863567ffffffffffffffff80821115612fa157600080fd5b612fad8a838b01612e7b565b97506020890135915080821115612fc357600080fd5b612fcf8a838b01612e7b565b9650612fdd60408a01612eef565b95506060890135915080821115612ff357600080fd5b612fff8a838b01612f00565b945061300d60808a01612b17565b935060a089013591508082111561302357600080fd5b5061303089828a01612f00565b9150509295509295509295565b600080600083850360a081121561305357600080fd5b843567ffffffffffffffff8082111561306b57600080fd5b61307788838901612b34565b90965094508491506080601f198401121561309157600080fd5b604051925060808301915082821081831117156130b0576130b0612e10565b506040526130c060208601612b17565b815260408501356130d081612ae5565b60208201526130e160608601612b76565b6040820152608094909401356060850152509093909250565b634e487b7160e01b600052603260045260246000fd5b634e487b7160e01b600052601160045260246000fd5b60006001820161313857613138613110565b5060010190565b6040808252810183905260008460608301825b8681101561318257823561316581612ae5565b6001600160a01b0316825260209283019290910190600101613152565b5080925050506001600160a01b0383166020830152949350505050565b81835281816020850137506000828201602090810191909152601f909101601f19169091010190565b60a0815260006131dc60a08301858761319f565b905067ffffffffffffffff83511660208301526001600160a01b03602084015116604083015263ffffffff604084015116606083015260608301516080830152949350505050565b60006020828403121561323657600080fd5b5051919050565b60006020828403121561324f57600080fd5b8151611e8f81612ae5565b60006001600160a01b038089168352808816602084015267ffffffffffffffff8716604084015280861660608401525060a0608083015261329f60a08301848661319f565b98975050505050505050565b600060208083850312156132be57600080fd5b825167ffffffffffffffff8111156132d557600080fd5b8301601f810185136132e657600080fd5b80516132f4612e9c82612e57565b81815260059190911b8201830190838101908783111561331357600080fd5b928401925b8284101561333a57835161332b81612ae5565b82529284019290840190613318565b979650505050505050565b600181811c9082168061335957607f821691505b60208210810361337957634e487b7160e01b600052602260045260246000fd5b50919050565b601f821115610bb857600081815260208120601f850160051c810160208610156133a65750805b601f850160051c820191505b818110156133c5578281556001016133b2565b505050505050565b67ffffffffffffffff8311156133e5576133e5612e10565b6133f9836133f38354613345565b8361337f565b6000601f84116001811461342d57600085156134155750838201355b600019600387901b1c1916600186901b178355613487565b600083815260209020601f19861690835b8281101561345e578685013582556020948501946001909201910161343e565b508682101561347b5760001960f88860031b161c19848701351681555b505060018560011b0183555b5050505050565b60ff8181168382160190811115611e7457611e74613110565b634e487b7160e01b600052601260045260246000fd5b600060ff8316806134d0576134d06134a7565b8060ff84160491505092915050565b634e487b7160e01b600052602160045260246000fd5b8183823760009101908152919050565b828152606082602083013760800192915050565b60006020828403121561352b57600080fd5b81516bffffffffffffffffffffffff81168114611e8f57600080fd5b8082028115828204841417611e7457611e74613110565b81810381811115611e7457611e74613110565b634e487b7160e01b600052603160045260246000fd5b63ffffffff81811683821601908082111561279257612792613110565b600061012063ffffffff808d1684528b6020850152808b166040850152508060608401526135d48184018a612a8e565b905082810360808401526135e88189612a8e565b905060ff871660a084015282810360c08401526136058187612a35565b905067ffffffffffffffff851660e084015282810361010084015261362a8185612a35565b9c9b505050505050505050505050565b80820180821115611e7457611e74613110565b600082601f83011261365e57600080fd5b8135602061366e612e9c83612e57565b82815260059290921b8401810191818101908684111561368d57600080fd5b8286015b84811015612ee457803567ffffffffffffffff8111156136b15760008081fd5b6136bf8986838b0101612f00565b845250918301918301613691565b6000806000606084860312156136e257600080fd5b833567ffffffffffffffff808211156136fa57600080fd5b818601915086601f83011261370e57600080fd5b8135602061371e612e9c83612e57565b82815260059290921b8401810191818101908a84111561373d57600080fd5b948201945b8386101561375b57853582529482019490820190613742565b9750508701359250508082111561377157600080fd5b61377d8783880161364d565b9350604086013591508082111561379357600080fd5b506137a08682870161364d565b9150509250925092565b6000826137b9576137b96134a7565b500490565b60006104c08a8352602081818501526137d98285018c612a35565b915083820360408501526137ed828b612a35565b92506001600160a01b0391508189166060850152608084018860005b601f811015613828578151851683529183019190830190600101613809565b505050505061383d61046083018660ff169052565b6104808201939093526104a001529695505050505050565b60006020828403121561386757600080fd5b815160038110611e8f57600080fd5b60006101208b83526001600160a01b038b16602084015267ffffffffffffffff808b1660408501528160608501526138b08285018b612a8e565b915083820360808501526138c4828a612a8e565b915060ff881660a085015283820360c08501526138e18288612a35565b90861660e0850152838103610100850152905061362a8185612a3556fea264697066735822122096b04d2451aa87d8f3d34f6e2e26f8bab8af178d0979c162b6a70b2704073cda64736f6c63430008120033",
  "linkReferences": {},
  "deployedLinkReferences": {}
}