{
  "address": "0xb0ED24357E32522AfD21E46890c5401342e6a5Ad",
  "abi": [
    {
      "inputs": [
        {
          "internalType": "address",
          "name": "oracle",
          "type": "address"
        },
        {
          "internalType": "address",
          "name": "_registration",
          "type": "address"
        },
        {
          "internalType": "address",
          "name": "_token",
          "type": "address"
        },
        {
          "internalType": "uint64",
          "name": "_subscriptionId",
          "type": "uint64"
        },
        {
          "internalType": "string",
          "name": "_checkLogic",
          "type": "string"
        }
      ],
      "stateMutability": "nonpayable",
      "type": "constructor"
    },
    {
      "inputs": [],
      "name": "EmptyArgs",
      "type": "error"
    },
    {
      "inputs": [],
      "name": "EmptySource",
      "type": "error"
    },
    {
      "inputs": [],
      "name": "NoInlineSecrets",
      "type": "error"
    },
    {
      "inputs": [],
      "name": "RequestIsAlreadyPending",
      "type": "error"
    },
    {
      "inputs": [],
      "name": "RequestIsNotPending",
      "type": "error"
    },
    {
      "inputs": [],
      "name": "SenderIsNotRegistry",
      "type": "error"
    },
    {
      "anonymous": false,
      "inputs": [
        {
          "indexed": false,
          "internalType": "uint256",
          "name": "amount",
          "type": "uint256"
        },
        {
          "indexed": false,
          "internalType": "address",
          "name": "by",
          "type": "address"
        }
      ],
      "name": "Claimed",
      "type": "event"
    },
    {
      "anonymous": false,
      "inputs": [
        {
          "indexed": false,
          "internalType": "uint256",
          "name": "listingId",
          "type": "uint256"
        },
        {
          "indexed": false,
          "internalType": "string",
          "name": "githubRepo",
          "type": "string"
        },
        {
          "indexed": false,
          "internalType": "uint256",
          "name": "deposit",
          "type": "uint256"
        },
        {
          "indexed": false,
          "internalType": "uint256",
          "name": "payableAmount",
          "type": "uint256"
        }
      ],
      "name": "ListingCreated",
      "type": "event"
    },
    {
      "anonymous": false,
      "inputs": [
        {
          "indexed": true,
          "internalType": "bytes32",
          "name": "requestId",
          "type": "bytes32"
        },
        {
          "indexed": false,
          "internalType": "bytes",
          "name": "result",
          "type": "bytes"
        },
        {
          "indexed": false,
          "internalType": "bytes",
          "name": "err",
          "type": "bytes"
        }
      ],
      "name": "OCRResponse",
      "type": "event"
    },
    {
      "anonymous": false,
      "inputs": [
        {
          "indexed": true,
          "internalType": "address",
          "name": "previousOwner",
          "type": "address"
        },
        {
          "indexed": true,
          "internalType": "address",
          "name": "newOwner",
          "type": "address"
        }
      ],
      "name": "OwnershipTransferred",
      "type": "event"
    },
    {
      "anonymous": false,
      "inputs": [
        {
          "indexed": true,
          "internalType": "bytes32",
          "name": "id",
          "type": "bytes32"
        }
      ],
      "name": "RequestFulfilled",
      "type": "event"
    },
    {
      "anonymous": false,
      "inputs": [
        {
          "indexed": true,
          "internalType": "bytes32",
          "name": "id",
          "type": "bytes32"
        }
      ],
      "name": "RequestSent",
      "type": "event"
    },
    {
      "inputs": [
        {
          "internalType": "string",
          "name": "repo",
          "type": "string"
        },
        {
          "internalType": "string",
          "name": "prUrl",
          "type": "string"
        }
      ],
      "name": "claim",
      "outputs": [],
      "stateMutability": "nonpayable",
      "type": "function"
    },
    {
      "inputs": [
        {
          "components": [
            {
              "internalType": "enum Functions.Location",
              "name": "codeLocation",
              "type": "uint8"
            },
            {
              "internalType": "enum Functions.Location",
              "name": "secretsLocation",
              "type": "uint8"
            },
            {
              "internalType": "enum Functions.CodeLanguage",
              "name": "language",
              "type": "uint8"
            },
            {
              "internalType": "string",
              "name": "source",
              "type": "string"
            },
            {
              "internalType": "bytes",
              "name": "secrets",
              "type": "bytes"
            },
            {
              "internalType": "string[]",
              "name": "args",
              "type": "string[]"
            }
          ],
          "internalType": "struct Functions.Request",
          "name": "req",
          "type": "tuple"
        },
        {
          "internalType": "uint64",
          "name": "subscriptionId",
          "type": "uint64"
        },
        {
          "internalType": "uint32",
          "name": "gasLimit",
          "type": "uint32"
        },
        {
          "internalType": "uint256",
          "name": "gasPrice",
          "type": "uint256"
        }
      ],
      "name": "estimateCost",
      "outputs": [
        {
          "internalType": "uint96",
          "name": "",
          "type": "uint96"
        }
      ],
      "stateMutability": "view",
      "type": "function"
    },
    {
      "inputs": [],
      "name": "getDONPublicKey",
      "outputs": [
        {
          "internalType": "bytes",
          "name": "",
          "type": "bytes"
        }
      ],
      "stateMutability": "view",
      "type": "function"
    },
    {
      "inputs": [
        {
          "internalType": "string",
          "name": "",
          "type": "string"
        }
      ],
      "name": "githubToCreatorAddress",
      "outputs": [
        {
          "internalType": "address",
          "name": "",
          "type": "address"
        }
      ],
      "stateMutability": "view",
      "type": "function"
    },
    {
      "inputs": [
        {
          "internalType": "bytes32",
          "name": "requestId",
          "type": "bytes32"
        },
        {
          "internalType": "bytes",
          "name": "response",
          "type": "bytes"
        },
        {
          "internalType": "bytes",
          "name": "err",
          "type": "bytes"
        }
      ],
      "name": "handleOracleFulfillment",
      "outputs": [],
      "stateMutability": "nonpayable",
      "type": "function"
    },
    {
      "inputs": [
        {
          "internalType": "string",
          "name": "githubRepo",
          "type": "string"
        },
        {
          "internalType": "uint256",
          "name": "payableAmount",
          "type": "uint256"
        }
      ],
      "name": "listRepo",
      "outputs": [],
      "stateMutability": "payable",
      "type": "function"
    },
    {
      "inputs": [],
      "name": "owner",
      "outputs": [
        {
          "internalType": "address",
          "name": "",
          "type": "address"
        }
      ],
      "stateMutability": "view",
      "type": "function"
    },
    {
      "inputs": [],
      "name": "renounceOwnership",
      "outputs": [],
      "stateMutability": "nonpayable",
      "type": "function"
    },
    {
      "inputs": [
        {
          "internalType": "address",
          "name": "newOwner",
          "type": "address"
        }
      ],
      "name": "transferOwnership",
      "outputs": [],
      "stateMutability": "nonpayable",
      "type": "function"
    },
    {
      "inputs": [
        {
          "internalType": "address",
          "name": "oracle",
          "type": "address"
        }
      ],
      "name": "updateOracleAddress",
      "outputs": [],
      "stateMutability": "nonpayable",
      "type": "function"
    },
    {
      "inputs": [
        {
          "internalType": "string",
          "name": "",
          "type": "string"
        }
      ],
      "name": "usedRequests",
      "outputs": [
        {
          "internalType": "bool",
          "name": "",
          "type": "bool"
        }
      ],
      "stateMutability": "view",
      "type": "function"
    }
  ],
  "transactionHash": "0x597a3493beb0e8673a99c4e39f005fa39d6e95f9e351d71c7adea1127e97063a",
  "args": [
    "0xA9d587a00A31A52Ed70D6026794a8FC5E2F5dCb0",
    "0x6Dd7eeBF2C3eBA0bE2261715BB259062CD96E235",
    "0x4d3E28026978973dFf77cf20d81400afAa02c7af",
    20,
    "const repo = args[0];\nconst prNum = args[1];\nconst token = secrets.token; \n\nif (!token) {\n  throw Error(\"Missing secret: github token\");\n}\n\nconst getPrDetailsUrl = repo\n  .replace(\"https://github.com/\", \"https://api.github.com/repos/\") + '/pulls/' + prNum\n\nconst headers = {\n  Authorization: 'token ' + token,\n  Accept: \"application/vnd.github.mockingbird-preview\",\n};\n\n// Get the timeline to find the closing PR\nlet apiResponse = await Functions.makeHttpRequest({ url: getPrDetailsUrl, headers });\n\n\nif (apiResponse.error) {\n  console.error(apiResponse.error);\n  throw Error(\"Request failed\");\n}\n\nconst { data } = apiResponse;\n\nconsole.log(\"API response data:\", JSON.stringify(data, null, 2));\n\nconst { merged, user, created_at } = data;\n\nif (!merged) {\n  throw new Error('Pull request #' + prNumber 'is not merged or could be closed');\n}\n\nreturn Functions.encodeString(JSON.stringify({\n  created_at,\n  user: user.login,\n}));\n"
  ],
  "numDeployments": 1,
  "solcInputHash": "028f9aba28f099c1987249f134c42b13",
  "bytecode": "0x60806040523480156200001157600080fd5b506040516200257e3803806200257e833981016040819052620000349162000141565b846200004033620000be565b50600180546001600160a01b0319166001600160a01b038716179055600c6200006a8282620002f7565b505060048054600580546001600160a01b039586166001600160a01b0319919091161790556001600160401b03909216600160a01b026001600160e01b0319909216929093169190911717905550620003c3565b600080546001600160a01b038381166001600160a01b0319831681178455604051919092169283917f8be0079c531659141344cd1fd0a4f28419497f9722a3daafe3b4186f6b6457e09190a35050565b80516001600160a01b03811681146200012657600080fd5b919050565b634e487b7160e01b600052604160045260246000fd5b600080600080600060a086880312156200015a57600080fd5b62000165866200010e565b94506020620001768188016200010e565b945062000186604088016200010e565b60608801519094506001600160401b038082168214620001a557600080fd5b608089015191945080821115620001bb57600080fd5b818901915089601f830112620001d057600080fd5b815181811115620001e557620001e56200012b565b604051601f8201601f19908116603f011681019083821181831017156200021057620002106200012b565b816040528281528c868487010111156200022957600080fd5b600093505b828410156200024d57848401860151818501870152928501926200022e565b60008684830101528096505050505050509295509295909350565b600181811c908216806200027d57607f821691505b6020821081036200029e57634e487b7160e01b600052602260045260246000fd5b50919050565b601f821115620002f257600081815260208120601f850160051c81016020861015620002cd5750805b601f850160051c820191505b81811015620002ee57828155600101620002d9565b5050505b505050565b81516001600160401b038111156200031357620003136200012b565b6200032b8162000324845462000268565b84620002a4565b602080601f8311600181146200036357600084156200034a5750858301515b600019600386901b1c1916600185901b178555620002ee565b600085815260208120601f198616915b82811015620003945788860151825594840194600190910190840162000373565b5085821015620003b35787850151600019600388901b60f8161c191681555b5050505050600190811b01905550565b6121ab80620003d36000396000f3fe6080604052600436106100bc5760003560e01c806396d05b0411610074578063d4b391751161004e578063d4b3917514610210578063f2fde38b1461024d578063f7023bb61461026d57600080fd5b806396d05b041461018d578063cb6ab5d8146101ce578063d328a91e146101ee57600080fd5b8063601a8d33116100a5578063601a8d3314610133578063715018a6146101465780638da5cb5b1461015b57600080fd5b80630ca76175146100c15780630f0a585f146100e3575b600080fd5b3480156100cd57600080fd5b506100e16100dc3660046117f9565b61028d565b005b3480156100ef57600080fd5b5061011e6100fe366004611866565b8051602081830181018051600d8252928201919093012091525460ff1681565b60405190151581526020015b60405180910390f35b6100e16101413660046118a3565b610333565b34801561015257600080fd5b506100e16103e3565b34801561016757600080fd5b506000546001600160a01b03165b6040516001600160a01b03909116815260200161012a565b34801561019957600080fd5b506101756101a8366004611866565b80516020818301810180516007825292820191909301209152546001600160a01b031681565b3480156101da57600080fd5b506100e16101e9366004611931565b6103f7565b3480156101fa57600080fd5b506102036107f0565b60405161012a91906119ed565b34801561021c57600080fd5b5061023061022b366004611aee565b610880565b6040516bffffffffffffffffffffffff909116815260200161012a565b34801561025957600080fd5b506100e1610268366004611c15565b610909565b34801561027957600080fd5b506100e1610288366004611c15565b610999565b60008381526002602052604090205483906001600160a01b031633146102df576040517fa0c5ec6300000000000000000000000000000000000000000000000000000000815260040160405180910390fd5b60008181526002602052604080822080546001600160a01b03191690555182917f85e1543bf2f84fe80c6badbce3648c8539ad1df4d2b3d822938ca0538be727e691a261032d8484846109bf565b50505050565b6003805490600061034383611c48565b9190505550336007836040516103599190611c61565b908152604080516020928190038301812080546001600160a01b0319166001600160a01b03959095169490941790935560808301815260035483528183018581523484830152606084018590523360009081526006909352912082518155905160018201906103c89082611cfd565b50604082015160028201556060909101516003909101555050565b6103eb610af8565b6103f56000610b52565b565b600660006007868660405161040d929190611dbd565b908152602001604051809103902060009054906101000a90046001600160a01b03166001600160a01b03166001600160a01b03168152602001908152602001600020600301546006600060078787604051610469929190611dbd565b9081526040805160209281900383019020546001600160a01b0316835290820192909252016000206002015410156104e85760405162461bcd60e51b815260206004820152601960248201527f6e6f7420656e6f7567682062616c616e636520746f207061790000000000000060448201526064015b60405180910390fd5b600d82826040516104fa929190611dbd565b9081526040519081900360200190205460ff161561055a5760405162461bcd60e51b815260206004820152601460248201527f7265717565737420616c7265616479207573656400000000000000000000000060448201526064016104df565b6105946040805160c08101909152806000815260200160008152602001600081526020016060815260200160608152602001606081525090565b610636600080600c80546105a790611c7d565b80601f01602080910402602001604051908101604052809291908181526020018280546105d390611c7d565b80156106205780601f106105f557610100808354040283529160200191610620565b820191906000526020600020905b81548152906001019060200180831161060357829003601f168201915b505050505084610ba2909392919063ffffffff16565b604080516001808252818301909252600091816020015b606081526020019060019003908161064d57905050905083838080601f01602080910402602001604051908101604052809392919081815260200183838082843760009201829052508551869450909250151590506106ae576106ae611dcd565b60209081029190910101526106c38282610c39565b60006106e983600460149054906101000a900467ffffffffffffffff16620493e0610c7c565b9050600787876040516106fd929190611dbd565b908152604080519182900360209081018320546000858152600990925291902080546001600160a01b0319166001600160a01b0390921691909117905560079061074a9089908990611dbd565b908152604080519182900360209081019092205460008481526008845282812080546001600160a01b0319166001600160a01b0390931692909217909155600a909252902061079a858783611de3565b5060066000600789896040516107b1929190611dbd565b9081526040805160209281900383019020546001600160a01b0316835282820193909352908201600090812054938152600b9091522055505050505050565b600154604080517fd328a91e00000000000000000000000000000000000000000000000000000000815290516060926001600160a01b03169163d328a91e9160048083019260009291908290030181865afa158015610853573d6000803e3d6000fd5b505050506040513d6000823e601f3d908101601f1916820160405261087b9190810190611ea4565b905090565b6001546000906001600160a01b031663d227d2458561089e88610dd4565b86866040518563ffffffff1660e01b81526004016108bf9493929190611f12565b602060405180830381865afa1580156108dc573d6000803e3d6000fd5b505050506040513d601f19601f820116820180604052508101906109009190611f4e565b95945050505050565b610911610af8565b6001600160a01b03811661098d5760405162461bcd60e51b815260206004820152602660248201527f4f776e61626c653a206e6577206f776e657220697320746865207a65726f206160448201527f646472657373000000000000000000000000000000000000000000000000000060648201526084016104df565b61099681610b52565b50565b6109a1610af8565b600180546001600160a01b0319166001600160a01b03831617905550565b827f7bab0ec163b5c132c72b8146ac4d6e067e82ed58f8b131150aa71c925891156283836040516109f1929190611f7c565b60405180910390a260008251118015610a2057506000838152600860205260409020546001600160a01b031615155b15610af357600083815260096020908152604080832054600a9092529091208054849261032d926001600160a01b0390911691849190610a5f90611c7d565b80601f0160208091040260200160405190810160405280929190818152602001828054610a8b90611c7d565b8015610ad85780601f10610aad57610100808354040283529160200191610ad8565b820191906000526020600020905b815481529060010190602001808311610abb57829003601f168201915b50505060008a8152600b6020526040902054915061109f9050565b505050565b6000546001600160a01b031633146103f55760405162461bcd60e51b815260206004820181905260248201527f4f776e61626c653a2063616c6c6572206973206e6f7420746865206f776e657260448201526064016104df565b600080546001600160a01b038381166001600160a01b0319831681178455604051919092169283917f8be0079c531659141344cd1fd0a4f28419497f9722a3daafe3b4186f6b6457e09190a35050565b8051600003610bdd576040517f22ce3edd00000000000000000000000000000000000000000000000000000000815260040160405180910390fd5b83836001811115610bf057610bf0611fa1565b90816001811115610c0357610c03611fa1565b90525060408401828015610c1957610c19611fa1565b90818015610c2957610c29611fa1565b9052506060909301929092525050565b8051600003610c74576040517ffe936cb700000000000000000000000000000000000000000000000000000000815260040160405180910390fd5b60a090910152565b60015460009081906001600160a01b03166328242b0485610c9c88610dd4565b866040518463ffffffff1660e01b8152600401610cbb93929190611fb7565b6020604051808303816000875af1158015610cda573d6000803e3d6000fd5b505050506040513d601f19601f82011682018060405250810190610cfe9190611ff0565b9050600160009054906101000a90046001600160a01b03166001600160a01b0316635ab1bd536040518163ffffffff1660e01b8152600401602060405180830381865afa158015610d53573d6000803e3d6000fd5b505050506040513d601f19601f82011682018060405250810190610d779190612009565b60008281526002602052604080822080546001600160a01b0319166001600160a01b039490941693909317909255905182917f1131472297a800fee664d1d89cfa8f7676ff07189ecc53f80bbb5f4969099db891a2949350505050565b6060610dde6116d6565b8051610dec90610100611285565b50610e2c816040518060400160405280600c81526020017f636f64654c6f636174696f6e00000000000000000000000000000000000000008152506112ff565b610e4b8184600001516001811115610e4657610e46611fa1565b611318565b610e8a816040518060400160405280600881526020017f6c616e67756167650000000000000000000000000000000000000000000000008152506112ff565b610ea48184604001516000811115610e4657610e46611fa1565b610ee3816040518060400160405280600681526020017f736f7572636500000000000000000000000000000000000000000000000000008152506112ff565b610ef18184606001516112ff565b60a08301515115610f9757610f3b816040518060400160405280600481526020017f61726773000000000000000000000000000000000000000000000000000000008152506112ff565b610f4481611355565b60005b8360a0015151811015610f8d57610f7b828560a001518381518110610f6e57610f6e611dcd565b60200260200101516112ff565b80610f8581611c48565b915050610f47565b50610f9781611379565b6080830151511561109757600083602001516001811115610fba57610fba611fa1565b03610ff1576040517fa80d31f700000000000000000000000000000000000000000000000000000000815260040160405180910390fd5b611030816040518060400160405280600f81526020017f736563726574734c6f636174696f6e00000000000000000000000000000000008152506112ff565b61104a8184602001516001811115610e4657610e46611fa1565b611089816040518060400160405280600781526020017f73656372657473000000000000000000000000000000000000000000000000008152506112ff565b611097818460800151611397565b515192915050565b600480546040517f55beba040000000000000000000000000000000000000000000000000000000081526000926001600160a01b03909216916355beba04916110ea918891016119ed565b602060405180830381865afa158015611107573d6000803e3d6000fd5b505050506040513d601f19601f8201168201806040525081019061112b9190612009565b90506001600d8460405161113f9190611c61565b9081526040805160209281900383019020805460ff1916931515939093179092556001600160a01b03871660009081526006909152908120600201805484929061118a908490612026565b90915550506005546040517f40c10f190000000000000000000000000000000000000000000000000000000081526001600160a01b03838116600483015260016024830152909116906340c10f1990604401600060405180830381600087803b1580156111f657600080fd5b505af115801561120a573d6000803e3d6000fd5b5050604080518581526001600160a01b03851660208201527f6aa3eac93d079e5e100b1029be716caa33586c96aa4baac390669fb5c2a21212935001905060405180910390a1604051339083156108fc029084906000818181858888f1935050505015801561127d573d6000803e3d6000fd5b505050505050565b6040805180820190915260608152600060208201526112a5602083612039565b156112cd576112b5602083612039565b6112c0906020612026565b6112ca908361205b565b91505b6020808401839052604051808552600081529081840101818110156112f157600080fd5b604052508290505b92915050565b61130c82600383516113a0565b8151610af390826114c1565b81516113259060c26114e9565b50611351828260405160200161133d91815260200190565b604051602081830303815290604052611397565b5050565b611360816004611552565b600181602001818151611373919061205b565b90525050565b611384816007611552565b6001816020018181516113739190612026565b61130c82600283515b60178167ffffffffffffffff16116113c757825161032d9060e0600585901b1683176114e9565b60ff8167ffffffffffffffff16116114095782516113f0906018611fe0600586901b16176114e9565b50825161032d9067ffffffffffffffff83166001611569565b61ffff8167ffffffffffffffff161161144c578251611433906019611fe0600586901b16176114e9565b50825161032d9067ffffffffffffffff83166002611569565b63ffffffff8167ffffffffffffffff161161149157825161147890601a611fe0600586901b16176114e9565b50825161032d9067ffffffffffffffff83166004611569565b82516114a890601b611fe0600586901b16176114e9565b50825161032d9067ffffffffffffffff83166008611569565b6040805180820190915260608152600060208201526114e2838384516115ee565b9392505050565b604080518082019091526060815260006020820152825151600061150e82600161205b565b90508460200151821061152f5761152f8561152a83600261206e565b6116bf565b8451602083820101858153508051821115611548578181525b5093949350505050565b8151610af390601f611fe0600585901b16176114e9565b604080518082019091526060815260006020820152835151600061158d828561205b565b905085602001518111156115aa576115aa8661152a83600261206e565b600060016115ba86610100612169565b6115c49190612026565b905086518281018783198251161781525080518311156115e2578281525b50959695505050505050565b604080518082019091526060815260006020820152825182111561161157600080fd5b8351516000611620848361205b565b9050856020015181111561163d5761163d8661152a83600261206e565b855180518382016020019160009180851115611657578482525b505050602086015b60208610611697578051825261167660208361205b565b915061168360208261205b565b9050611690602087612026565b955061165f565b51815160001960208890036101000a0190811690199190911617905250849150509392505050565b81516116cb8383611285565b5061032d83826114c1565b60405180604001604052806116fe604051806040016040528060608152602001600081525090565b8152602001600081525090565b634e487b7160e01b600052604160045260246000fd5b60405160c0810167ffffffffffffffff811182821017156117445761174461170b565b60405290565b604051601f8201601f1916810167ffffffffffffffff811182821017156117735761177361170b565b604052919050565b600067ffffffffffffffff8211156117955761179561170b565b50601f01601f191660200190565b600082601f8301126117b457600080fd5b81356117c76117c28261177b565b61174a565b8181528460208386010111156117dc57600080fd5b816020850160208301376000918101602001919091529392505050565b60008060006060848603121561180e57600080fd5b83359250602084013567ffffffffffffffff8082111561182d57600080fd5b611839878388016117a3565b9350604086013591508082111561184f57600080fd5b5061185c868287016117a3565b9150509250925092565b60006020828403121561187857600080fd5b813567ffffffffffffffff81111561188f57600080fd5b61189b848285016117a3565b949350505050565b600080604083850312156118b657600080fd5b823567ffffffffffffffff8111156118cd57600080fd5b6118d9858286016117a3565b95602094909401359450505050565b60008083601f8401126118fa57600080fd5b50813567ffffffffffffffff81111561191257600080fd5b60208301915083602082850101111561192a57600080fd5b9250929050565b6000806000806040858703121561194757600080fd5b843567ffffffffffffffff8082111561195f57600080fd5b61196b888389016118e8565b9096509450602087013591508082111561198457600080fd5b50611991878288016118e8565b95989497509550505050565b60005b838110156119b85781810151838201526020016119a0565b50506000910152565b600081518084526119d981602086016020860161199d565b601f01601f19169290920160200192915050565b6020815260006114e260208301846119c1565b803560028110611a0f57600080fd5b919050565b803560018110611a0f57600080fd5b600082601f830112611a3457600080fd5b8135602067ffffffffffffffff80831115611a5157611a5161170b565b8260051b611a6083820161174a565b9384528581018301938381019088861115611a7a57600080fd5b84880192505b85831015611ab657823584811115611a985760008081fd5b611aa68a87838c01016117a3565b8352509184019190840190611a80565b98975050505050505050565b803567ffffffffffffffff81168114611a0f57600080fd5b803563ffffffff81168114611a0f57600080fd5b60008060008060808587031215611b0457600080fd5b843567ffffffffffffffff80821115611b1c57600080fd5b9086019060c08289031215611b3057600080fd5b611b38611721565b611b4183611a00565b8152611b4f60208401611a00565b6020820152611b6060408401611a14565b6040820152606083013582811115611b7757600080fd5b611b838a8286016117a3565b606083015250608083013582811115611b9b57600080fd5b611ba78a8286016117a3565b60808301525060a083013582811115611bbf57600080fd5b611bcb8a828601611a23565b60a0830152509550611be291505060208601611ac2565b9250611bf060408601611ada565b9396929550929360600135925050565b6001600160a01b038116811461099657600080fd5b600060208284031215611c2757600080fd5b81356114e281611c00565b634e487b7160e01b600052601160045260246000fd5b600060018201611c5a57611c5a611c32565b5060010190565b60008251611c7381846020870161199d565b9190910192915050565b600181811c90821680611c9157607f821691505b602082108103611cb157634e487b7160e01b600052602260045260246000fd5b50919050565b601f821115610af357600081815260208120601f850160051c81016020861015611cde5750805b601f850160051c820191505b8181101561127d57828155600101611cea565b815167ffffffffffffffff811115611d1757611d1761170b565b611d2b81611d258454611c7d565b84611cb7565b602080601f831160018114611d605760008415611d485750858301515b600019600386901b1c1916600185901b17855561127d565b600085815260208120601f198616915b82811015611d8f57888601518255948401946001909101908401611d70565b5085821015611dad5787850151600019600388901b60f8161c191681555b5050505050600190811b01905550565b8183823760009101908152919050565b634e487b7160e01b600052603260045260246000fd5b67ffffffffffffffff831115611dfb57611dfb61170b565b611e0f83611e098354611c7d565b83611cb7565b6000601f841160018114611e435760008515611e2b5750838201355b600019600387901b1c1916600186901b178355611e9d565b600083815260209020601f19861690835b82811015611e745786850135825560209485019460019092019101611e54565b5086821015611e915760001960f88860031b161c19848701351681555b505060018560011b0183555b5050505050565b600060208284031215611eb657600080fd5b815167ffffffffffffffff811115611ecd57600080fd5b8201601f81018413611ede57600080fd5b8051611eec6117c28261177b565b818152856020838501011115611f0157600080fd5b61090082602083016020860161199d565b67ffffffffffffffff85168152608060208201526000611f3560808301866119c1565b63ffffffff949094166040830152506060015292915050565b600060208284031215611f6057600080fd5b81516bffffffffffffffffffffffff811681146114e257600080fd5b604081526000611f8f60408301856119c1565b828103602084015261090081856119c1565b634e487b7160e01b600052602160045260246000fd5b67ffffffffffffffff84168152606060208201526000611fda60608301856119c1565b905063ffffffff83166040830152949350505050565b60006020828403121561200257600080fd5b5051919050565b60006020828403121561201b57600080fd5b81516114e281611c00565b818103818111156112f9576112f9611c32565b60008261205657634e487b7160e01b600052601260045260246000fd5b500690565b808201808211156112f9576112f9611c32565b80820281158282048414176112f9576112f9611c32565b600181815b808511156120c05781600019048211156120a6576120a6611c32565b808516156120b357918102915b93841c939080029061208a565b509250929050565b6000826120d7575060016112f9565b816120e4575060006112f9565b81600181146120fa576002811461210457612120565b60019150506112f9565b60ff84111561211557612115611c32565b50506001821b6112f9565b5060208310610133831016604e8410600b8410161715612143575081810a6112f9565b61214d8383612085565b806000190482111561216157612161611c32565b029392505050565b60006114e283836120c856fea2646970667358221220ca8319bdeda1c08c3f527a77c9975d4c8ab2fdfe7d66acb035310e218b02ef1964736f6c63430008120033",
  "devdoc": {
    "kind": "dev",
    "methods": {
      "estimateCost((uint8,uint8,uint8,string,bytes,string[]),uint64,uint32,uint256)": {
        "params": {
          "gasLimit": "gas limit for the fulfillment callback",
          "req": "The initialized Functions.Request",
          "subscriptionId": "The subscription ID"
        },
        "returns": {
          "_0": "billedCost Cost in Juels (1e18) of LINK"
        }
      },
      "getDONPublicKey()": {
        "details": "All Oracles nodes have the corresponding private key needed to decrypt the secrets encrypted with the public key",
        "returns": {
          "_0": "publicKey DON's public key"
        }
      },
      "handleOracleFulfillment(bytes32,bytes,bytes)": {
        "params": {
          "err": "Aggregated error either from the user code or from the execution pipeline. Either response or error parameter will be set, but never both.",
          "requestId": "The requestId returned by FunctionsClient.sendRequest().",
          "response": "Aggregated response from the user code."
        }
      },
      "owner()": {
        "details": "Returns the address of the current owner."
      },
      "renounceOwnership()": {
        "details": "Leaves the contract without owner. It will not be possible to call `onlyOwner` functions. Can only be called by the current owner. NOTE: Renouncing ownership will leave the contract without an owner, thereby disabling any functionality that is only available to the owner."
      },
      "transferOwnership(address)": {
        "details": "Transfers ownership of the contract to a new account (`newOwner`). Can only be called by the current owner."
      },
      "updateOracleAddress(address)": {
        "params": {
          "oracle": "New oracle address"
        }
      }
    },
    "version": 1
  },
  "userdoc": {
    "kind": "user",
    "methods": {
      "claim(string,string)": {
        "notice": "Can be called by maintainers to claim donations made to their repositories"
      },
      "estimateCost((uint8,uint8,uint8,string,bytes,string[]),uint64,uint32,uint256)": {
        "notice": "Estimate the total cost that will be charged to a subscription to make a request: gas re-imbursement, plus DON fee, plus Registry fee"
      },
      "getDONPublicKey()": {
        "notice": "Returns the DON's secp256k1 public key used to encrypt secrets"
      },
      "handleOracleFulfillment(bytes32,bytes,bytes)": {
        "notice": "Chainlink Functions response handler called by the designated transmitter node in an OCR round."
      },
      "updateOracleAddress(address)": {
        "notice": "Allows the Functions oracle address to be updated"
      }
    },
    "notice": "The core functionality is to enable  Creators to list thier github repos, set how the deposit that they will be paid , once the contributor create PR and close the issue , the contract release the payment to the contributor and mint DAO token to the contributor",
    "version": 1
  },
  "storageLayout": {
    "storage": [
      {
        "astId": 396,
        "contract": "contracts/ContributionPool.sol:ContributionPool",
        "label": "_owner",
        "offset": 0,
        "slot": "0",
        "type": "t_address"
      },
      {
        "astId": 4793,
        "contract": "contracts/ContributionPool.sol:ContributionPool",
        "label": "s_oracle",
        "offset": 0,
        "slot": "1",
        "type": "t_contract(FunctionsOracleInterface)5227"
      },
      {
        "astId": 4797,
        "contract": "contracts/ContributionPool.sol:ContributionPool",
        "label": "s_pendingRequests",
        "offset": 0,
        "slot": "2",
        "type": "t_mapping(t_bytes32,t_address)"
      },
      {
        "astId": 3780,
        "contract": "contracts/ContributionPool.sol:ContributionPool",
        "label": "counter",
        "offset": 0,
        "slot": "3",
        "type": "t_uint256"
      },
      {
        "astId": 3783,
        "contract": "contracts/ContributionPool.sol:ContributionPool",
        "label": "registration",
        "offset": 0,
        "slot": "4",
        "type": "t_contract(Registration)4437"
      },
      {
        "astId": 3785,
        "contract": "contracts/ContributionPool.sol:ContributionPool",
        "label": "subscriptionId",
        "offset": 20,
        "slot": "4",
        "type": "t_uint64"
      },
      {
        "astId": 3788,
        "contract": "contracts/ContributionPool.sol:ContributionPool",
        "label": "token",
        "offset": 0,
        "slot": "5",
        "type": "t_contract(DAOToken)4219"
      },
      {
        "astId": 3793,
        "contract": "contracts/ContributionPool.sol:ContributionPool",
        "label": "CreatorListings",
        "offset": 0,
        "slot": "6",
        "type": "t_mapping(t_address,t_struct(Listing)3806_storage)"
      },
      {
        "astId": 3797,
        "contract": "contracts/ContributionPool.sol:ContributionPool",
        "label": "githubToCreatorAddress",
        "offset": 0,
        "slot": "7",
        "type": "t_mapping(t_string_memory_ptr,t_address)"
      },
      {
        "astId": 3810,
        "contract": "contracts/ContributionPool.sol:ContributionPool",
        "label": "runningClaims",
        "offset": 0,
        "slot": "8",
        "type": "t_mapping(t_bytes32,t_address)"
      },
      {
        "astId": 3814,
        "contract": "contracts/ContributionPool.sol:ContributionPool",
        "label": "requestIdToCreator",
        "offset": 0,
        "slot": "9",
        "type": "t_mapping(t_bytes32,t_address)"
      },
      {
        "astId": 3818,
        "contract": "contracts/ContributionPool.sol:ContributionPool",
        "label": "requestIdToprUrl",
        "offset": 0,
        "slot": "10",
        "type": "t_mapping(t_bytes32,t_string_storage)"
      },
      {
        "astId": 3822,
        "contract": "contracts/ContributionPool.sol:ContributionPool",
        "label": "requestIdToListingId",
        "offset": 0,
        "slot": "11",
        "type": "t_mapping(t_bytes32,t_uint256)"
      },
      {
        "astId": 3824,
        "contract": "contracts/ContributionPool.sol:ContributionPool",
        "label": "checkLogic",
        "offset": 0,
        "slot": "12",
        "type": "t_string_storage"
      },
      {
        "astId": 3828,
        "contract": "contracts/ContributionPool.sol:ContributionPool",
        "label": "usedRequests",
        "offset": 0,
        "slot": "13",
        "type": "t_mapping(t_string_memory_ptr,t_bool)"
      }
    ],
    "types": {
      "t_address": {
        "encoding": "inplace",
        "label": "address",
        "numberOfBytes": "20"
      },
      "t_bool": {
        "encoding": "inplace",
        "label": "bool",
        "numberOfBytes": "1"
      },
      "t_bytes32": {
        "encoding": "inplace",
        "label": "bytes32",
        "numberOfBytes": "32"
      },
      "t_contract(DAOToken)4219": {
        "encoding": "inplace",
        "label": "contract DAOToken",
        "numberOfBytes": "20"
      },
      "t_contract(FunctionsOracleInterface)5227": {
        "encoding": "inplace",
        "label": "contract FunctionsOracleInterface",
        "numberOfBytes": "20"
      },
      "t_contract(Registration)4437": {
        "encoding": "inplace",
        "label": "contract Registration",
        "numberOfBytes": "20"
      },
      "t_mapping(t_address,t_struct(Listing)3806_storage)": {
        "encoding": "mapping",
        "key": "t_address",
        "label": "mapping(address => struct ContributionPool.Listing)",
        "numberOfBytes": "32",
        "value": "t_struct(Listing)3806_storage"
      },
      "t_mapping(t_bytes32,t_address)": {
        "encoding": "mapping",
        "key": "t_bytes32",
        "label": "mapping(bytes32 => address)",
        "numberOfBytes": "32",
        "value": "t_address"
      },
      "t_mapping(t_bytes32,t_string_storage)": {
        "encoding": "mapping",
        "key": "t_bytes32",
        "label": "mapping(bytes32 => string)",
        "numberOfBytes": "32",
        "value": "t_string_storage"
      },
      "t_mapping(t_bytes32,t_uint256)": {
        "encoding": "mapping",
        "key": "t_bytes32",
        "label": "mapping(bytes32 => uint256)",
        "numberOfBytes": "32",
        "value": "t_uint256"
      },
      "t_mapping(t_string_memory_ptr,t_address)": {
        "encoding": "mapping",
        "key": "t_string_memory_ptr",
        "label": "mapping(string => address)",
        "numberOfBytes": "32",
        "value": "t_address"
      },
      "t_mapping(t_string_memory_ptr,t_bool)": {
        "encoding": "mapping",
        "key": "t_string_memory_ptr",
        "label": "mapping(string => bool)",
        "numberOfBytes": "32",
        "value": "t_bool"
      },
      "t_string_memory_ptr": {
        "encoding": "bytes",
        "label": "string",
        "numberOfBytes": "32"
      },
      "t_string_storage": {
        "encoding": "bytes",
        "label": "string",
        "numberOfBytes": "32"
      },
      "t_struct(Listing)3806_storage": {
        "encoding": "inplace",
        "label": "struct ContributionPool.Listing",
        "members": [
          {
            "astId": 3799,
            "contract": "contracts/ContributionPool.sol:ContributionPool",
            "label": "listingId",
            "offset": 0,
            "slot": "0",
            "type": "t_uint256"
          },
          {
            "astId": 3801,
            "contract": "contracts/ContributionPool.sol:ContributionPool",
            "label": "githubRepo",
            "offset": 0,
            "slot": "1",
            "type": "t_string_storage"
          },
          {
            "astId": 3803,
            "contract": "contracts/ContributionPool.sol:ContributionPool",
            "label": "currentDeposit",
            "offset": 0,
            "slot": "2",
            "type": "t_uint256"
          },
          {
            "astId": 3805,
            "contract": "contracts/ContributionPool.sol:ContributionPool",
            "label": "payableAmount",
            "offset": 0,
            "slot": "3",
            "type": "t_uint256"
          }
        ],
        "numberOfBytes": "128"
      },
      "t_uint256": {
        "encoding": "inplace",
        "label": "uint256",
        "numberOfBytes": "32"
      },
      "t_uint64": {
        "encoding": "inplace",
        "label": "uint64",
        "numberOfBytes": "8"
      }
    }
  }
}